:020000041000EA
:1000000000B5324B212058609868022188439860DF
:10001000D860186158612E4B002199600221596106
:100020000121F02299502B49196001219960352056
:1000300000F044F80222904214D00621196600F024
:1000400034F8196E01211966002018661A6600F04E
:100050002CF8196E196E196E052000F02FF8012189
:100060000842F9D1002199601B49196000215960AB
:100070001A491B48016001219960EB211966A021F2
:10008000196600F012F800219960164914480160C1
:100090000121996001BC002800D000471248134993
:1000A000086003C880F30888084703B5996A0420EC
:1000B0000142FBD001200142F8D103BD02B5186610
:1000C0001866FFF7F2FF186E186E02BD00000240BE
:1000D000000000180000070000035F00212200005C
:1000E000F4000018222000A00001001008ED00E03C
:1000F00000000000000000000000000074B24E7A12
:1001000000200420F7010010C3010010C5010010F9
:10011000C1010010C1010010C1010010C101001097
:10012000C1010010C1010010C1010010C701001081
:10013000C1010010C1010010C9010010CB01001065
:10014000CD010010CD010010CD010010CD01001037
:10015000CD010010CD010010CD010010CD01001027
:10016000CD010010CD010010CD010010CD01001017
:10017000CD010010CD010010CD010010CD01001007
:10018000CD010010CD010010CD010010CD010010F7
:10019000CD010010CD010010CD010010CD010010E7
:1001A000CD010010CD010010CD010010CD010010D7
:1001B000CD010010CD010010CD010010CD010010C7
:1001C00000BE00BE00BE00BE00BE00BE00F04BF888
:1001D000103800BEF2EB8871C86C0410F46C041087
:1001E0003402001090A31AE700202149086006C8D5
:1001F00081F3088810471F48006800282FD10DA4FC
:100200000ECC002902D000F012F8F9E71A491B4A77
:10021000002000E001C19142FCD1194988471949E9
:1002200088471949884700BEFDE701C901C29A42C3
:10023000FBD37047F46C0410C0000020A00A00201B
:10024000D47604100000042000000420D4760410AA
:1002500000100420001004200000000070470B482C
:1002600038F062FC0047EFF30580C0B27047000031
:1002700008ED00E0000000D0A00A0020BC5A0020D9
:100280009173031015170010517303105756000097
:1002900006005250ABB3605388FA03100600525068
:1002A000861C030298FA0310060052505422A29DA5
:1002B000A0FA031005005250DE65F468D4760410ED
:1002C000F8B5C04606480749091A8B10C90FC91866
:1002D00010B5491003D0044B002B00D0984710BD37
:1002E000A00A0020A00A002000000000054B10B565
:1002F000002B03D00449054800E000BFFFF7E2FFF0
:1003000010BDC04600000000C820002008DD03101A
:1003100010B582B00C00144BC3185A425341134A13
:100320005B009B5E8B4204D06B46DA1D147000218B
:1003300015E06B46DA1D0D23137000210029F3D15F
:1003400083699B06FCD41378036001310132F5E721
:1003500083699B06FCD413780360013101320029C4
:10036000F6D002B010BDC0460080FCBF405A00204D
:1003700082B000226B46D91D06E08369DB06FCD4FF
:1003800003680B7001320131002AF6D06B46D87930
:1003900002B07047024A1368013313607047C046C9
:1003A000902000200123024A1360024A1370704714
:1003B00034700540715A002010B50400074B01222B
:1003C0001A600749002035F027FD0121002035F093
:1003D000F9FC044A936A1B19136110BD386005408B
:1003E000A50300100040054010B504001F2135F0A2
:1003F000BFFA00220021200035F0D2FA00212000AF
:1004000035F09EFB10BD00B583B001226B46D91DAF
:100410003BF06EFC002803D06B46D87903B000BDDA
:1004200001204042FAE7000010B5214B1968214A2B
:100430009368CB1A5268934238DB1E4B99601C6854
:10044000042C30D8A3001C4AD3589F46194B1B4A92
:100450005A6001341C6029E0164BFA2292005A605F
:1004600001341C6022E0164B1868164939F09EFAD8
:1004700000281BD00F4B01341C6017E0104B18688C
:10048000104939F0A1FA002810D00A4B01341C6041
:100490000CE00D4B1B78002B02D10B4B01221A7084
:1004A000044B00221A60034B00221A6010BDC046A4
:1004B000F0030020E438002008DD0310881300005A
:1004C0008C1400200000F0C1835A002010B50E4BA0
:1004D0001A680E4B1B68D31AFA2189008B4208DB7D
:1004E0000A4B1A600A4B1B68052B03DC084B0022E1
:1004F0001A6010BD064B1968064839F00BFD064B13
:10050000064A1A60F2E7C046F0030020942000205B
:10051000902000201CDD0310BC140020B80B00004C
:100520001A4B1A681A4B1B68D31AFA2189008B429E
:100530002ADB174B1A60174B1B68012B0BD0022BC1
:1005400018D0002B20D1144A1268012A1CD1114A5C
:100550000133136018E0114A1268002A02D00F49D3
:10056000013A0A600C4A1268002A0DD1094A013387
:10057000136009E0084B1B68002B02D1054B0022D9
:100580001A60074B01221A707047C046F003002022
:1005900038130020E0380020B4140020BC140020E0
:1005A000835A002010B53CF06FFC10BD10B50D490A
:1005B0000D483CF0CDFC01210C2035F0D9F901218A
:1005C0000A2035F0D5F901210B2035F0D1F90D20A5
:1005D00035F0CEFAD0231B06802292015A625A616E
:1005E00010BDC046400D03000000044070B5041C5F
:1005F000FF21890539F0DAF900280AD10E49201CBB
:1006000039F0DAF9002812D0FF2189050B4E0C4D84
:1006100003E0FC2189050B4E0025201C39F075F9FB
:10062000311C39F07CF9291C39F074F970BD02498C
:10063000054E064DF1E7C046EC51E03F787A253C87
:100640000000C8420AD7233C9FAB2D3C0000FA4271
:1006500010B5024939F063F910BDC046EE7CFF3E8B
:1006600030B58BB004000D0028220021684639F017
:10067000F9FA002306E0200010C89A006946545099
:1006800001330400AB42F6DB002300E01300072B2C
:100690000DDC9A00694651585A1C90006C4600596E
:1006A0008142F3D99B00185193001951EEE702984B
:1006B000039BC018049BC018059BC01880080BB092
:1006C00030BD0000F0B5CE46474680B585B0884BBA
:1006D0001A68884B1B68D31A632B15DD854B1A608B
:1006E000854B1A68052A00D9F7E09300834AD3584E
:1006F0009F46834B1B68E022D2011340814A13605E
:100700007D4A13680133136005B0C0BCB946B046DA
:10071000F0BD7D4B04221A60794B1B68DB05FBD5CD
:10072000774B5B6879480268511C016078489200F9
:100730001B041B0C13500729E6D9744B00221A60C6
:100740000821FFF78DFF734B18606D4B1A688023EB
:100750005B015340E022D20113406A4A1360664AAB
:10076000136801331360CFE7674B04221A60644BB0
:100770001B68DB05FBD5624B5B6864480268511C53
:100780000160634892001B041B0C13500729BBD95E
:100790005E4B00221A600821FFF762FF5D4B586034
:1007A000574B1A6880239B015340E022D20113402B
:1007B000544A1360504A136801331360A4E7524B44
:1007C00004221A604E4B1B68DB05FBD54C4B5B6863
:1007D0004E480268511C01604D4892001B041B0CDE
:1007E0001350072900D88FE7484B00221A600821D0
:1007F000FFF736FF474B9860414B1B68E022D20160
:100800001340404A13603C4A1368013313607BE78E
:10081000404C206839F0DDF83F4939F096F8FFF791
:10082000E5FE80463D4B1860606839F0D2F83A49E1
:1008300039F08BF8FFF70CFF051C394B1860A068E6
:1008400039F0C7F8344939F080F8041C354B994623
:100850001860281C39F01EF906000F00324D404682
:1008600039F018F902900391201C39F013F9009027
:10087000019132003B00280039F04CFB4B461868D0
:10088000FE21890539F0A0F800280FD0274A136807
:1008900001331360254B1B68052B0FDD244B012210
:1008A0001A60154A1368013313602DE71F4B1B684C
:1008B000002BEFDD1D4A013B1360EBE71C4B0022D0
:1008C0001A60EEE7114A1368591E1160002B00D020
:1008D0001AE7094B00221A6016E71A20FFF784FD79
:1008E0001B20FFF781FD1C20FFF77EFD0CE7C046B3
:1008F000F003002068390020DC380020E0FF0310FE
:1009000000C0044000D0044000E00440D0180020A3
:100910006C390020F41100203333533A8C1400203A
:10092000881400208414002028DD03100012002009
:10093000B414002070B5104B1B68002BFBD00F497E
:100940000A68531C0B600E498D5C8022D2009342D2
:100950000ED00C4C0021200035F034FA064A136802
:10096000013B13600121200035F02CFA280070BDF6
:10097000024B00221A60ECE7543500206435002059
:10098000542900200040034070B5114B1B68002B18
:10099000FBD010490A68531C0B600F498C5C0F4A4E
:1009A00014708022D20093420ED00D4D00212800F9
:1009B00035F008FA064A1368013B1360012128004C
:1009C00035F000FA200070BD024B00221A60ECE7FF
:1009D0005835002068350020542D0020855A00200D
:1009E000008003400A4B1B68002BFBD009480168BC
:1009F0004A1C02600848405C8021C9008A4203D03A
:100A0000034A013B13607047024A00211160F7E777
:100A10005C350020743500205431002010B509E009
:100A2000154B00221A6016E0144B1870144A136814
:100A300001331360134B9B69DB061BD41148FFF78E
:100A400097FC0D490A68531C0B600F49885480229B
:100A5000D2009342E4D00D4A136801331360802220
:100A6000D2009342E0D1094B00221A60084B0132B8
:100A70001A70D9E710BDC04678350020A15A002071
:100A80001C1300200040034054290020543500204E
:100A9000AB5A002010B509E0154B00221A6016E091
:100AA000144B1870144A136801331360134B9B697D
:100AB000DB061BD41148FFF75BFC0D490A68531C89
:100AC0000B600F4988548022D2009342E4D00D4A33
:100AD0001368013313608022D2009342E0D1094BA6
:100AE00000221A60084B01321A70D9E710BDC046C7
:100AF0007C350020A05A00201813002000800340FD
:100B0000542D002058350020AC5A002010B509E0C3
:100B1000164B00221A6018E0154B1870154A13681E
:100B20000133136000203BF0D7F800281CD00020D0
:100B3000FFF769FCC0B20D490A68531C0B600E49EF
:100B400088548022D2009342E2D00C4A13680133C9
:100B500013608022D2009342DED1084B00221A603B
:100B6000074B01321A70D7E710BDC0468835002008
:100B70009F5A002020130020543100205C350020B3
:100B8000AD5A002010B5012810D0022854D00028FA
:100B900031D02F488024E4002200002139F062F88F
:100BA0002C482200002139F05DF844E02A4B1B78E4
:100BB000012B01D8264C16E0254A2849284C200054
:100BC00037F084FF2748210039F0A4F98022D200B1
:100BD0000021200039F046F8ECE72348FFF798FBA6
:100BE000002323700134204B9B699B0623D421787A
:100BF0000029F2D11FE0184B1B78032B01D8154CAC
:100C000016E0144A1949164C200037F05FFF1548CA
:100C1000210039F07FF98022D2000021200039F034
:100C200021F8ECE71248FFF773FB0023237001342F
:100C300021780029F6D110BD094C0A48210039F06D
:100C400069F98022D2000021200039F00BF8F2E788
:100C5000383E0020384200207F5A002050DD03102B
:100C600038460020ECDD03100080034058DD0310FF
:100C70000040034070B50C00022807D8002A05DDAB
:100C8000012804D0022828D0002813D070BD80236A
:100C9000DB009A420ADB8022D20007E02178134869
:100CA000FFF736FB0023237001342A00551E002A6B
:100CB000F4D1EBE78023DB009A420ADB8022D200EA
:100CC00007E021780A48FFF723FB00232370013453
:100CD0002A00551E002AF4D1D8E7064839F01AF93F
:100CE00004220021200038F0BDFFCFE70080034040
:100CF0000040034060DD031010B5002806D0012835
:100D000009D1D0231B0640225A6110BDD0231B06F7
:100D100040229A61F9E7062034F02AFFD0231B060F
:100D200040225A62F1E7000010B5324B1A78052ACA
:100D300059D893003049CB589F46304B1B78012B34
:100D400028D12F4B1B78002B24D12A4B01321A704B
:100D50002C4B2D4A12681A601CE02B4B294A1B6849
:100D600012689B1A132B15DD0120FFF7C5FF254BD9
:100D7000254A12681A601F4A13780133137009E07C
:100D80001C4B01321A70204B1E4A1B6812689B1ABA
:100D9000632B00DC10BD0120FFF7F4FE194B1A4A4B
:100DA00012681A60134A137801331370F2E7154B77
:100DB0001549096819600F4B01321A70EAE7124BA6
:100DC000104A1B6812689B1A312BE3DD0020FFF7E5
:100DD00093FF084B00221A700A4B0B4909681960EF
:100DE000064B1A70D6E7034B00221A70034B1A7099
:100DF000D0E7C046B55A0020F8FF0310B45A0020CF
:100E00009B5A0020C0370020F003002030B5374B3C
:100E10001B68374A1268934258D0354A1360354AE6
:100E20001368591C1160082B50DD130000221A6052
:100E3000314A1368591C1160082B47DD130000224A
:100E40001A602E4B1B68002B41D0D0231B0680223A
:100E500092045A61294B00221A60294A1368591CCE
:100E60001160082B32DD130000221A6025490A6840
:100E70004B6801240025A4185D410C604D60224997
:100E80000968002902D02048013901601F4909681A
:100E9000002902D01D4801390160012323421FD0DF
:100EA000D0231B0680225A61194A1368591C11600D
:100EB0003A2B0BDD130000221A60164A1368591CE6
:100EC00011603A2B02DD130000221A6030BD0B4B7B
:100ED00001221A60D0231B06802292049A61BCE78B
:100EE000D0231B0680229A61DEE7C046F003002073
:100EF000583900205439002010210020C838002023
:100F000014210020A00B002080140020BC1400201D
:100F1000603900205C39002070B586B06A4B1C68CF
:100F2000002C00D08BE0694B1A68694B1B68D31A00
:100F3000FA2189008B4200DA81E0654B1A60654B2B
:100F40001E685D68002D1AD102D1634B9E4216D8EF
:100F50000023002D03D103D1604A964200D901330A
:100F6000002D04D104D1E1221201964200D30133B5
:100F7000022B0ED0032B04D0012B18D026E0012326
:100F8000E7E7574A00233000290037F063FE554B4E
:100F90001860534A00233000290037F05BFE100030
:100FA000514B1A60514937F0EBFD514B18604F4AD5
:100FB00000233000290037F04DFE10004A4B1A6024
:100FC000E121090137F0DCFD4A4B1860E1221201F2
:100FD00000233000290037F03DFE1500424B1D6014
:100FE0003C21280037F0CCFD434B18603C21280001
:100FF00037F0C6FD414B1960414B1B78042B3FD0A5
:10100000052B1ED0032B47D0394B1B68354A12687D
:101010003C493D48394C24680294374C246801947B
:10102000344C2468009437F051FD384B1B68002B7A
:101030003ED10220FFF7A6FD354B00221A7006B004
:1010400070BD17226A443023137008E0314B9B694E
:101050009B06FBD411782F4B196001340132002C10
:10106000F4D031212C48FFF753F92C4838F020FFF9
:10107000234B1B78002BE2D0214A013B1370DEE7A3
:10108000042BDCD9264B274A1168196092889A8074
:10109000254B01221A70D2E7042BB5D9234B244AE1
:1010A0001168196092889A800020FFF76BFDABE70A
:1010B0000220FFF767FD154C22681E49124837F0E1
:1010C00005FD00232360B4E780140020F003002016
:1010D00050390020A00B00207F33E1017F51010037
:1010E0008033E101645A00204C3900208051010016
:1010F00078130020CC0B0020B0200020A437002063
:101100007F5A002088DD031038460020C8140020D4
:10111000A25A0020004003400080034068DD031015
:10112000383E002078DD0310B45A002038420020F9
:1011300080DD0310A8DD031010B5E1246402210056
:101140000B4836F0A7F821000A4836F0A3F8022130
:10115000042034F00DFC0221052034F009FC0221AA
:10116000002034F005FC0221012034F001FC10BD08
:10117000008003400040034010B58A4CA5448A4AD1
:101180000021684638F06EFD884B1A78042A00D991
:10119000FEE093008649CB589F46864B002119609C
:1011A000854B1960854B1970804B01321A70844B46
:1011B000844A12681A60844B1970844B1960812329
:1011C000DB009D4410BD824B1A68824B1B689A421B
:1011D0000FD17C4B7A4A1B6812689B1AFA2BEEDD02
:1011E000744B1B68002B4BD0704A1378013313707B
:1011F000E5E7794B05221A60FFF7C6FB0400010002
:10120000764B1B78002B23D16A4B1A68002A01D138
:10121000242824D06C4B1B78002B24D0704B00204A
:101220001870674B6748006818600A291FD06D4B1B
:101230009A4202D95F4B6B4A1A605E4A11684B1C96
:101240001360694A54540021D154684B1C70C0E7A4
:101250006748FFF75DF8200038F0F6FDAFE75A4B1E
:1012600001201870D6E75E4B01201870D9E75F4B5C
:101270001B780D2BDBD14D490B7801330B70D6E772
:101280004A4B00221A709AE75A4B1B78002B03D066
:10129000464B01321A7092E74B4B1B78012B14D04E
:1012A000514C55495548220037F010FC8022D2009D
:1012B0000021200038F0D6FC0220FFF763FC3F4BF2
:1012C00000221A70394B1A7079E73F4B00221A70CE
:1012D0004B483BF071FE4B4BDB698342E0D1354B11
:1012E0001A68063A484968463CF0BAFA47486946DF
:1012F00038F010FE464869463CF048FB0020FFF7F6
:1013000041FCCDE7314B186837494118404B414A01
:1013100014681C6012791A71264B1A68121A5A2A1C
:101320001DD93B485A223CF02DFA204A137801334C
:101330001370394A136839490B401360344C20004C
:101340003CF02CFB20183649022238F091FC00209A
:10135000FFF718FC1A4B1B4A12681A602FE72C483B
:101360003CF010FA114B05221A70E2E7154B144AB3
:101370001B6812689B1AC8229200934200DA1EE78B
:10138000124A13685A331360084B03221A7016E787
:1013900015488022D200002138F064FC034B002263
:1013A0001A700CE7F8FBFFFF05040000A85A0020A4
:1013B000100004104C29002040290020A95A0020C8
:1013C0002C210020F0030020BA5A0020181400201D
:1013D0007C3500206835002080140020A35A0020AE
:1013E000885A0020FE03000038250020A45A00205F
:1013F00000400340865A0020B4DD03103846002028
:1014000039250020EC1300203C250020ECDD0310E2
:1014100038420020BCDD0310BC200020FFEFFFFF9E
:10142000C4DD031030B54A4CA5444A4A0021684641
:1014300038F018FC484B1B78012B18D0022B00D138
:1014400071E0002B00D07EE0444900220A6044494C
:101450000A6044490A60404901330B70424B4349DA
:1014600009681960424B1A60424B9D4430BD424BA3
:101470001A68424B1B689A421BD13C4B1B683A4A84
:101480001268934208D0384A1360394B1B68002B0E
:1014900002D0374A013B1360354B1B68002BE3D168
:1014A0002E4B1B68002BDFD02B4A137801331370AF
:1014B000DAE7334B05221A60FFF73CFA0400050017
:1014C000294B2A4A12681A60294B1B68002B16D038
:1014D0000A2D1FD0202D1DD0204B1A68294B9A426F
:1014E00002D91E4B284A1A601C4A11684B1C136013
:1014F000264A54540021D154254B1C70BDE71C4B87
:10150000C8221A60234B0093C53A69460220FFF7B0
:10151000B1FBDDE71E4B1B780D2BDDD10E4A137896
:1015200001331370D8E70D4B1C6818492200684638
:1015300038F09EFB220069460220FFF79BFB064B1A
:1015400000221A7090E7044B00221A708CE7C04604
:10155000F4FBFFFF05040000A65A002044290020E8
:10156000382900203439002024210020F0030020F5
:10157000903600200C0400007835002064350020EF
:1015800080140020FD030000FE030000382100202D
:101590009E5A00203C313A0030B54B4CA5444B4A92
:1015A0000021684638F05EFB494B1B78012B18D0B0
:1015B000022B00D170E0002B00D081E045490022D1
:1015C0000A6045490A6045490A60414901330B7088
:1015D000434B444909681960434B1A60434B9D448F
:1015E00030BD434B1A68434B1B689A421BD13D4B9D
:1015F0001B683B4A1268934208D0394A13603A4B41
:101600001B68002B02D0384A013B1360364B1B6825
:10161000002BE3D12F4B1B68002BDFD02C4A137813
:1016200001331370DAE7344B03221A60FFF7DAF95B
:10163000040005002A4B2B4A12681A602A4B1B68CB
:10164000002B16D00A2D1ED0202D1CD0214B1A683D
:101650002A4B9A4202D91F4B294A1A601D4A116827
:101660004B1C1360274A54540021D154264B1C7044
:10167000BDE71D4BC8221A60244B009324486946DD
:1016800038F048FCDEE7204B1B780D2BDED1104AEA
:10169000137801331370D9E70E4B1D68194C2A00DB
:1016A0002100684638F0E4FA2A0069460220FFF774
:1016B000E1FA200000F0EEF8054B00221A708DE7E9
:1016C000034B00221A7089E7F4FBFFFF05040000BA
:1016D000A75A0020482900203C2900203839002042
:1016E00028210020F00300208C3600200C0400008C
:1016F000883500207435002080140020FD03000090
:10170000FE030000382100209D5A00203C553A007D
:10171000ECDD031070B5444C2368022213432360B0
:10172000424B00251D70424B1D604248FEF744FEAF
:10173000414B424A1A60FFF7FFFC38F0F7FB1920D3
:1017400034F016FAD026360680239B047362FF20FD
:10175000FFF7D2FA0020FFF7CFFA236804221A43DA
:101760002260242213432360FEF720FF01F054FD82
:10177000FEF718FF01F0E4FD314B1D60314B0122F3
:101780000421162034F080F9072034F0F1F9802389
:10179000736229E0254B00221A70FA208000FEF7C0
:1017A0000BFE234A13680133136021E001F0BAF8FD
:1017B000254B1B78002B30D1FFF734FE32F0B0FC04
:1017C000FFF7EAFEFFF7D8FCFEF72EFEFEF77EFEDF
:1017D000FEF7A6FE01F0BCFCFEF774FF01F0F4FB7F
:1017E00001F062FFFFF7A0FA104B1B78002BD1D15C
:1017F000FFF70CFBFFF712F9FFF74CF9FFF786F93B
:10180000FFF78AFB114B1B78002BD9D1104B1B78AB
:10181000012BCBD001F0A0FACAE70B4B00221A70C3
:1018200033F086FAC8E7C046B8140020715A002089
:10183000F003002080841E00BC140020B80B0000C0
:101840009020002095030010885A00208D5A002017
:10185000875A0020012905D001238340D022120697
:101860009361704701238340D02212065361F8E749
:1018700070B504000D0034F07BF90123A340002D66
:1018800003D0D0221206536270BDD022120693629A
:10189000FAE70000F0B593B0040001903222002175
:1018A00005A838F0DFF90822002103A838F0DAF99A
:1018B0000B27002509E0310020003BF097FF0028AE
:1018C00018D0002F01D0013FFFB2002F12D0884B5B
:1018D000BA00D65830003CF061F802000500019CC7
:1018E0002378002BE7D031789942E4D00134F7E730
:1018F00001341D006B1E002DFAD12278002A03D07E
:10190000202A01D10134F8E70B2F00D9E7E0BB0012
:10191000784AD3589F46784978483A0037F0D6F845
:101920000220FFF72FF9002013B0F0BD03222100A1
:1019300005A83BF095FF2378303BDBB2082B09D993
:101940006F4B1A786F496D4837F0C0F80220FFF7E7
:1019500019F9E8E720003BF02FFBC0B2684B187084
:101960000928EDD909221A70EAE7674B01221A709B
:10197000D9E7664B01221A70D5E705AD1E2221007A
:1019800028003BF06DFF2B78312B1CD1604A137877
:1019900002210B43137004231A00013BDBB2002A1F
:1019A000FAD15C4C06A920003BF0F0FF5A49200018
:1019B0003BF086FF59495148220037F087F8022052
:1019C000FFF7E0F8AFE756494C4805AA37F07EF834
:1019D0000220FFF7D7F8A6E75249032220003BF088
:1019E00005FF002803D1504B01221A709BE74F4995
:1019F000032220003BF0FAFE002805D14C4A136870
:101A000002210B4313608EE74A49032220003BF07A
:101A1000EDFE002800D186E74749032220003BF075
:101A2000E5FE002807D1454838F042FA012164203C
:101A300035F038FFFEE7424838F03AFA73E7032200
:101A4000210005A83BF00CFF05A83BF0B5FA632880
:101A500000D968E7012810D03A4A136808218B435F
:101A60001360002801D0384BD861364B1A68364BCA
:101A7000D969364838F04EFA55E7324A13680821DA
:101A80000B431360EDE7324B1B78002B06D0304B35
:101A900000221A702F4838F03DFA44E72C4B0122FF
:101AA0001A702D4838F036FA3DE72C4B00221A60A8
:101AB0002B4838F02FFA36E701240D4BA200D258FC
:101AC00028490E4837F002F80220FFF75BF801348E
:101AD000E4B20A2CF1D9244838F0EAF923E7234983
:101AE00006483A0036F0F2FF0220FFF74BF81AE7FB
:101AF0001004002038000410D0DD03103846002008
:101B00007F5A0020DCDD03108B5A00208A5A002007
:101B1000955A002070200020C8010410E8DD031051
:101B2000F0DD0310DCE10310835A0020F8DD031020
:101B30009014002024E2031000DE031004DE0310E2
:101B400018DE0310BC200020EC13002038DE031048
:101B5000A35A002048DE031058DE0310BC140020F6
:101B600068DE031074DE0310C4DD03107CDE031096
:101B7000F0B5DE4657464E464546E0B585B05D4B6E
:101B80005A68130ADBB254214B40DBB2D2B25A403E
:101B900003003033DBB253400138C0B2564A1278EA
:101BA0005340564909784B405A40554B1B78534097
:101BB000544A11785940544A58234343D218136960
:101BC000180AC0B24840D9B241405369180AC0B29D
:101BD0004840D9B241409369180AC0B24840D9B2CE
:101BE0004140D369180AC0B24840D9B24140136A93
:101BF000180AC0B24840D9B24140536A180AC0B26C
:101C00004140DBB24B40966A310AC9B28B464B4029
:101C1000F6B27340D56A290AC9B28A464B40EDB282
:101C20006B40146B210AC9B289464B40E4B2009460
:101C30006340516B080AC0B280464340C9B201916B
:101C40004B40916B080AC0B202904340CFB2039759
:101C50007B40D06B010AC9B28C464B40C0B24340B6
:101C6000116C0F0AFFB27B40C9B24B405C46634027
:101C70005E405446664075404C466540009C6C4052
:101C800045466C40019B5C40029B5C40039B5C4072
:101C900063465C40604047407940536C1F0AFFB286
:101CA0004F40D9B27940936C180E4140180CC0B225
:101CB0004840190AC9B24140DBB24B40D16C080A16
:101CC000C0B24340C9B24B4058404140136D180A5E
:101CD000C0B24840D9B24140506D020AD2B24A4027
:101CE000C0B2504005B0F0BCBB46B246A946A046C3
:101CF000F0BDC046381400200C040020705A0020AB
:101D000050290020080400203019002082B00091E2
:101D10006B46185C02B0704782B000916B46185C4D
:101D200002B07047F0B5DE4657464E464546E0B530
:101D3000B1B004006422002117A837F093FFFD4BD7
:101D40005E6831000120FFF7E1FF8046310000208E
:101D5000FFF7DCFF0600F84B1D78F84B19680020F0
:101D6000FFF7D4FF0700F64B19680020FFF7CEFFFE
:101D7000F449079006970595F34B1B780493039558
:101D80002300303302930196434600935423552297
:101D900017A836F09BFEED49ED4D17AA280036F046
:101DA00095FE6422002117A837F05CFF2000FFF7A2
:101DB000DFFE0C90013CE3B2E64C58225343E4189A
:101DC000266931000120FFF7A1FF0D9031000020AE
:101DD000FFF79CFF0E90666931000120FFF796FF28
:101DE0000F9031000020FFF791FF1090A66931009D
:101DF0000120FFF78BFF119031000020FFF786FFD5
:101E00001290E76939000120FFF780FF06003900D2
:101E10000020FFF77BFF0700216A89460120FFF7BA
:101E200075FF804649460020FFF770FF8146616AD2
:101E30008B460120FFF76AFF824659460020FFF7D4
:101E400065FFC5490990534608934B46079343469F
:101E5000069305970496129E0396119E0296109E75
:101E600001960F9E00960E9B0D9A17A836F02EFE37
:101E700017A928003BF060FC6422002117AB180072
:101E800037F0F0FEA66A31000120FFF73FFF0D900A
:101E900031000020FFF73AFF0E90E66A3100012082
:101EA000FFF734FF0F9031000020FFF72FFF109055
:101EB000266B31000120FFF729FF1190310000202F
:101EC000FFF724FF1290666B31000120FFF71EFF21
:101ED000139031000020FFF719FF1490A66B31001A
:101EE0000120FFF713FF070031000020FFF70EFF6E
:101EF0000600E16B89460120FFF708FF804649464E
:101F00000020FFF703FF8146216C8B460120FFF77D
:101F1000FDFE824659460020FFF7F8FE8F490B90E0
:101F200053460A934B4609934346089307960697F0
:101F3000149E0596139E0496129E0396119E029679
:101F4000109E01960F9E00960E9B0D9A0E0017A8EC
:101F500036F0BCFD17A928003BF0EEFB64220021FF
:101F600017AB180037F07EFEA76A39000120FFF793
:101F7000CDFE0D9039000020FFF7C8FE0E90E76AF5
:101F800039000120FFF7C2FE0F9039000020FFF753
:101F9000BDFE1090276B39000120FFF7B7FE1190AE
:101FA00039000020FFF7B2FE1290676B3900012064
:101FB000FFF7ACFE139039000020FFF7A7FE149046
:101FC000A76B39000120FFF7A1FE15903900002012
:101FD000FFF79CFE0700E16B89460120FFF796FEA4
:101FE000804649460020FFF791FE8146216C8B46D2
:101FF0000120FFF78BFE824659460020FFF786FE40
:102000000B9051460A91494609914146089107971C
:1020100015990691149905911399049112990391B8
:1020200011990291109901910F9900910E9B0D9AAF
:10203000310017A836F04AFD17A928003BF07CFBB9
:102040006422002117AB180037F00CFE676C3900D2
:102050000120FFF75BFE0D9039000020FFF756FED0
:102060000E90A76C39000320FFF756FE0F90390041
:102070000220FFF751FE109039000120FFF74CFEBF
:10208000119039000020FFF747FE1290E16C88465E
:102090000120FFF73BFE070041460020FFF736FE18
:1020A0008046216D8A460120FFF736FE8146514663
:1020B0000020FFF731FE8246616D8B460120FFF75D
:1020C00025FE040059460020FFF720FE0B900A94DD
:1020D0005146099149460891414607910697059155
:1020E00004971299039111990291109901910F99F6
:1020F00000910E9B0D9A310017A836F0E7FC17A946
:1021000028003BF019FB6422002117AB180037F0C0
:10211000A9FD13490C9A17A836F0D8FC17A9280076
:102120003BF00AFB6422002117A837F09BFD31B079
:1021300018E0C046381400200C040020502900206C
:1021400008040020C0DE0310705A002098DE03103F
:102150003842002030190020B8DE0310B0DE031032
:10216000ECDE0310F0BCBB46B246A946A046F0BD6B
:1021700010B5FFF7D7FD002309491A0011328A5C18
:10218000002A08D019000F31054A515CD15401339F
:10219000044A9342F0DD024A0021D15410BDC046EA
:1021A00038420020FD030000002911D10C4B0D4ADC
:1021B0001A60511C196010700B4B1A680B4B9A4235
:1021C00005DD094B00221A60054B094A1A60704769
:1021D000034A1368591C1160187000225A70EBE70B
:1021E000FC0300203842002030130020FE030000D2
:1021F00039420020F0B5DE4657464E464546E0B52A
:10220000A7B004003C22002117A837F02BFDDA4FBD
:102210007A68130ADBB254214B40DBB2D2B25A4087
:1022200023003033DBB25340013CE0B2D34A139277
:1022300012785340D249149109784B405A40D14BFF
:1022400015931B785340D04D29785940CF4A5823D5
:102250000C904343D2181369180AC0B24840D9B24F
:1022600041405369180AC0B24840D9B2414093690D
:10227000180AC0B24840D9B24140D369180AC0B266
:102280004840D9B24140136A180AC0B24840D9B296
:102290004140536A180AC0B24140DBB24B40916AD8
:1022A000080AC4B20D946340CEB20E967340D16A50
:1022B000080AC4B20F946340C9B210914B40116B2D
:1022C000080AC0B211904340C9B212914B40516B01
:1022D000080AC4B2A3466340CCB2A4466340946BE0
:1022E000210AC8B282464340E4B26340D06B010A7F
:1022F000C9B289464B40C0B24340116C0E0AF6B2D7
:10230000B0467340C9B24B400D9E73400E9E734061
:102310000F9E7340109E7340119E7340129E734037
:102320005E46734066467340564673405C404E4678
:1023300074406040444660404140536C180AC0B24B
:102340004840D9B24140936C180E4140180CC0B2BD
:102350004840190AC9B24140DBB24B40D16C080A6F
:10236000C0B24340C9B24B4058404140136D180AB7
:10237000C0B24140DBB24B40516D0A0AD2B2534069
:10238000C9B20C005C400F9401215420FFF70CFFF0
:1023900001212B20FFF708FF01215720FFF704FF41
:1023A00001215320FFF700FF01214F20FFF7FCFE22
:1023B00001215720FFF7F8FE01215220FFF7F4FE1C
:1023C00001213D20FFF7F0FE01213020FFF7ECFE58
:1023D00001212C20FFF7E8FE01213120FFF7E4FE68
:1023E00001213320FFF7E0FE01213620FFF7DCFE5C
:1023F00001212C20FFF7D8FE01214620FFF7D4FE53
:1024000001214620FFF7D0FE01214620FFF7CCFE38
:1024100001214620FFF7C8FE7A68140A139B1F7833
:10242000159B18682D685A49FF231D4007951840D1
:1024300006900597149D2878049003970C983130E6
:1024400002901A400192234000935423552217A86A
:1024500036F03CFB002406E017AB185D0121FFF7C6
:10246000A3FE0134E4B2132CF6D9484958230C9A40
:102470005343C9180B691A0A4869040AA3468C69B0
:10248000250AAC46CD692E0AB0460E6A370AB9460F
:102490004F6A390A8A46FF210B400A400F400997CC
:1024A00057460F4008970E4007964E460E40069638
:1024B0000D40059545460D4004950C400394644637
:1024C0000C40029408400190584601400091314967
:1024D00017A836F0FBFA002406E017AB185D0121BF
:1024E000FFF762FE0134E4B2172CF6D9274A5823CD
:1024F0000C994B43D218936A190A8C46D06A010A88
:102500000D91146B210A0E91556B2E0AB046966BF5
:10251000370AB946D76B390A8A46126C110A8B46BC
:10252000FF210B40109363460B409C460A400B92E0
:102530005B460B400A930F40099753460B400893A4
:102540000E4007964B460B4006930D4005954346BB
:102550000B4004930C4003940E9A0A4002920840E8
:1025600001900D9B19400091109B62460A4917A8E3
:1025700036F0ACFA002418E0381400200C040020D7
:10258000705A002050290020080400203019002033
:10259000C0DE0310B8DE0310B0DE031017AB185D09
:1025A0000121FFF701FE0134E4B21B2CF6D95B4A8E
:1025B00058230C994B43D218936A190A8C46D06A57
:1025C000010A0D91146B210A0E91556B2E0AB0462B
:1025D000966B370AB946D76B390A8A46126C110ACC
:1025E0008B46FF210B40109363460B409C460A40EC
:1025F0000B925B460B400A930F40099753460B40E2
:1026000008930E4007964B460B4006930D400595E8
:1026100043460B4004930C4003940E9A0A400292E6
:10262000084001900D9B19400091109B62463C4967
:1026300017A836F04BFA002406E017AB185D01210D
:10264000FFF7B2FD0134E4B21B2CF6D9334F582307
:102650000C9A5343FF187B6C1A0A0C92B86C010E4B
:102660008A46010C8B46010A8C46FC6C250AFF2128
:102670000D400C403E6D320A90467F6D3A0A9146FD
:102680000B400C9A0A400F400B974F460F400A9799
:102690000E40099646460E40089607940695059406
:1026A0000495084003906046084002905846014057
:1026B0000191514600911A4917A836F007FA0024F3
:1026C00006E017AB185D0121FFF76EFD0134E4B29F
:1026D0001B2CF6D91349AA230F9A17A836F0F6F93E
:1026E000002406E017AB185D0121FFF75DFD013402
:1026F000E4B2032CF6D901210D20FFF755FD01218D
:102700000A20FFF751FD084B41221A7027B0F0BC98
:10271000BB46B246A946A046F0BDC04630190020CF
:10272000B0DE0310E0DE03103842002010B5694B24
:102730001B78DA0707D49A0714D4DA0622D49B064A
:1027400000D598E010BD64486449092237F090FA3A
:102750000020FEF717FA5F4A137801218B431370AC
:102760000020EFE75E4B1A685E495B4836F0AEF931
:102770000020FEF707FA574A137802218B431370A3
:102780000020DFE7584A117816296ED88A00574989
:102790008A589746564B01241C60564B1A68564976
:1027A0004D4836F093F90020FEF7ECF94E4B1C70C3
:1027B0005EE04D4B02221A705AE0504B1B78002B02
:1027C00011D045484E49112237F052FA4B4B0022A6
:1027D0001A704C4B01321A70434B14321A7000209D
:1027E000FEF7D0F944E0484B1A6848493A4836F0B9
:1027F0006DF93D4B14221A70F1E73B4B03221A701E
:102800000120FFF7B5FC0020FEF7BCF930E0012005
:10281000FFF7F0FC0020FEF7B5F9334B03221A70E6
:1028200026E02D483A490F2237F022FA0020FEF721
:10283000A9F9384B00221A702B4B04321A70364B10
:102840001B78142B14D9344B033A1A7010E0214A28
:1028500010218B431370264B00221A602E4B1B78DD
:10286000142B02D92C4B01321A701F4B00221A7004
:102870001F4B186866E71C4B1B78002B09D0012BF7
:1028800015D0194B00221A70194B1A60184B186892
:1028900058E711482149152237F0EAF90020FEF7E0
:1028A00071F9114B01221A70114B1A60EEE70A48B8
:1028B0001B49142237F0DCF90020FEF763F90A4BBC
:1028C00000221A700A4B1A60024A137820218B43A7
:1028D0001370D6E7945A002038420020F8DE031027
:1028E000B420002004DF0310B35A00206800041055
:1028F000605A00200404002014DF0310685A0020EE
:1029000038DF0310735A0020000400204CDF03104E
:1029100060DF0310825A0020F903002070DF0310EB
:1029200088DF031010B5744B1A68744B1B68D31AF8
:10293000FA2189008B4239DB704B1A60704B1B689F
:10294000002B02D06E4A013B13606E4B1B78012BAB
:102950000CD06B4B1B68002B28D16B4B1A78092AC3
:1029600000D9C5E09300694AD3589F46654B0022C1
:102970001A70634B1A60ECE701210320FEF778FF21
:10298000D0231B0608225A61614A137840218B43E9
:102990001370604B3C221A60594B3F3919605E4BF3
:1029A00000221A60584B19705C4B1A7010BDD0236E
:1029B0001B0608229A61524B073A1A60544B1B7847
:1029C0005B0603D5504B01321A70EFE7524A136889
:1029D00001331360142BE9DD4B4B00221A70E5E73D
:1029E0004F485049072237F043F90020FEF7CAF854
:1029F000434B03221A60444B1A70D7E748484A49B0
:102A00000A2237F035F90020FEF7BCF840490B7870
:102A1000042293430B703A4B032119603A4B1A700E
:102A2000C4E73F4841490B2237F022F90020FEF766
:102A3000A9F8374A137808218B431370304B0322CF
:102A40001A60314B02321A70B0E7354838491C22FF
:102A500037F00EF90020FEF795F8294B03221A6093
:102A6000294B03321A70A1E72D483249142237F05E
:102A7000FFF80020FEF786F8214B03221A60224B54
:102A800004321A7092E726482B490C2237F0F0F8EE
:102A90000020FEF777F81A4B03221A601A4B053212
:102AA0001A7083E7164B0A221A60244B1B78002BFE
:102AB00005D0224B00221A70114B01321A60FFF729
:102AC00035FE002800D071E71D4B1B68042B02D88F
:102AD0001B4B05221A600C4B09221A7066E7194B32
:102AE0001B78002B00D161E7074B08221A705DE7C5
:102AF000054B00221A7059E7F0030020241400202F
:102B00002C140020735A0020B25A0020C400041074
:102B1000955A0020C414002008130020825A002077
:102B2000384200209CDF0310A4DF0310B0DF031045
:102B3000BCDF0310D8DF0310ECDF0310845A002041
:102B400080140020945A002010B56D4B1B78DA07D2
:102B500013D49A0720D4DA0648D49B0629D5694BAA
:102B60001B78002B00D1A7E0012B00D1B4E0654B0E
:102B700000221A70644B18681BE0644864490922FB
:102B800037F076F80020FDF7FDFF5D4A137801214C
:102B90008B43137000200CE05A4B1B78002B09D09C
:102BA000012B15D0584B00221A60564B1A70564B09
:102BB000186810BD554857490F2237F059F80020C2
:102BC000FDF7E0FF4F4B01221A704F4B1A60EEE702
:102BD0004E485149102237F04BF80020FDF7D2FF44
:102BE000474A137802218B431370DBE7454B1A7871
:102BF000162A5DD89300494AD3589F46484B1A6815
:102C00004849424835F062FF3E4B01241C700020C9
:102C1000FDF7B8FF3C4B1C603B4B1868C9E73B48CD
:102C200041490D2237F024F8404B1B78002B06D089
:102C3000344B15221A700020FDF7A4FFECE7314B4E
:102C400016221A70F7E72F4B03221A70E4E7374B6E
:102C500000221A702B4B03321A700120FFF762F822
:102C60000020FDF78FFFD7E70120FFF7C3FA002010
:102C7000FDF788FF234B03221A70CDE723482C4928
:102C80000D2236F0F5FF0020FDF77CFF1C4A13787B
:102C900010218B4313701C4B00221A60194B1A70C1
:102CA000244B1B78142BB7D9224B01321A70B3E78F
:102CB000144B00221A70AFE714481F49152236F052
:102CC000D7FF0020FDF75EFF0E4A13780133137023
:102CD0000D4B01221A604DE70C481849142236F0BA
:102CE000C7FF0020FDF74EFF064B64221A70044A0E
:102CF000137820218B431370034B00221A6036E7B0
:102D0000945A0020B85A00205C5A00203842002013
:102D1000F8DE0310F8DF031008E00310EC000410E5
:102D20000404002018E0031038E00310685A002063
:102D300048E00310F803002070DF031088DF031061
:102D400010B50100034B180035F0C0FE0220FDF75E
:102D500019FF10BD3846002010B56B4B1A686B4B3D
:102D60001B68D31AFA2189008B423CDB674B1A603F
:102D7000674B1B68002B02D0654A013B1360654B13
:102D80001B78012B0CD0624B1B68002B2BD1624BA4
:102D90001A78072A00D9B2E09300604AD3589F46B8
:102DA0005C4B00221A705A4B1A60ECE70121032099
:102DB000FEF75EFD01210320FEF74CFD584A137813
:102DC00040218B431370574B3C221A60504B3F39C4
:102DD0001960554B00221A604F4B1970534B8731C5
:102DE0001960534B1A7010BD00210320FEF732FD0D
:102DF000474B01221A604A4B1B785B0603D5464BB2
:102E000001321A70EFE7484A136801331360142B3C
:102E1000E9DD414B00221A704648FFF791FFE2E7D7
:102E200045484649072236F023FF0020FDF7AAFE59
:102E3000374B03221A60384B1A70D4E73E4840499A
:102E4000092236F015FF0020FDF79CFE34490B786F
:102E5000042293430B702E4B032119602E4B1A70E2
:102E6000C1E7354837490C2236F002FF0020FDF754
:102E700089FE2B4A137802218B431370244B0322C3
:102E80001A60254B02321A70ADE72B482E490B22EF
:102E900036F0EEFE224A137808218B43137000208F
:102EA000FDF770FE1A4B03221A601B4B03321A7097
:102EB00099E7174B0A221A60244B1B78002B05D088
:102EC000224B00221A70124B01321A60FFF73CFEAF
:102ED000002800D087E71E4B1B68042B02D81C4B30
:102EE00005221A600C4B07221A707CE7194B1B78DD
:102EF000002B00D177E7084B06221A7073E7064BC8
:102F000000221A706FE7C046F00300202014002052
:102F100028140020735A0020B15A002048010410E0
:102F2000955A0020C0140020041300200004002043
:102F3000825A002058E00310384200209CDF031022
:102F400068E0031074E00310B0DF0310845A00201F
:102F500080140020945A0020F0B5DE4657464E46B5
:102F60004546E0B58DB0164C257D667DA77DE37D99
:102F70009C46237E9846637E9946A37E9A46E37ECE
:102F80009B46E3680B93A26861680E485B46089312
:102F9000534607934B460693434605936346049373
:102FA000039702960195246900940B9B36F0B2FFBB
:102FB0000DB0F0BCBB46B246A946A046F0BDC04627
:102FC0003814002000E1031030B583B0534B1A6869
:102FD000534B1B68D31A092B13DD514B1A60514B0D
:102FE0001A68172A00D994E093004F49CB589F469E
:102FF0004E4B00221A604E4B04321A60494B033A82
:103000001A6003B030BD474B05221A60F9E7474A02
:103010001368591C1160464A1268934203D2414B0F
:1030200001221A60EDE73F4B0C221A60414B00224F
:103030001A70E6E73B4B03221A60E2E700F080F9E2
:1030400001003D4B18603D480A0036F063FF394BE4
:1030500000221A70334B0C321A60D2E7314B172220
:103060001A60CEE7314D28688000354C001900F019
:1030700015F90200304B186029688B001B59314844
:10308000009336F047FF274B16221A60B9E7274A0C
:103090001368591C1160264A1268934203D2214BCF
:1030A00015221A60ADE71F4B03221A60264B00223F
:1030B0001A70A6E700F0FAF801001F4B18602348C9
:1030C0000A0036F027FF174B03221A601E4B00221E
:1030D0001A7096E7FFF740FF124A13680133136036
:1030E0008FE7104B01321A60104B00221A6088E7FC
:1030F000154B1B78012B08D00E4B1B78012B00D0F1
:103100007FE7084B0D221A607BE7064B02221A600C
:10311000F2E7044B00221A6073E7C046F003002078
:10312000BC1300207013002068010410C42000208C
:10313000AC2000208A5A00206C14002064E10310A7
:10314000384A002074E103108B5A002088E10310F4
:1031500010B52A4B1A682A4B1B68D31A632B13DD50
:10316000274B1A60274B1B68022B23D00DDC002B4A
:1031700017D0012B30D1234A01331360224B002298
:103180001A60224B03321A6010BD042B24D11E4A50
:103190001368591E1160002BF6DC1A4B00221A60CE
:1031A000F2E7D022120652685202EDD4154A0133DA
:1031B0001360E9E7154B1B68002BE5D1144B002287
:1031C0001A60104B04321A601248FFF7B9FD0E4B1B
:1031D000FA2252001A60D7E7162032F0C9FCD02339
:1031E0001B068022D2039A6201220021162032F0AF
:1031F000D7FB064B00221A60C6E7C046F00300204A
:10320000C0130020F403002068130020C81400201D
:103210006C13002094E1031010B50B480B4939F0F2
:10322000EFFD0321082032F0A3FB0321092032F037
:103230009FFB00220121082032F0B2FB0022012175
:10324000092032F0ADFB10BD40050020A086010032
:1032500070B584B006000D0002AC052200212000EC
:1032600036F000FD330A237066702B0AA370E570F8
:10327000054B19780548002300930433220039F0E8
:10328000EBFD04B070BDC0464004002040050020A6
:10329000014BC01A80107047384A002010B5040056
:1032A000FFF7F6FF2168FFF7D3FF10BD80B51D4F74
:1032B000BD4480221201002102A836F0D3FC1A4A34
:1032C00051681A4B5960D168D960117D5961916874
:1032D000996011691961517D9961917DD961D17DA3
:1032E0001962117E5962517E9962917ED962D27EB5
:1032F0001A630F4AD2699A6300239A1C0B49C85C6F
:1033000002A988540133142BF7DD0A4B19780A48B7
:1033100000230093403302AA39F09EFD074B9D44E1
:1033200080BDC046F8F7FFFF38140020384A00205F
:10333000EC13002040040020400500200808000095
:1033400030B5224CA54480221201002102A836F09B
:1033500089FC1F4D29781F4C01230093013302AAD9
:10336000200039F079FD2978002300933E330A22AA
:103370006A44200039F07CFD00239A1C02A9895C74
:10338000154AD1540133142BF7DD13005168134A49
:103390005160D968D160197D11759968916019697A
:1033A0001161197E5175197F9175196AD175596A24
:1033B0001176996A5176D96A9176196BD1769A6BA2
:1033C000074BDA61074B9D4430BDC046F4F7FFFF61
:1033D0004004002040050020384A00203814002016
:1033E000EC1300200C080000012809D002280DD0A1
:1033F000002804D1D0231B06802212025A61704794
:10340000D0231B06802212029A61F8E7D0231B0604
:10341000802212025A61F2E710B50F2032F0A8FBA9
:10342000D024240680231B0263620E2032F0A0FB0E
:103430008023DB01636210BD30B583B001A9087041
:10344000C046C046C046D02424068025AD01A561F3
:10345000C046C046C046012205483AF045FCC04679
:10346000C046C0466561C046C046C04603B030BDD8
:103470000000044010B5D0231B068022D2019A61BF
:10348000FFF7DAFF10BDF8B504000F0015001E00AD
:10349000802805D8802903D8802A01D8802B00D91C
:1034A000F8BD1520FFF7E6FF6008FFF7E3FF6808A7
:1034B0000138C0B2FFF7DEFF7520FFF7DBFF3800F1
:1034C000FFF7D8FF013EF0B2FFF7D4FFE8E710B5F1
:1034D000D0231B068022D2015A61FFF7ADFF10BD39
:1034E00070B58AB001A9104A13000E0031CB31C665
:1034F0001A00330031CA31C311CA11C312881A80AD
:103500000A4C2378C85CFFF7B5FF2378202B05D839
:10351000064A0133137000200AB070BD034B00222D
:103520001A700120F8E7C0460C0204109C5A0020D3
:1035300070B506008023802200210020FFF7A3FF42
:1035400000250AE0AB01E318F05CFFF7C0FF01348F
:10355000A4B23F2CF6D90135ADB27F2D01D800249D
:10356000F7E770BD70B584B000260296012501957D
:103570004C4C0094042308220421052031F072FEF3
:1035800002960195009405230A220521052031F0B9
:1035900069FE02960195009406230C220621032061
:1035A00031F060FE02960195009407230C2207215A
:1035B000032031F057FE02960195009408230D2256
:1035C0000821032031F04EFE029601950094092354
:1035D0000D220921032031F045FE02960195009449
:1035E0000A230E220A21052031F03CFE02960195A5
:1035F00000940B230F220B21052031F033FE02969D
:10360000019500940C230F220C21052031F02AFE95
:103610000296019500940D230F220D21052031F013
:1036200021FE0296019500940E230E220E21052004
:1036300031F018FE0296019500940F230D220F2100
:10364000032031F00FFE02960195009410230D2205
:103650001021032031F006FE0296019500941123FB
:103660000C221121032031F0FDFD029601950094FA
:1036700012230C221221032031F0F4FD0296019551
:10368000009413230A221321052031F0EBFD02964A
:1036900001950094142308221421052031F0E2FD45
:1036A00004B070BDFFFF0000F0B5C64600B584B0A1
:1036B000A74B1A680D2A00D92EE29300A54AD358C9
:1036C0009F46A54BA54A1B6812689B1ADB2B00DCA2
:1036D00009E1A34836F0ECFBFFF79EFEA14B002268
:1036E0001A609E4B9C4A12681A60994A136801330B
:1036F0001360F8E0984B1A68984B1B68D31AFA21AC
:1037000049008B4200DAEEE0944B1A60954C206839
:10371000FFF76AFE2368012B04DD8D4A136801332D
:103720001360E0E08F4A01331360DCE08A4B1A68D3
:103730008A4B1B68D31A012B00DCD4E0874B1A603C
:10374000FFF7CEFE012800D0CDE0814A1368013397
:103750001360C8E0804B1A68804B1B68D31AC72BD4
:1037600000DCC0E07D4B1A60AF20FFF783FE7E488F
:1037700036F0D0FB764A136801331360B3E0764B22
:103780001A68764B1B68D31AC72B00DCABE0734B6F
:103790001A608020800136F053FA744B1860744828
:1037A00036F086FB6A4A1368013313609BE06A4B6C
:1037B0006A4A1B6812689B1A632B00DC93E06B4C0F
:1037C0002068002300938022802131F05DFB1020CF
:1037D00031F086FB206831F07DFB604B5E4A126859
:1037E0001A605B4A1368013313607CE05A4B5B4AF2
:1037F0001B6812689B1AFA225200934273DB002066
:1038000031F064FC524A1368013313606BE059488D
:1038100036F04EFB584D0124009401232A000A2162
:10382000142031F0AFFC009402232A000A211E204C
:1038300031F0A8FC009403232A000A21282031F04B
:10384000A1FC002602960194009514230A220A2165
:103850000A2031F007FD0296019400951E231422E0
:103860001421142031F0FEFC0294019400952823C9
:103870001E221E211E2031F0F5FC029401940095B9
:10388000322328222821282031F0ECFC01960094D4
:103890002B000F221E213C2031F0E2FD0194009408
:1038A0002B0014222821642031F0DAFD02960194C5
:1038B000009528233C221E21322031F069FD02941C
:1038C0000194009632236E221E215A2031F060FDB1
:1038D0002A4836F0EDFA214B1F4A12681A601C4A3A
:1038E00013680133136004B080BCB846F0BD1A4BB6
:1038F0001A4A1B6812689B1AFA22D2009342F2DB22
:10390000002419E0631C1D00DB009BB2E1000027CE
:10391000029701260196184A00927F22002031F07A
:1039200037FDAB009BB2A1000296019600977F2263
:10393000002031F02DFDECB20F2CE3D9074B064AE5
:1039400012681A60024A136801331360CBE7C0465D
:1039500094360020D4010410F0030020341300201A
:10396000DCE20310C0200020F8E20310B00B0020BE
:1039700000E3031028E30310FFFF000038E3031007
:10398000714B724A1B6812689B1AFA22D20093424A
:10399000A9DB002031F09AFB6D4D6E4A0B23019399
:1039A000012400942B0050210A2031F005FF6A4BBE
:1039B0006A4A0C2101910A3900915A310A2031F0EA
:1039C000FBFE0D2303930A3B029304260196644BEE
:1039D0000093644A644B64210A2031F031FF0E23C6
:1039E00003930296093B0193009500225F4B7421DB
:1039F0000A2031F025FF0026029601945C4D0095C7
:103A00000D235A220C21502031F0C2FC0296019461
:103A100000950D2346220C213C2031F0B9FC029484
:103A2000019400950A23782205216E2031F0B0FC24
:103A30000296019400950D2378220C216E2031F01E
:103A4000A7FC029401940095142378220F216E2084
:103A500031F09EFC02960194009580238022012182
:103A6000012031F095FCFFF77DFD424B1868FFF710
:103A70005FFD364B344A12681A603F4A13680133BF
:103A8000136030E7304B1A68304B1B68D31AFA21A9
:103A9000C9008B4200DA26E72C4B1A60374B1B78A3
:103AA000012B0CD0364B1B68002B0CD0354B1B78F0
:103AB000012B00D017E7304B0E221A6013E72E4B74
:103AC0000B221A60EEE72C4B0C221A60AE20FFF797
:103AD000D1FCEBE7294B00221A70274B0A321A60FF
:103AE00001E7194B194A1B6812689B1AFA22520007
:103AF000934200DAF7E6204BE83AFF3A1A60F2E622
:103B00001F4B1B68002B00D1EDE6AF20FFF7B2FC86
:103B1000194B09221A60E6E60B4B1A680B4B1B681F
:103B2000D31AFA21C9008B4200DADCE6074B1A608F
:103B3000144B1B78012B00D0D5E60F4B00221A60E6
:103B4000104B1A70CFE6C046F0030020341300205B
:103B50006404002048E303105C04002054E30310D5
:103B6000540400200B0BEE073CDD5E400C242E417C
:103B7000FFFF0000B00B0020943600208C5A00207C
:103B8000BC140020835A0020014B18787047C046AF
:103B9000855A0020054A1368591C1160044AD05404
:103BA000044B1A78504018707047C046283E0020D9
:103BB00098390020765A0020054A1368591C116074
:103BC000044AD054044B1A78504018707047C046CD
:103BD000343E0020983C0020775A0020000208184C
:103BE0007047000010B5034C207061706260237252
:103BF00010BDC0469836002070B506000848002267
:103C00000AE0040AFF231C40B55C45402B40054DEB
:103C10009B005859604001328A42F2D370BDC046C1
:103C2000FFFF0000C44C041010B50A00022827D082
:103C300012D8002815D0012821D1134B197013492F
:103C4000134C200034F042FF1249200039F074FD7B
:103C50000020FCF797FF12E0032810D10E4B1970DB
:103C60000DE00E4B197009490D4C200034F02EFF69
:103C70000C49200039F060FD0B4B01221A7010BD79
:103C80000A4B1970FBE7C0466B5A002060E3031033
:103C900038420020183B00206D5A00206A5A00204C
:103CA000383E002098390020B45A00206C5A002079
:103CB00010B501000020FFF7B7FF10BD10B5E54BB0
:103CC0001A68A02A01D902F075FA9300E249CB588C
:103CD0009F46E04B01321A60E04B1B78632B37D8CC
:103CE000DE4A01331370DE49DE4C0122200034F03D
:103CF000EDFE0123220010210420FFF773FFDA4BB1
:103D0000DA4A1A6024E0DA4B00241C705020FFF7D6
:103D100041FF3020FFF73EFF3020FFF73BFF302010
:103D2000FFF738FF4D20FFF735FF4F20FFF732FF39
:103D30004420FFF72FFFCF4B01221A70CE4B1C708F
:103D40005E210020FFF770FFC24A13680133136041
:103D500010BDC74B00241C705020FFF71BFF302004
:103D6000FFF718FF3020FFF715FF3020FFF712FF95
:103D70005320FFF70FFF5420FFF70CFF3120FFF710
:103D800009FFBC4B01221A70BB4B1C705E21002046
:103D9000FFF74AFFAF4A136801331360D8E7B44B0B
:103DA00000241C705020FFF7F5FE3020FFF7F2FED4
:103DB0003020FFF7EFFE3020FFF7ECFE5320FFF737
:103DC000E9FE5420FFF7E6FE3220FFF7E3FEA94BA1
:103DD00001221A70A84B1C705E210020FFF724FFFF
:103DE0009C4A136801331360B2E7A14B00241C7096
:103DF0005020FFF7CFFE3020FFF7CCFE3020FFF73A
:103E0000C9FE3020FFF7C6FE5320FFF7C3FE542043
:103E1000FFF7C0FE3320FFF7BDFE964B01221A705C
:103E2000954B1C705E210020FFF7FEFE894A136847
:103E3000013313608CE78E4B00241C705020FFF779
:103E4000A9FE3020FFF7A6FE3020FFF7A3FE3020AA
:103E5000FFF7A0FE5320FFF79DFE5420FFF79AFEC8
:103E60003420FFF797FE834B01221A70824B1C709F
:103E70005E210020FFF7D8FE764A136801331360F5
:103E800066E77B4B00241C705020FFF783FE302038
:103E9000FFF780FE3020FFF77DFE3020FFF77AFE2F
:103EA0005320FFF777FE5420FFF774FE3620FFF70C
:103EB00071FE704B01221A706F4B1C705E21002046
:103EC000FFF7B2FE634A13680133136040E7614BAA
:103ED00001321A603CE7694B1B78012B1ED95F4BFE
:103EE0005B78632B07D9664BFA221A60594A13682C
:103EF000013313602CE7594A013353705849594C28
:103F00000222200034F0E2FD0123220010210420CF
:103F1000FFF768FE544B554A1A60E4E74D4B002208
:103F20001A6015E7524B01241C705020FFF732FE37
:103F30003020FFF72FFE3020FFF72CFE3120FFF757
:103F400029FE4D20FFF726FE4F20FFF723FE4420D9
:103F5000FFF720FE474B1C70474B00221A705E2172
:103F60000020FFF761FE3B4A136801331360EFE660
:103F70003F4B01241C705020FFF70CFE3020FFF750
:103F800009FE3020FFF706FE3120FFF703FE532025
:103F9000FFF700FE5420FFF7FDFD3120FFF7FAFD8B
:103FA000344B1C70344B00221A705E210020FFF746
:103FB0003BFE284A136801331360C9E62C4B0124E9
:103FC0001C705020FFF7E6FD3020FFF7E3FD3020A6
:103FD000FFF7E0FD3120FFF7DDFD5320FFF7DAFDAD
:103FE0005420FFF7D7FD3220FFF7D4FD214B1C7082
:103FF000214B00221A705E210020FFF715FE154AA2
:10400000136801331360A3E6194B01241C70502080
:10401000FFF7C0FD3020FFF7BDFD3020FFF7BAFDF0
:104020003120FFF7B7FD5320FFF7B4FD5420FFF711
:10403000B1FD3320FFF7AEFD0E4B1C700E4B00227E
:104040001A705E210020FFF7EFFD024A136801336A
:1040500013607DE66C20002030020410A837002099
:1040600064E303100039002060350020C40900001B
:104070008E5A0020695A0020AE5A002048040020C1
:1040800064390020EC4B01241C705020FFF782FDA6
:104090003020FFF77FFD3020FFF77CFD3120FFF758
:1040A00079FD5320FFF776FD5420FFF773FD342090
:1040B000FFF770FDE14B1C70E14B00221A705E218E
:1040C0000020FFF7B1FDDF4A1368013313603FE6BC
:1040D000D94B01241C705020FFF75CFD3020FFF706
:1040E00059FD3020FFF756FD3120FFF753FD5320D7
:1040F000FFF750FD5420FFF74DFD3620FFF74AFD36
:10410000CE4B1C70CE4B00221A705E210020FFF7B0
:104110008BFDCC4A13680133136019E6C94B013299
:104120001A6015E6C84B1B78022B1ED9C74B9B782B
:10413000632B07D9C64BFA221A60C24A13680133AF
:10414000136005E6C14A01339370C249C24C032291
:10415000200034F0BBFC0123220010210420FFF7D3
:1041600041FDBE4BBE4A1A60E4E7B64B00221A601E
:10417000EEE5B14B02221A705020FFF70BFD302004
:10418000FFF708FD3020FFF705FD3220FFF702FDA5
:104190004D20FFF7FFFC4F20FFF7FCFC4420FFF70A
:1041A000F9FCA64B01221A70A54B00221A705E2161
:1041B0000020FFF739FDA34A136801331360C7E5F8
:1041C0009D4B02221A705020FFF7E4FC3020FFF7CD
:1041D000E1FC3020FFF7DEFC3220FFF7DBFC532050
:1041E000FFF7D8FC5420FFF7D5FC3120FFF7D2FCB5
:1041F000924B01221A70924B00221A705E2100200D
:10420000FFF712FD8F4A136801331360A0E58A4B54
:1042100002221A705020FFF7BDFC3020FFF7BAFCD5
:104220003020FFF7B7FC3220FFF7B4FC5320FFF734
:10423000B1FC5420FFF7AEFC3220FFF7ABFC7F4B04
:1042400001221A707E4B00221A705E210020FFF7B7
:10425000EBFC7C4A13680133136079E5764B02224C
:104260001A705020FFF796FC3020FFF793FC3020A7
:10427000FFF790FC3220FFF78DFC5320FFF78AFCFC
:104280005420FFF787FC3320FFF784FC6B4B01229F
:104290001A706B4B00221A705E210020FFF7C4FCDD
:1042A000684A13680133136052E5634B02221A70A7
:1042B0005020FFF76FFC3020FFF76CFC3020FFF739
:1042C00069FC3220FFF766FC5320FFF763FC5420A3
:1042D000FFF760FC3420FFF75DFC584B01221A7099
:1042E000574B00221A705E210020FFF79DFC554AB3
:1042F0001368013313602BE54F4B02221A705020D4
:10430000FFF748FC3020FFF745FC3020FFF742FC68
:104310003220FFF73FFC5320FFF73CFC5420FFF70F
:1043200039FC3620FFF736FC444B01221A70444B0F
:1043300000221A705E210020FFF776FC414A1368C4
:104340000133136004E53F4B01321A6000E53E4B38
:104350001B78032B1ED93D4BDB78632B07D93C4BD5
:10436000FA221A60374A136801331360F0E4374ABF
:104370000133D3703749384C0422200034F0A6FBB7
:104380000123220010210420FFF72CFC334B344A78
:104390001A60E4E72B4B00221A60D9E4264B032273
:1043A0001A705020FFF7F6FB3020FFF7F3FB3020A8
:1043B000FFF7F0FB3320FFF7EDFB4D20FFF7EAFBA3
:1043C0004F20FFF7E7FB4420FFF7E4FB1B4B0122E4
:1043D0001A701B4B00221A705E210020FFF724FC8C
:1043E000184A136801331360B2E4134B03221A70A6
:1043F0005020FFF7CFFB3020FFF7CCFB3020FFF73A
:10440000C9FB3320FFF7C6FB5320FFF7C3FB542043
:10441000FFF7C0FB3120FFF7BDFB084B01221A70EC
:10442000074B00221A705E210020FFF7FDFB054AB2
:104430001368013313608BE48E5A0020695A002000
:10444000AE5A00206C20002048040020A83700202D
:104450006439002064E30310003900206035002037
:10446000C4090000F44B03221A705020FFF792FB9E
:104470003020FFF78FFB3020FFF78CFB3320FFF756
:1044800089FB5320FFF786FB5420FFF783FB322084
:10449000FFF780FBE94B01221A70E94B00221A70EA
:1044A0005E210020FFF7C0FBE64A1368013313606A
:1044B0004EE4E14B03221A705020FFF76BFB3020D3
:1044C000FFF768FB3020FFF765FB3320FFF762FB47
:1044D0005320FFF75FFB5420FFF75CFB3320FFF70F
:1044E00059FBD64B01221A70D54B00221A705E215F
:1044F0000020FFF799FBD34A13680133136027E4C8
:10450000CD4B03221A705020FFF744FB3020FFF7F9
:1045100041FB3020FFF73EFB3320FFF73BFB5320EE
:10452000FFF738FB5420FFF735FB3420FFF732FB51
:10453000C24B01221A70C24B00221A705E21002069
:10454000FFF772FBBF4A136801331360FFF700FCEB
:10455000B94B03221A705020FFF71CFB3020FFF7E5
:1045600019FB3020FFF716FB3320FFF713FB532016
:10457000FFF710FB5420FFF70DFB3620FFF70AFB77
:10458000AE4B01221A70AE4B00221A705E21002041
:10459000FFF74AFBAB4A136801331360FFF7D8FB00
:1045A000A84B01321A60FFF7D3FBA74B1B78042BF3
:1045B0001FD9A64B1B79632B08D9A54BFA221A6089
:1045C000A04A136801331360FFF7C2FB9F4A01330F
:1045D0001371A049A04C0522200034F077FA012382
:1045E000220010210420FFF7FDFA9C4B9C4A1A6020
:1045F000E3E7944B00221A60FFF7AAFB8E4B0422DC
:104600001A705020FFF7C6FA3020FFF7C3FA3020A7
:10461000FFF7C0FA3420FFF7BDFA4D20FFF7BAFAD2
:104620004F20FFF7B7FA4420FFF7B4FA834B01227B
:104630001A70834B00221A705E210020FFF7F4FAF3
:10464000804A136801331360FFF782FB7A4B042220
:104650001A705020FFF79EFA3020FFF79BFA3020A7
:10466000FFF798FA3420FFF795FA5320FFF792FAF4
:104670005420FFF78FFA3120FFF78CFA6F4B01229D
:104680001A706F4B00221A705E210020FFF7CCFADF
:104690006C4A136801331360FFF75AFB664B042220
:1046A0001A705020FFF776FA3020FFF773FA3020A7
:1046B000FFF770FA3420FFF76DFA5320FFF76AFA1C
:1046C0005420FFF767FA3220FFF764FA5B4B0122B0
:1046D0001A705B4B00221A705E210020FFF7A4FACB
:1046E000584A136801331360FFF732FB524B042220
:1046F0001A705020FFF74EFA3020FFF74BFA3020A7
:10470000FFF748FA3420FFF745FA5320FFF742FA43
:104710005420FFF73FFA3320FFF73CFA474B0122C2
:104720001A70474B00221A705E210020FFF77CFAB6
:10473000444A136801331360FFF70AFB3E4B04221F
:104740001A705020FFF726FA3020FFF723FA3020A6
:10475000FFF720FA3420FFF71DFA5320FFF71AFA6B
:104760005420FFF717FA3420FFF714FA334B0122D5
:104770001A70334B00221A705E210020FFF754FAA2
:10478000304A136801331360FFF7E2FA2A4B042220
:104790001A705020FFF7FEF93020FFF7FBF93020A8
:1047A000FFF7F8F93420FFF7F5F95320FFF7F2F996
:1047B0005420FFF7EFF93620FFF7ECF91F4B0122E9
:1047C0001A701F4B00221A705E210020FFF72CFA8E
:1047D0001C4A136801331360FFF7BAFA194B013210
:1047E0001A60FFF7B5FA184B1B78052B1FD9174B2A
:1047F0005B79632B08D9164BFA221A60114A1368A9
:1048000001331360FFF7A4FA104A013353711149C1
:10481000114C0622200034F059F901232200102106
:104820000420FFF7DFF90D4B0D4A1A60E3E7054B53
:1048300000221A60FFF78CFA8E5A0020695A002075
:10484000AE5A00206C20002048040020A837002029
:104850006439002064E30310003900206035002033
:10486000C4090000F24B05221A705020FFF792F99C
:104870003020FFF78FF93020FFF78CF93520FFF754
:1048800089F94D20FFF786F94F20FFF783F944207F
:10489000FFF780F9E74B01221A70E74B00221A70EC
:1048A0005E210020FFF7C0F9E44A1368013313606A
:1048B000FFF74EFADE4B05221A705020FFF76AF917
:1048C0003020FFF767F93020FFF764F93520FFF754
:1048D00061F95320FFF75EF95420FFF75BF93120AF
:1048E000FFF758F9D34B01221A70D34B00221A70EC
:1048F0005E210020FFF798F9D04A13680133136056
:10490000FFF726FACA4B05221A705020FFF742F92A
:104910003020FFF73FF93020FFF73CF93520FFF753
:1049200039F95320FFF736F95420FFF733F93220D5
:10493000FFF730F9BF4B01221A70BF4B00221A70EB
:104940005E210020FFF770F9BC4A13680133136041
:10495000FFF7FEF9B64B05221A705020FFF71AF93F
:104960003020FFF717F93020FFF714F93520FFF753
:1049700011F95320FFF70EF95420FFF70BF93320FC
:10498000FFF708F9AB4B01221A70AB4B00221A70EB
:104990005E210020FFF748F9A84A1368013313602D
:1049A000FFF7D6F9A24B05221A705020FFF7F2F854
:1049B0003020FFF7EFF83020FFF7ECF83520FFF755
:1049C000E9F85320FFF7E6F85420FFF7E3F8342026
:1049D000FFF7E0F8974B01221A70974B00221A70EC
:1049E0005E210020FFF720F9944A13680133136019
:1049F000FFF7AEF98E4B05221A705020FFF7CAF868
:104A00003020FFF7C7F83020FFF7C4F83520FFF754
:104A1000C1F85320FFF7BEF85420FFF7BBF836204B
:104A2000FFF7B8F8834B01221A70834B00221A70EB
:104A30005E210020FFF7F8F8804A13680133136005
:104A4000FFF786F97D4B01321A60FFF781F97C4B45
:104A50001B78062B1FD97B4B9B79632B08D97A4B8C
:104A6000FA221A60754A136801331360FFF770F970
:104A7000744A013393717549754C0722200034F054
:104A800025F80123220010210420FFF7ABF8714B19
:104A9000714A1A60E3E7694B00221A60FFF758F980
:104AA000634B06221A705020FFF774F83020FFF78E
:104AB00071F83020FFF76EF83620FFF76BF84D20C5
:104AC000FFF768F84F20FFF765F84420FFF762F81A
:104AD000584B01221A70584B00221A705E21002098
:104AE000FFF7A2F8554A136801331360FFF730F956
:104AF0004F4B06221A705020FFF74CF83020FFF77A
:104B000049F83020FFF746F83620FFF743F85320E6
:104B1000FFF740F85420FFF73DF83120FFF73AF84F
:104B2000444B01221A70444B00221A705E2100206F
:104B3000FFF77AF8414A136801331360FFF708F969
:104B40003B4B06221A705020FFF724F83020FFF765
:104B500021F83020FFF71EF83620FFF71BF853200E
:104B6000FFF718F85420FFF715F83220FFF712F876
:104B7000304B01221A70304B00221A705E21002047
:104B8000FFF752F82D4A136801331360FFF7E0F87E
:104B9000274B06221A705020FEF7FCFF3020FEF74C
:104BA000F9FF3020FEF7F6FF3620FEF7F3FF532023
:104BB000FEF7F0FF5420FEF7EDFF3320FEF7EAFF8B
:104BC0001C4B01221A701C4B00221A705E2100201F
:104BD000FFF72AF8194A136801331360FFF7B8F892
:104BE000134B06221A705020FEF7D4FF3020FEF738
:104BF000D1FF3020FEF7CEFF3620FEF7CBFF53204B
:104C0000FEF7C8FF5420FEF7C5FF3420FEF7C2FFB1
:104C1000084B01221A70084B00221A705E210020F6
:104C2000FFF702F8054A136801331360FFF790F8A5
:104C30008E5A0020695A0020AE5A00206C200020B5
:104C400048040020A83700206439002064E30310E2
:104C50000039002060350020C4090000F54B062211
:104C60001A705020FEF796FF3020FEF793FF302099
:104C7000FEF790FF3620FEF78DFF5320FEF78AFFE8
:104C80005420FEF787FF3620FEF784FFEA4B01220F
:104C90001A70EA4B00221A705E210020FEF7C4FF52
:104CA000E74A136801331360FFF752F8E44B01320F
:104CB0001A60FFF74DF8E34B1B78072B1FD9E24B27
:104CC000DB79632B08D9E14BFA221A60DC4A1368BE
:104CD00001331360FFF73CF8DB4A0133D371DC4941
:104CE000DC4C0822200033F0F1FE012322001021C9
:104CF0000420FEF777FFD84BD84A1A60E3E7D04B81
:104D000000221A60FFF724F8CA4B07221A705020BD
:104D1000FEF740FF3020FEF73DFF3020FEF73AFF60
:104D20003720FEF737FF4D20FEF734FF4F20FEF708
:104D300031FF4420FEF72EFFBF4B01221A70BF4BFC
:104D400000221A705E210020FEF76EFFBC4A136835
:104D500001331360FEF7FCFFB64B07221A70502098
:104D6000FEF718FF3020FEF715FF3020FEF712FF88
:104D70003720FEF70FFF5320FEF70CFF5420FEF7FD
:104D800009FF3120FEF706FFAB4B01221A70AB4B37
:104D900000221A705E210020FEF746FFA84A136821
:104DA00001331360FEF7D4FFA24B07221A70502084
:104DB000FEF7F0FE3020FEF7EDFE3020FEF7EAFEB3
:104DC0003720FEF7E7FE5320FEF7E4FE5420FEF7FF
:104DD000E1FE3220FEF7DEFE974B01221A70974B60
:104DE00000221A705E210020FEF71EFF944A13680D
:104DF00001331360FEF7ACFF8E4B07221A70502070
:104E0000FEF7C8FE3020FEF7C5FE3020FEF7C2FEDA
:104E10003720FEF7BFFE5320FEF7BCFE5420FEF7FE
:104E2000B9FE3320FEF7B6FE834B01221A70834B86
:104E300000221A705E210020FEF7F6FE804A1368F9
:104E400001331360FEF784FF7A4B07221A7050205B
:104E5000FEF7A0FE3020FEF79DFE3020FEF79AFE02
:104E60003720FEF797FE5320FEF794FE5420FEF7FE
:104E700091FE3420FEF78EFE6F4B01221A706F4BAD
:104E800000221A705E210020FEF7CEFE6C4A1368E5
:104E900001331360FEF75CFF664B07221A70502047
:104EA000FEF778FE3020FEF775FE3020FEF772FE2A
:104EB0003720FEF76FFE5320FEF76CFE5420FEF7FE
:104EC00069FE3620FEF766FE5B4B01221A705B4BD3
:104ED00000221A705E210020FEF7A6FE584A1368D1
:104EE00001331360FEF734FF554B01321A60FEF7B1
:104EF0002FFF544B1B78082B1FD9534B1B7A632B66
:104F000008D9524BFA221A604D4A136801331360D4
:104F1000FEF71EFF4C4A013313724D494D4C0922D6
:104F2000200033F0D3FD0123220010210420FEF7DE
:104F300059FE494B494A1A60E3E7414B00221A6087
:104F4000FEF706FF3B4B08221A705020FEF722FEA8
:104F50003020FEF71FFE3020FEF71CFE3820FEF743
:104F600019FE4D20FEF716FE4F20FEF713FE4420DB
:104F7000FEF710FE304B01221A70304B00221A70DF
:104F80005E210020FEF750FE2D4A136801331360A6
:104F9000FEF7DEFE274B08221A705020FEF7FAFDBE
:104FA0003020FEF7F7FD3020FEF7F4FD3820FEF745
:104FB000F1FD5320FEF7EEFD5420FEF7EBFD31200E
:104FC000FEF7E8FD1C4B01221A701C4B00221A70E0
:104FD0005E210020FEF728FE194A13680133136092
:104FE000FEF7B6FE134B08221A705020FEF7D2FDD2
:104FF0003020FEF7CFFD3020FEF7CCFD3820FEF745
:10500000C9FD5320FEF7C6FD5420FEF7C3FD322034
:10501000FEF7C0FD084B01221A70084B00221A70DF
:105020005E210020FEF700FE054A1368013313607D
:10503000FEF78EFE8E5A0020695A0020AE5A0020DC
:105040006C20002048040020A8370020643900208C
:1050500064E303100039002060350020C40900001B
:10506000F44B08221A705020FEF794FD3020FEF712
:1050700091FD3020FEF78EFD3820FEF78BFD53208A
:10508000FEF788FD5420FEF785FD3320FEF782FDF4
:10509000E94B01221A70E94B00221A705E210020B0
:1050A000FEF7C2FDE64A136801331360FEF750FEB7
:1050B000E04B08221A705020FEF76CFD3020FEF7FE
:1050C00069FD3020FEF766FD3820FEF763FD5320B2
:1050D000FEF760FD5420FEF75DFD3420FEF75AFD1B
:1050E000D54B01221A70D54B00221A705E21002088
:1050F000FEF79AFDD24A136801331360FEF728FECB
:10510000CC4B08221A705020FEF744FD3020FEF7E9
:1051100041FD3020FEF73EFD3820FEF73BFD5320D9
:10512000FEF738FD5420FEF735FD3620FEF732FD40
:10513000C14B01221A70C14B00221A705E2100205F
:10514000FEF772FDBE4A136801331360FEF700FEDE
:10515000BB4B01321A60FEF7FBFDBA4B1B78092BE3
:105160001ED9B94B5B7A632B08D9B84BFA221A6067
:10517000B34A136801331360FEF7EAFDB24A013304
:105180005372B34AB34B196811601B791371012331
:1051900010210420FEF726FDAF4BB04A1A60E4E769
:1051A000A74B00221A60FEF7D3FDA24B09221A700A
:1051B0005020FEF7EFFC3020FEF7ECFC3020FEF72D
:1051C000E9FC3920FEF7E6FC4D20FEF7E3FC4F201A
:1051D000FEF7E0FC4420FEF7DDFC974B01221A703D
:1051E000964B00221A705E210020FEF71DFD944AA6
:1051F000136801331360FEF7ABFD8E4B09221A7062
:105200005020FEF7C7FC3020FEF7C4FC3020FEF72C
:10521000C1FC3920FEF7BEFC5320FEF7BBFC542036
:10522000FEF7B8FC3120FEF7B5FC834B01221A7063
:10523000824B00221A705E210020FEF7F5FC804AA6
:10524000136801331360FEF783FD7A4B09221A704D
:105250005020FEF79FFC3020FEF79CFC3020FEF72C
:1052600099FC3920FEF796FC5320FEF793FC54205E
:10527000FEF790FC3220FEF78DFC6F4B01221A7076
:105280006E4B00221A705E210020FEF7CDFC6C4AA6
:10529000136801331360FEF75BFD664B09221A7039
:1052A0005020FEF777FC3020FEF774FC3020FEF72C
:1052B00071FC3920FEF76EFC5320FEF76BFC542086
:1052C000FEF768FC3320FEF765FC5B4B01221A7089
:1052D0005A4B00221A705E210020FEF7A5FC584AA6
:1052E000136801331360FEF733FD524B09221A7025
:1052F0005020FEF74FFC3020FEF74CFC3020FEF72C
:1053000049FC3920FEF746FC5320FEF743FC5420AD
:10531000FEF740FC3420FEF73DFC474B01221A709B
:10532000464B00221A705E210020FEF77DFC444AA5
:10533000136801331360FEF70BFD3E4B09221A7010
:105340005020FEF727FC3020FEF724FC3020FEF72B
:1053500021FC3920FEF71EFC5320FEF71BFC5420D5
:10536000FEF718FC3620FEF715FC334B01221A70AD
:10537000324B00221A705E210020FEF755FC304AA5
:10538000136801331360FEF7E3FC2D4B01321A6002
:10539000FEF7DEFC2B4B1B780A2B1ED92A4B9B7A7F
:1053A000632B08D9294BFA221A60254A1368013366
:1053B0001360FEF7CDFC244A01339372244A284B34
:1053C000196811601B791371012310210420FEF765
:1053D00009FC214B214A1A60E4E7194B00221A60AC
:1053E000FEF7B6FC134B0A221A705020FEF7D2FBD0
:1053F0003020FEF7CFFB3120FEF7CCFB3020FEF74C
:10540000C9FB4D20FEF7C6FB4F20FEF7C3FB44202F
:10541000FEF7C0FB084B01221A70084B00221A70DD
:105420005E210020FEF700FC054A1368013313607B
:10543000FEF78EFC8E5A0020695A0020AE5A0020DA
:105440006C20002048040020A83700206439002088
:10545000003900206CE3031060350020C40900000F
:1054600074E30310F34B0A221A705020FEF792FBEC
:105470003020FEF78FFB3120FEF78CFB3020FEF74B
:1054800089FB5320FEF786FB5420FEF783FB312077
:10549000FEF780FBE84B01221A70E84B00221A70DD
:1054A0005E210020FEF7C0FBE54A1368013313605C
:1054B000FEF74EFCDF4B0A221A705020FEF76AFB03
:1054C0003020FEF767FB3120FEF764FB3020FEF74B
:1054D00061FB5320FEF75EFB5420FEF75BFB32209E
:1054E000FEF758FBD44B01221A70D44B00221A70DD
:1054F0005E210020FEF798FBD14A13680133136048
:10550000FEF726FCCB4B0A221A705020FEF742FB16
:105510003020FEF73FFB3120FEF73CFB3020FEF74A
:1055200039FB5320FEF736FB5420FEF733FB3320C4
:10553000FEF730FBC04B01221A70C04B00221A70DC
:105540005E210020FEF770FBBD4A13680133136033
:10555000FEF7FEFBB74B0A221A705020FEF71AFB2B
:105560003020FEF717FB3120FEF714FB3020FEF74A
:1055700011FB5320FEF70EFB5420FEF70BFB3420EB
:10558000FEF708FBAC4B01221A70AC4B00221A70DC
:105590005E210020FEF748FBA94A1368013313601F
:1055A000FEF7D6FBA34B0A221A705020FEF7F2FA40
:1055B0003020FEF7EFFA3120FEF7ECFA3020FEF74C
:1055C000E9FA5320FEF7E6FA5420FEF7E3FA362014
:1055D000FEF7E0FA984B01221A70984B00221A70DD
:1055E0005E210020FEF720FB954A1368013313600B
:1055F000FEF7AEFB924B01321A60FEF7A9FB914B0E
:105600001B780B2B1BD9904BDB7A632B08D98F4B64
:10561000FA221A608A4A136801331360FEF798FB76
:10562000894A0133D3728A4A8A4B136001231021BD
:105630000420FEF7D7FA884B884A1A60E7E7804BC8
:1056400000221A60FEF784FB7A4B0B221A7050205E
:10565000FEF7A0FA3020FEF79DFA3120FEF79AFA05
:105660003120FEF797FA4D20FEF794FA4F20FEF70F
:1056700091FA4420FEF78EFA6F4B01221A706F4B9D
:1056800000221A705E210020FEF7CEFA6C4A1368E1
:1056900001331360FEF75CFB664B0B221A7050203F
:1056A000FEF778FA3020FEF775FA3120FEF772FA2D
:1056B0003120FEF76FFA5320FEF76CFA5420FEF704
:1056C00069FA3120FEF766FA5B4B01221A705B4BD8
:1056D00000221A705E210020FEF7A6FA584A1368CD
:1056E00001331360FEF734FB524B0B221A7050202B
:1056F000FEF750FA3020FEF74DFA3120FEF74AFA55
:105700003120FEF747FA5320FEF744FA5420FEF703
:1057100041FA3220FEF73EFA474B01221A70474BFE
:1057200000221A705E210020FEF77EFA444A1368B8
:1057300001331360FEF70CFB3E4B0B221A70502016
:10574000FEF728FA3020FEF725FA3120FEF722FA7C
:105750003120FEF71FFA5320FEF71CFA5420FEF703
:1057600019FA3320FEF716FA334B01221A70334B25
:1057700000221A705E210020FEF756FA304A1368A4
:1057800001331360FEF7E4FA2A4B0B221A70502003
:10579000FEF700FA3020FEF7FDF93120FEF7FAF9A6
:1057A0003120FEF7F7F95320FEF7F4F95420FEF705
:1057B000F1F93420FEF7EEF91F4B01221A701F4B4E
:1057C00000221A705E210020FEF72EFA1C4A136890
:1057D00001331360FEF7BCFA164B0B221A705020EF
:1057E000FEF7D8F93020FEF7D5F93120FEF7D2F9CF
:1057F0003120FEF7CFF95320FEF7CCF95420FEF705
:10580000C9F93620FEF7C6F90B4B01221A700B4B73
:1058100000221A705E210020FEF706FA084A13687B
:1058200001331360FEF794FA054B01321A60FEF75C
:105830008FFAC0468E5A0020695A0020AE5A0020C6
:105840006C20002048040020A83700206439002084
:10585000003900205431320060350020C4090000B6
:10586000F24B1B780C2B1ED9F14B1B7B632B08D9F9
:10587000F04BFA221A60F04A136801331360FEF706
:1058800067FAEB4A01331373EC4AED4B1968116068
:105890001B791371012310210420FEF7A3F9E94BB2
:1058A000E94A1A60E4E7E44B00221A60FEF750FA76
:1058B000E64B0C221A705020FEF76CF93020FEF7F0
:1058C00069F93120FEF766F93220FEF763F94D20C1
:1058D000FEF760F94F20FEF75DF94420FEF75AF914
:1058E000DB4B01221A70DB4B00221A705E21002074
:1058F000FEF79AF9D04A136801331360FEF728FACD
:10590000D24B0C221A705020FEF744F93020FEF7DB
:1059100041F93120FEF73EF93220FEF73BF95320E2
:10592000FEF738F95420FEF735F93120FEF732F949
:10593000C74B01221A70C74B00221A705E2100204B
:10594000FEF772F9BC4A136801331360FEF700FAE0
:10595000BE4B0C221A705020FEF71CF93020FEF7C7
:1059600019F93120FEF716F93220FEF713F953200A
:10597000FEF710F95420FEF70DF93220FEF70AF970
:10598000B34B01221A70B34B00221A705E21002023
:10599000FEF74AF9A84A136801331360FEF7D8F9F5
:1059A000AA4B0C221A705020FEF7F4F83020FEF7B4
:1059B000F1F83120FEF7EEF83220FEF7EBF8532035
:1059C000FEF7E8F85420FEF7E5F83320FEF7E2F89A
:1059D0009F4B01221A709F4B00221A705E210020FB
:1059E000FEF722F9944A136801331360FEF7B0F909
:1059F000964B0C221A705020FEF7CCF83020FEF7A0
:105A0000C9F83120FEF7C6F83220FEF7C3F853205C
:105A1000FEF7C0F85420FEF7BDF83420FEF7BAF8C0
:105A20008B4B01221A708B4B00221A705E210020D2
:105A3000FEF7FAF8804A136801331360FEF788F91D
:105A4000824B0C221A705020FEF7A4F83020FEF78B
:105A5000A1F83120FEF79EF83220FEF79BF8532084
:105A6000FEF798F85420FEF795F83620FEF792F8E6
:105A7000774B01221A70774B00221A705E210020AA
:105A8000FEF7D2F86C4A136801331360FEF760F931
:105A9000694B01321A60FEF75BF9644B1B780D2BE2
:105AA0001ED9634B5B7B632B08D9624BFA221A60C9
:105AB000614A136801331360FEF74AF95C4A013307
:105AC00053735E4A644B196811601B79137101238B
:105AD00010210420FEF786F85A4B5B4A1A60E4E76F
