:020000041000EA
:1000000000B5324B212058609868022188439860DF
:10001000D860186158612E4B002199600221596106
:100020000121F02299502B49196001219960352056
:1000300000F044F80222904214D00621196600F024
:1000400034F8196E01211966002018661A6600F04E
:100050002CF8196E196E196E052000F02FF8012189
:100060000842F9D1002199601B49196000215960AB
:100070001A491B48016001219960EB211966A021F2
:10008000196600F012F800219960164914480160C1
:100090000121996001BC002800D000471248134993
:1000A000086003C880F30888084703B5996A0420EC
:1000B0000142FBD001200142F8D103BD02B5186610
:1000C0001866FFF7F2FF186E186E02BD00000240BE
:1000D000000000180000070000035F00212200005C
:1000E000F4000018222000A00001001008ED00E03C
:1000F00000000000000000000000000074B24E7A12
:1001000000200420F7010010C3010010C5010010F9
:10011000C1010010C1010010C1010010C101001097
:10012000C1010010C1010010C1010010C701001081
:10013000C1010010C1010010C9010010CB01001065
:10014000CD010010CD010010CD010010CD01001037
:10015000CD010010CD010010CD010010CD01001027
:10016000CD010010CD010010CD010010CD01001017
:10017000CD010010CD010010CD010010CD01001007
:10018000CD010010CD010010CD010010CD010010F7
:10019000CD010010CD010010CD010010CD010010E7
:1001A000CD010010CD010010CD010010CD010010D7
:1001B000CD010010CD010010CD010010CD010010C7
:1001C00000BE00BE00BE00BE00BE00BEEFF3058054
:1001D000103800BEF2EB8871CC6C0410F86C04107F
:1001E0003402001090A31AE700201F49086006C8D7
:1001F00081F3088810471D48006800282FD10DA4FE
:100200000ECC002902D000F012F8F9E71849194A7B
:10021000002000E001C19142FCD1174988471749ED
:1002200088471749884700BEFDE701C901C29A42C5
:10023000FBD37047F86C0410C0000020F8150020B4
:1002400030820410000004200000042030820410DA
:10025000001004200010042000000000704709482E
:1002600039F06CF80047000008ED00E0000000D015
:10027000F8150020EC64002095800310DD180010B4
:10028000518003105756000006005250ABB3605324
:100290002C65041006005250861C03023C650410B5
:1002A000060052505422A29D44650410050052508D
:1002B000DE65F46830820410F8B5C04610B5064C0F
:1002C0002378002B07D1054B002B02D0044800E017
:1002D00000BF0123237010BD08170020000000009C
:1002E000A0DF0310044B10B5002B03D003490448D2
:1002F00000E000BF10BDC046000000000C17002049
:10030000A0DF0310024A1368013313607047C04630
:10031000DC2A00200123024A1360024A137070474E
:10032000347005409D64002010B50400074B012285
:100330001A600749002035F0F5FF0121002035F053
:10034000C7FF044B986A0019186110BD386005405A
:1003500015030010004005401C4B19681C4A9368A7
:10036000CB1A5268934230DB194B99601B68042BFF
:1003700028D89A0017498A589746154A1649516055
:100380000133136021E0124AFA21890051600133E0
:1003900013601AE0114A1268920716D401330C4A0E
:1003A000136012E00D4A126892070ED50133084A15
:1003B00013600AE00A4A082311680B431360044BD8
:1003C00000221A60024B00221A607047F00B0020D6
:1003D00014430020A0DF0310B80B0000041F00200E
:1003E000E01E002010B53B4B1A683B4B1B68D31A2C
:1003F000A52149008B425EDB374B1A60374B1B78D7
:10040000022B3DD015D8002B2AD0012B58D1344ACD
:100410001168344A126891422EDD314B1A68314B13
:100420001A60314B1B78002B45D0013B2E4A1370CC
:1004300041E0032B44D12A4A11682A4A12689142AA
:100440003ADD274B1A68274B1A60274A1378013385
:10045000DBB213700A2B2ED924483AF067F92AE050
:100460001F4A1268002A26DD01331C4A13701C4BF8
:100470001A681C4B1A601EE00133184A13701AE008
:10048000194B197803290BD819483AF04FF9194B31
:100490001B681A070BD408221343164A136006E0A0
:1004A00015483AF043F9154B962292001A600B4A10
:1004B00013780133137010BD0133084A1370FAE743
:1004C0000023074A1360054A1370074B05221A7070
:1004D000F1E7C046F00B0020E42A0020E46400208D
:1004E000DC2A0020E02A0020F40B0020D0DF0310DB
:1004F000B4DF0310E01E0020C4DF0310081F00203B
:1005000010B53CF0EFFD10BD10B50D490D483CF0A5
:1005100069FE01210C2035F0CBFC01210A2035F0C9
:10052000C7FC01210B2035F0C3FC0D2035F0C0FDC8
:10053000D0231B06802292015A625A6110BDC04628
:10054000400D03000000044070B5041CFF21890524
:1005500039F02CFE00280AD10E49201C39F02CFE5F
:10056000002812D0FF2189050B4E0C4D03E0FC2121
:1005700089050B4E0025201C39F0C7FD311C39F0D0
:10058000CEFD291C39F0C6FD70BD0249054E064D51
:10059000F1E7C046EC51E03F787A253C0000C842C4
:1005A0000AD7233C9FAB2D3C0000FA4210B502490C
:1005B00039F0B5FD10BDC046EE7CFF3E30B58DB0C4
:1005C00004000D002822002102A839F043FF002377
:1005D00006E0200010C89A0002A95450013304001C
:1005E000AB42F6DB002300E01300072B0DDC9A0082
:1005F00002A951585A1C900002AC00598142F3D90B
:100600009B00185193001951EEE7049B0093059B42
:10061000019300989C466044069B00939C4660446E
:10062000079BC01880080DB030BD000070B5884B26
:100630001A68884B1B68D31A312B15DD854B1A605D
:10064000854B1C68052C00D9D9E0A300834AD358F8
:100650009F46834B1B68E022D2011340814A1360FE
:100660007D4A13680133136070BD7F4B04221A600A
:100670007B4B1B68DB05FBD5794B5B687B480268CD
:10068000511C016092001B041B0C79481350072970
:10069000EAD9764B00221A600821FFF78FFF754BCD
:1006A00018606F4B1A6880235B015340E022D2012F
:1006B00013406C4A1360684A136801331360D3E730
:1006C000694B04221A60664B1B68DB05FBD5644B43
:1006D0005B6866480268511C016092001B041B0C99
:1006E000634813500729BFD9604B00221A600821C4
:1006F000FFF764FF5F4B5860594B1A6880239B01DA
:100700005340E022D2011340564A1360524A136804
:1007100001331360A8E7544B04221A60504B1B6846
:10072000DB05FBD54E4B5B6850480268511C0160ED
:1007300092001B041B0C4E481350072900D893E766
:100740004A4B00221A600821FFF738FF494B986096
:10075000434B1B68E022D2011340424A13603E4AD9
:100760001368013313607FE7424E306839F031FD82
:10077000414939F0EAFCFFF7E7FE051C3F4B1860E2
:10078000706839F026FD3C4939F0DFFCFFF70EFFB9
:100790003B4B1860B06839F01CFD374939F0D5FC87
:1007A000384B1860FE21890539F00EFD002813D062
:1007B000354A364B11680B4013603549281C39F017
:1007C000F5FC00280FD0304A0223116899431160CC
:1007D0000134214B1C6047E72B4A8023DB00116862
:1007E0000B431360E9E7284A022311680B431360A7
:1007F000EEE700231D4A1360174A136034E71F21F8
:100800001A2035F055FB002200211A2035F068FB34
:1008100000211A2035F034FC1F211B2035F048FB45
:10082000002200211B2035F05BFB00211B2035F04E
:1008300027FC1F211C2035F03BFB002200211C203F
:1008400035F04EFB00211C2035F01AFC0CE7C046A9
:10085000F00B00209843002010430020E0DF03103D
:1008600000C0044000D0044000E004401C230020ED
:100870009C430020201C00203333533ADC1E002010
:10088000D81E0020D41E0020041F0020FFFBFFFF05
:10089000000020C270B5104B1B68002BFBD00F4925
:1008A0000A68531C0B600E498D5C8022D200934273
:1008B0000ED00C4C0021200035F00AFD064A1368CA
:1008C000013B13600121200035F002FD280070BDBE
:1008D000024B00221A60ECE78C3F00209C3F002076
:1008E0008C3300200040034070B5114B1B68002B77
:1008F000FBD010490A68531C0B600F498C5C0F4AEF
:1009000014708022D20093420ED00D4D0021280099
:1009100035F0DEFC064A1368013B13600121280014
:1009200035F0D6FC200070BD024B00221A60ECE7C7
:10093000903F0020A03F00208C370020B0640020B2
:10094000008003400A4B1B68002BFBD0094801685C
:100950004A1C02600848405C8021C9008A4203D0DA
:10096000013B034A13607047024A00211160F7E718
:10097000943F0020AC3F00208C3B002082B019E067
:100980006B46DA791C4801684B1C03601B484254D3
:100990008021C9008B4222D019490B6801330B60BA
:1009A0008021C9008B421ED0164B1A70164A13685C
:1009B00001331360154B9B6910210A001A4019423C
:1009C00018D16B46D91D002ADAD1104B9B69DB0682
:1009D000FBD40E4B1B680B7001320131F3E7064B61
:1009E00000211960D8E7064B00211960084B01313E
:1009F0001970D9E702B07047B03F00208C33002057
:100A00008C3F0020CC6400204C1D0020004003409F
:100A1000D864002082B019E06B46DA791C4801687E
:100A20004B1C03601B4842548021C9008B4222D0DA
:100A300019490B6801330B608021C9008B421ED01D
:100A4000164B1A70164A136801331360154B9B69D5
:100A500010210A001A40194218D16B46D91D002AEC
:100A6000DAD1104B9B69DB06FBD40E4B1B680B7075
:100A700001320131F3E7064B00211960D8E7064B3C
:100A800000211960084B01311970D9E702B0704795
:100A9000B43F00208C370020903F0020CB64002022
:100AA000481D002000800340D964002000B583B0B9
:100AB0000CE00122524218E01A4B002119601FE09D
:100AC000194B1A70194A13680133136000203BF068
:100AD00057FA002823D001226B46D91D00203BF095
:100AE0005BFA0028E5D06B46DA79D2B20D4801688E
:100AF0004B1C03600E4842548021C9008B42DBD05E
:100B00000C490B6801330B608021C9008B42D7D19F
:100B1000084B00211960084B01311970D0E703B070
:100B200000BDC046C03F0020CA640020501D002008
:100B30008C3B0020943F0020DA64002070B582B026
:100B4000012811D0022800D19BE0002855D0802434
:100B5000E40022000021514839F07CFC22000021F1
:100B60004F4839F077FC97E04E4B1B78012B01D8AA
:100B70004A4C24E04C4C494A4C49200038F0B2FB26
:100B800021004B4839F0D2FD8022D2000021200004
:100B900039F060FCECE76B46DA1D0D23137008009A
:100BA00000281BD1434B9B699B06FBD41578414B16
:100BB0001D6001300132F3E70023237001343D4B07
:100BC0009B692022110019401A4265D12678002E17
:100BD00062D0394B02229B5EB342DCD06B46DA1DF9
:100BE00016700029E8D1334B9B699B06FBD4107823
:100BF000304B186001310132F3E72A4B1B78032B8D
:100C000001D8274C25E0284C254A2C49200038F0F3
:100C100069FB2100264839F089FD8022D20000219D
:100C2000200039F017FCECE76B46DA1D0D2313703A
:100C3000002104E01078224B1860013101320029B4
:100C40000FD11F4B9B699B06FBD4F3E70023237056
:100C500001342578002D1FD0174B00229B5EAB423C
:100C6000E2D06B46DA1D157000210029EED1144B3D
:100C70009B699B06FBD41078114B1860013101323F
:100C8000F3E7094C21000A4839F050FD8022D200D8
:100C90000021200039F0DEFB02B070BD6848002062
:100CA000684C0020AB64002068500020F8DF03107F
:100CB00038E10310008003407064002000E003105E
:100CC0000040034070B582B00C00022808D8002A0A
:100CD00006DD012806D0022800D16FE0002837D0B9
:100CE00002B070BD8023DB009A4218DB8022D20064
:100CF00015E06B46DA1D0D231370002104E0107817
:100D0000334B186001310132002911D1304B9B69FE
:100D10009B06FBD4F3E70023237001342A00551E01
:100D2000002ADDD026782B4B02229B5EB342E0D016
:100D30006B46DA1D167000210029ECD1244B9B690B
:100D40009B06FBD41078224B186001310132F3E787
:100D50008023DB009A4218DB8022D20015E06B462C
:100D6000DA1D0D231370002104E010781A4B18606F
:100D700001310132002911D1174B9B699B06FBD42D
:100D8000F3E70023237001342A00551E002AA7D060
:100D90002678104B00229B5EB342E0D06B46DA1DF2
:100DA000167000210029ECD10B4B9B699B06FBD4EC
:100DB0001078094B186001310132F3E7074839F028
:100DC000B5FC04220021200039F044FB88E7C0462E
:100DD00000800340706400200040034008E00310DE
:100DE00010B5002806D0012809D1D0231B064022C7
:100DF0005A6110BDD0231B0640229A61F9E70620F4
:100E000035F056F9D0231B0640225A62F1E7000064
:100E100010B5324B1A78052A59D893003049CB586F
:100E20009F46304B1B78012B28D12F4B1B78002B72
:100E300024D10132294B1A702C4B1A682C4B1A60A2
:100E40001CE02A4B1B682A4A12689B1A132B15DDDB
:100E50000120FFF7C5FF254B1A68254B1A601F4A72
:100E600013780133137009E001321C4B1A701F4BC9
:100E70001B681F4A12689B1A632B00DC10BD0120FF
:100E8000FFF75CFE194B1A68194B1A60134A137866
:100E900001331370F2E7154B1968154B19600132D5
:100EA0000E4B1A70EAE7114B1B68114A12689B1A25
:100EB000312BE3DD0020FFF793FF0023074A137077
:100EC0000A4A11680A4A1160064A1370D6E70023DD
:100ED000024A1370034A1370D0E7C046E264002050
:100EE00010E00310E1640020C6640020F00B002035
:100EF000F441002070B5434B1B68434A126893428B
:100F00005CD0414A1360414A1368591C1160082B98
:100F100054DD130000221A603D4A1368591C116009
:100F2000082B4BDD130000221A603A4B1B68002B84
:100F300045D0D0231B06802292045A61354B0022F3
:100F40001A60354A1368591C1160082B36DD1300EE
:100F500000221A603149012200230C684D68A41850
:100F60005D410C604D602E490968002902D00139AD
:100F70002B4801602B490968002902D00139294812
:100F800001600123234223D0D0231B0680225A6113
:100F9000254B1B68DB0720D4244A1368591C1160B9
:100FA0003A2B0BDD130000221A60214A1368591CEA
:100FB00011603A2B02DD130000221A6070BD154B40
:100FC00001221A60D0231B06802292049A61B8E79E
:100FD000D0231B0680229A61DAE7164839F0A6FB77
:100FE0000020FFF7ABFD104A0123116899431160FF
:100FF00000203BF0C9F8FA200121400036F0C6FF7E
:10100000FEE7C046F00B0020884300208443002008
:101010004C2B0020FC420020502B0020F816002012
:10102000D01E0020081F0020E01E0020904300205A
:101030008C43002028E0031070B586B0894B1C68F3
:10104000002C00D0ECE0884B1A68884B1B68D31A40
:10105000FA2189008B4200DAE2E0844B1A60844B6B
:101060001E685D68002D1AD102D1824B9E4216D8AF
:101070000023002D03D103D17F4A964200D90133CA
:10108000002D04D104D1E1221201964200D3013394
:10109000022B0ED0032B04D0012B27D117E0012304
:1010A000E7E7764A00233000290038F0D9F9744B7D
:1010B0001860724A00233000290038F0D1F910007E
:1010C000704B1A60704938F065F9704B18606E4AC1
:1010D00000233000290038F0C3F91000694B1A6072
:1010E000E121090138F056F9694B1860E12212013B
:1010F00000233000290038F0B3F91500614B1D6062
:101100003C21280038F046F9624B18603C21280049
:1011100038F040F9604B1960604B1A78052A00D905
:1011200096E093005E49CB589F4617226A443023CD
:101130001370210008E05B4B9B699B06FBD4107881
:10114000584B1860013101320029F4D0564B02226D
:101150009B5E312B04D017226A443123137019E0AF
:1011600017226A44243B137021000029F3D14F4B0E
:101170009B699B06FBD410784C4B186001310132FF
:10118000F3E74A4B9B699B06FBD41178474B1960E8
:1011900001340132002CF4D0454839F097FA3FE091
:1011A000042A3DD9434B444A1168196092889A80B9
:1011B000424B01221A7033E0042A33D8334B1B68A8
:1011C0002F4A12683E490968039133490968029120
:1011D0003049096801912E490968009139493A4816
:1011E00038F080F8394B1B68002B25D10220FFF71F
:1011F000A5FC374B186839F04DF804000D00354B4D
:10120000186839F047F802900391334B186839F0A9
:1012100041F80090019122002B00304839F086FA05
:1012200006B070BD2E4B2F4A1168196092889A80C3
:101230000020FFF783FCC1E70220FFF77FFC234C6F
:1012400022682949204838F04DF800232360CDE773
:10125000002A02D0013A114B1A70244B00221A7056
:10126000DEE7C046D01E0020F00B002080430020A7
:10127000F81600207F33E1017F5101008033E10146
:10128000906400207C43002080510100C41D002098
:1012900040170020002B0020D8410020AB64002024
:1012A000B0E0031000400340706400200080034061
:1012B0003CE00310684800204CE00310E16400208B
:1012C000081F00205CE0031068500020141F00205D
:1012D000D81E0020DC1E0020D41E002088E0031051
:1012E000684C002054E003107CE00310CE64002022
:1012F00010B5E124640221000B4836F01FFC2100E8
:101300000A4836F01BFC0221042034F0D1FD0221F2
:10131000052034F0CDFD0221002034F0C9FD02216A
:10132000012034F0C5FD10BD0080034000400340A3
:1013300010B59D4CA544002302939C4A002103A8AC
:1013400039F088F89A4B1A78042A00D922E19300E0
:101350009849CB589F46002397490B6097490B60EB
:1013600097490B70013292490A70964A1168964A61
:101370001160964A1370964A13608223DB009D44E5
:1013800010BD944B1A68944B1B689A420FD18D4B39
:101390001B688D4A12689B1AFA2BEEDD864B1B6880
:1013A000002B6FD0824A137801331370E5E78B4B23
:1013B00005221A60FFF798FA0300894A1278002A7A
:1013C00023D17D4A1268002A01D1242849D07F49BF
:1013D0000978002949D0834900240C7079490C68A8
:1013E00079490C600A2B44D07F4B9A4202D9724B48
:1013F0007D4A1A60704A11684B1C13607B4A505436
:101400000021D1547A4B1870C1E77A4A0021525E0C
:10141000824210D06B46D87100226B46D91D002A3B
:101420001CD1754B9B699B06FBD40C78724B1C60DE
:1014300001320131F3E76B460D22DA7100226B466F
:10144000D91D04E00C786C4B1C6001320131002A7C
:10145000E0D1694B9B699B06FBD4F3E739F002F9B5
:101460008BE75A4901240C70B1E75E4901240C70E6
:10147000B4E75F4B1B780D2BB6D14D490B78013388
:101480000B70B1E74A4B00221A7076E75B4B1B7872
:10149000002B03D00132464B1A706EE74B4B1B7882
:1014A000012B14D0514C22005549564837F01AFFF1
:1014B0008022D2000021200038F0CCFF0220FFF76C
:1014C0003DFB00233E4A1370394A137055E73F4BEA
:1014D00000221A704C483BF0BFFE4C4BDB69834244
:1014E000E0D1354B1A68063A494902A83CF07CFA2B
:1014F00002A9484839F01AF902A947483CF0D2F944
:101500000020FFF71BFBCDE7314B1B68374959180B
:10151000414A42480468146000791071264A1268F2
:10152000D21A5A2A1DD95A223B483CF0F1F9204AD6
:101530001378013313703A4A3A4B11680B40136029
:10154000354C20003CF0B6F920180222364938F01C
:1015500087FF0020FFF7F2FA1A4B1A681A4B1A603D
:101560000BE72D483CF0D4F9114B05221A70E2E745
:10157000144B1B68144A12689B1AC82292009342AB
:1015800000DAFAE6124A13685A331360084B032252
:101590001A70F2E68022D2000021144838F05AFF77
:1015A000034B00221A70E8E6F0FBFFFF0104000085
:1015B000D5640020E0E0031084330020783300205D
:1015C000D6640020F00B0020682B0020E764002088
:1015D000641E0020B43F0020A03F0020D01E002049
:1015E000CF640020B3640020FE030000742F0020AD
:1015F000D06400207064002000400340B1640020EB
:10160000C8E0031068500020752F0020381E00200D
:10161000782F002038E10310684C0020D4E003103C
:101620000C2B0020FFEFFFFFDCE0031080B53A4FEA
:10163000BD4400230093394A002101A838F00AFF75
:10164000374B1B78012B13D0022B50D0002B03D02B
:10165000334B00221A7007E0002232490A603249F7
:101660000A6001332E4A13708123DB009D4480BD44
:101670002E4B1A682E4B1B689A420FD1294B1B68C0
:10168000002BF1D02B4B1B682B4A12689B1AC82BDE
:10169000EADD234A137801331370E5E7274B05226F
:1016A0001A60FFF7F7F8234A1168234A11600A28E5
:1016B00014D0202812D01B4B1A68214B9A4202D911
:1016C000184B204A1A60174A11684B1C13601E4AB7
:1016D00050540021D1541D4B1870CFE71B4B1B7881
:1016E0000D2BE8D10E4A137801331370E3E7184B42
:1016F0001B78002B06D1144800F0A8FE084B0022EE
:101700001A70B1E7104A1349134837F0EBFD022075
:10171000FFF714FAEFE7C046F8FBFFFF01040000F3
:10172000D36400207C33002064430020B03F0020BD
:101730009C3F0020F00B0020602B0020D01E0020DA
:10174000FD030000FE030000742B0020C96400208C
:10175000AB640020F4E003106850002030B54C4C1E
:10176000A544002300934B4A002101A838F072FEE3
:10177000494B1B78012B1BD0022B00D173E0002BAF
:1017800003D0454B00221A700FE0002243490A6043
:1017900043490A6043490A6001333F490B70424B99
:1017A0001968424B1960424B1A60424B9D4430BD50
:1017B000414B1A68414B1B689A421BD13A4B1B683C
:1017C0003A4A1268934208D0384A1360384B1B6873
:1017D000002B02D0013B364A1360354B1B68002BAF
:1017E000E3D12E4B1B68002BDFD02B4A137801333B
:1017F0001370DAE7324B03221A60FFF7A3F80400F4
:101800000500294B1A68294B1A60294B1B68002BCD
:1018100016D00A2D1ED0202D1CD0204B1A68294B23
:101820009A4202D91D4B284A1A601C4A11684B1C67
:101830001360264A54540021D154254B1C70BDE737
:101840001B4BC8221A60234B00936946224838F08C
:101850006DFFDEE71E4B1B780D2BDED10E4A137891
:1018600001331370D9E70D4B1D68184C2A00210075
:10187000684638F0F5FD2A0069460220FFF722FA93
:10188000200000F0E9F8044B00221A708DE7C046F2
:10189000F4FBFFFF01040000D4640020803300202B
:1018A0007433002068430020F00B0020642B0020DC
:1018B000C44000200C040000C03F0020AC3F0020CA
:1018C000D01E0020FD030000FE030000742B00204A
:1018D000C86400203C553A0038E1031070B5444C10
:1018E00002232268134323600025424B1D70424BA4
:1018F0001D604248FEF718FD414BFA2292001A6023
:10190000FFF7F6FC38F01EFF192034F0D1FBD0268B
:10191000360680239B047362FF20FFF761FA0020E4
:10192000FFF75EFA04232268134323602022134347
:101930002360FEF7E9FD01F0F3FEFEF7E1FD01F0A3
:101940007FFF3AF0C3FB2F4B1D602F4B0122042178
:10195000162034F039FB072034F0AAFB8023736291
:1019600027E0244B00221A70FA208000FEF7DCFCEE
:10197000214A1368013313601FE001F059FA234B29
:101980001B78002B2ED1FFF751FE32F067FEFFF7D8
:10199000E5FEFFF7CDFCFEF7DFFCFEF723FD01F0CF
:1019A0005BFEFEF743FE01F093FD02F05BF9FFF7EB
:1019B0002FFA104B1B78002BD3D1FFF79BFAFEF7C1
:1019C000DDFFFFF727F8FFF771F8FFF735FB104B46
:1019D0001B78002BDBD10F4B1B78012BCDD001F0F6
:1019E00041FCCCE7094B00221A7033F03FFCCAE7F8
:1019F000041F00209D640020F00B002080841E0046
:101A0000081F0020DC2A002005030010B36400201A
:101A1000B8640020B2640020012905D0012383406E
:101A2000D02212069361704701238340D022120610
:101A30005361F8E770B504000D0034F039FB012361
:101A4000A340002D03D0D0221206536270BDD022D5
:101A500012069362FAE70000F0B593B0040001901B
:101A6000002305932E22002106A838F0F3FC08225B
:101A7000002103A838F0EEFC0B27002509E0310017
:101A800020003BF077FF002818D0002F01D0013F45
:101A9000FFB2002F12D0BB008B4A9E5830003BF0A3
:101AA00009FF02000500019C2378002BE7D0317864
:101AB0009942E4D00134F7E701341D006B1E002D7C
:101AC000FAD12278002A03D0202A01D10134F8E784
:101AD0003A000B2F00D9EEE0BF007C4BDB599F464C
:101AE0007B497C4837F0FEFB0220FFF727F80020F7
:101AF00013B0F0BD0322210005A83BF075FF237849
:101B0000303BDBB2082B09D9734B1A787349714803
:101B100037F0E8FB0220FFF711F8E8E720003BF080
:101B20009BFBC0B26C4B18700928EDD909221A70C2
:101B3000EAE76B4B01221A70D9E76A4B01221A704F
:101B4000D5E705AD1E22210028003BF04DFF2B7884
:101B5000312B1CD1644A137802210B4313700423E8
:101B60001A00013BDBB2002AFAD1604C06A9200022
:101B70003BF098FE5E4920003BF06CFF22005D497F
:101B8000544837F0AFFB0220FEF7D8FFAFE705AAB5
:101B90005949504837F0A6FB0220FEF7CFFFA6E7D1
:101BA0000322564920003BF0E5FE002805D1544AA7
:101BB000082311680B43136099E704225149200060
:101BC0003BF0D8FE002805D14D4A022311680B4393
:101BD00013608CE703224C4920003BF0CBFE002829
:101BE00005D1474A042311680B4313607FE70322A2
:101BF000464920003BF0BEFE002808D1404A0123A0
:101C000011680B431360424838F060FD6FE74148AC
:101C100038F05CFD6BE70322210005A83BF0E4FEF1
:101C200005A83BF019FB632800D960E7012810D014
:101C3000394A0823116899431160002801D0374BB5
:101C4000D861354B1A68354BD969354838F06EFD87
:101C50004DE7314A082311680B431360EDE7314B20
:101C60001B78002B06D02F4B00221A702E4838F01C
:101C70005DFD3CE72B4B01221A702C4838F056FDD5
:101C800035E72B4B00221A602A4838F04FFD2EE72B
:101C90000124A2000C4BD25827490E4837F022FBF2
:101CA0000220FEF74BFF0134E4B20A2CF1D923489D
:101CB00038F00CFD1BE72249064837F013FB0220E1
:101CC000FEF73CFF13E7C046500C0020E4E1031090
:101CD0001CE1031068500020AB64002028E10310D1
:101CE000B6640020B5640020C0640020BC2A002037
:101CF00038E8031034E103103CE1031010E803104E
:101D0000E01E002044E1031020E803104CE1031022
:101D100050E1031064E103100C2B0020381E00205A
:101D200084E10310CF64002094E10310A4E10310C8
:101D3000081F0020B4E10310C0E10310DCE0031031
:101D4000C8E10310F0B5DE4657464E464546E0B5BD
:101D500085B0634B5B681A0AD2B254215140C9B2B4
:101D6000DBB25940030030335BB24B40DBB2013889
:101D7000C0B25C4A127853405B4909784B405A40E4
:101D80005A4B1B7853405A4A12785A4058235843AA
:101D9000584B18180369190AC9B24A40DBB25340BC
:101DA0004269120AD2B253404269D2B25A408369A0
:101DB0001B0ADBB25A408369DBB25340C269110A85
:101DC000C9B24B40D1B25940036A1A0AD2B251404B
:101DD000DAB24A40436A1B0ADBB25A40436ADBB2BA
:101DE0005340826A120AD2B293465340826AD6B2F4
:101DF0007340C26A120AD2B292465340C26AD5B246
:101E00006B40026B120AD2B291465340026BD4B2BD
:101E10006340426B120AD2B290465340426BD1B239
:101E200000914B40826B120AD2B294465340826BAF
:101E3000D2B201925340C76B3A0AD7B202977B40A5
:101E4000C16BCAB203925340076C3F0AFFB27B409A
:101E5000016CCAB2534059464B40734051464B4007
:101E60005D4049464D406C4041464C4000996140C0
:101E700064466140019B5940029B5940039B594075
:101E80004F407A40436C1F0AFFB25740DAB27A40A3
:101E9000836C1F0E5740190CC9B24F401A0AD2B2B8
:101EA0007A40DBB25340C26C110AC9B24B40D2B285
:101EB00053404B405A40036D1B0ADBB25340026D46
:101EC000D2B25A40416D080AC0B24240C8B2504036
:101ED00005B0F0BCBB46B246A946A046F0BDC04620
:101EE000881E0020F50B00209C6400208833002011
:101EF000880C00207C23002082B000916B46185C87
:101F000002B0704782B000916B46185C02B0704717
:101F1000F0B5DE4657464E464546E0B5B1B0040042
:101F2000002317936022002118A838F093FAFC4B85
:101F30005E6831000120FFF7DFFF8046310000209E
:101F4000FFF7DAFF0600F74B1D78F74B1968002002
:101F5000FFF7D2FF0700F54B19680020FFF7CCFF11
:101F6000079006970595F24B1B7804930395230081
:101F70003033029301964346009354235522ED4992
:101F800017A837F0AFF9EC4D17AAEC49280037F045
:101F9000A9F96422002117A838F05CFA2000FFF7A5
:101FA000D1FE0C90013CE4B258204443E4480419AB
:101FB000266931000120FFF79FFF0D9031000020BE
:101FC000FFF79AFF0E90666931000120FFF794FF3A
:101FD0000F9031000020FFF78FFF1090A6693100AD
:101FE0000120FFF789FF119031000020FFF784FFE7
:101FF0001290E76939000120FFF77EFF06003900E3
:102000000020FFF779FF0700216A89460120FFF7CA
:1020100073FF804649460020FFF76EFF8146616AE4
:102020008B460120FFF768FF824659460020FFF7E4
:1020300063FF099051460891494607914146069130
:1020400005970496129903911199029110990191A3
:102050000F9900910E9B0D9ABA4917A837F042F9D3
:1020600017A928003BF0F8FB6422002117AB1800E9
:1020700038F0F0F9A66A31000120FFF73DFF0D901E
:1020800031000020FFF738FF0E90E66A3100012092
:10209000FFF732FF0F9031000020FFF72DFF109067
:1020A000266B31000120FFF727FF1190310000203F
:1020B000FFF722FF1290666B31000120FFF71CFF33
:1020C000139031000020FFF717FF1490A76B390021
:1020D0000120FFF711FF060039000020FFF70CFF79
:1020E0000700E16B88460120FFF706FF8146414665
:1020F0000020FFF701FF8246216C88460120FFF790
:10210000FBFE834641460020FFF7F6FE8E498846D7
:102110000B9059460A9151460991494608910797F3
:1021200006961499059113990491129903911199A6
:102130000291109901910F9900910E9B0D9A4146C1
:1021400017A837F0CFF817A928003BF085FB6422C9
:10215000002117AB180038F07DF9A66A3100012084
:10216000FFF7CAFE0D9031000020FFF7C5FE0E906C
:10217000E66A31000120FFF7BFFE0F90310000201A
:10218000FFF7BAFE1090266B31000120FFF7B4FE76
:10219000119031000020FFF7AFFE1290666B310006
:1021A0000120FFF7A9FE139031000020FFF7A4FEE5
:1021B0001490A66B31000120FFF79EFE15903100B0
:1021C0000020FFF799FE0600E16B89460120FFF72A
:1021D00093FE070049460020FFF78EFE8146216CE2
:1021E0008B460120FFF788FE824659460020FFF704
:1021F00083FE0B9051460A9149460991089707962C
:1022000015990691149905911399049112990391C6
:1022100011990291109901910F9900910E9B0D9ABD
:10222000414617A837F05EF817A928003BF014FBC9
:102230006422002117AB180038F00CF9666C3100ED
:102240000120FFF759FE0D9031000020FFF754FEEA
:102250000E90A66C31000320FFF754FE0F90310062
:102260000220FFF74FFE109031000120FFF74AFED9
:10227000119031000020FFF745FE1290E76C390005
:102280000120FFF739FE060039000020FFF734FE79
:102290000700216D8A460120FFF734FE8146514632
:1022A0000020FFF72FFE8246616D8B460120FFF76D
:1022B00023FE040059460020FFF71EFE0B900A94EF
:1022C0005146099149460891079706960597049645
:1022D0001299039111990291109901910F9900910E
:1022E0000E9B0D9A414617A836F0FCFF17A928004F
:1022F0003BF0B2FA6422002117AB180038F0AAF8BC
:102300000C9A124917A836F0EDFF17A928003BF0E8
:10231000A3FA6422002117A838F09CF831B017E026
:10232000881E0020F50B002088330020880C002038
:102330009C6400203CE20310684C002014E203106F
:102340007C23002034E203102CE2031068E2031027
:10235000F0BCBB46B246A946A046F0BD10B5FFF79B
:10236000D7FD002309491A0011328A5C002A08D0DF
:1023700019000F31054A515CD1540133044A93428C
:10238000F0DD024A0021D15410BDC046684C002047
:10239000FD030000F0B5CE46474680B585B0274C1A
:1023A00021003BF057FB3AF057FF81462100002007
:1023B0003BF050FB3AF050FF8046210000203BF0FC
:1023C00049FB3AF049FF0700210000203BF042FBA7
:1023D0003AF042FF0500210000203BF03BFB3AF0C1
:1023E0003BFF0600210000203BF034FB3AF034FFB5
:1023F0000400134900203BF02DFB3AF02DFF011E95
:102400000DD0C2170320030013405B189B10920FDE
:1024100089180140891A0A01511AED187618039497
:1024200002960195009743464A460649064836F00B
:1024300059FF05B0C0BCB946B046F0BD74E2031008
:102440007CE2031084E20310A41D0020F0B5CE4608
:1024500000B592B0040001900023994605932E2206
:10246000002106A837F0F6FF0822002103A837F064
:10247000F1FF2227002509E0310020003BF07AFA25
:10248000002818D0002F01D0013FFFB2002F12D03A
:10249000BB00704A9E5830003BF00CFA0200050069
:1024A000019C2378002BE7D031789942E4D00134A5
:1024B000F7E701341D006B1E002DFAD12278002AA7
:1024C00003D0202A01D10134F8E73A00132F00D9B4
:1024D000B7E0BF00604BDB599F466049604836F06B
:1024E00001FF0220FEF72AFB002012B080BCB94693
:1024F000F0BD210005A83BF0D5F905A83AF0ACFEE7
:102500000200584B186058490B78012003430B70A8
:102510005649534836F0E6FE0220FEF70FFBE3E78C
:10252000514A137840210B431370DDE70322210049
:1025300005A83BF059FA2378303BDBB2082B08D9C9
:102540004A464B49464836F0CDFE0020FEF7F6FAE3
:10255000CAE720003AF080FEC3B29946092BEFD9B2
:1025600009239946ECE70322210005A83BF03CFA39
:102570002378302BB8D106223E49394837F070FF16
:102580000020FEF7DBFAAFE705AD1E222100280090
:102590003BF02AFA2B78312B1CD1334A13780221D5
:1025A0000B43137004231A00013BDBB2002AFAD15B
:1025B000314C06A920003BF075F9304920003BF072
:1025C00049FA22002E49264836F08CFE0220FEF7FA
:1025D000B5FA89E705AA2B49214836F083FE022087
:1025E000FEF7ACFA80E7204A137802210B43137000
:1025F0007AE7210005A83BF055F905A8FFF7CAFEC8
:10260000214917483BF04EF90220FEF797FA6BE795
:102610001E4A137801210B4313701D4838F086F8C9
:1026200062E70124A2000B4BD2581A490C4836F03D
:1026300059FE0220FEF782FA0134E4B2122CF1D9DD
:1026400052E71549064836F04DFE0220FEF776FAAD
:102650004AE7C046000C0020ECE203101CE1031026
:102660006850002088330020C0640020A0E20310DE
:10267000ACE20310B8E20310BC2A002038E80310D3
:1026800034E103103CE10310A41D0020D2640020BB
:10269000C0E20310C0E10310D0E20310002911D101
:1026A0000C4A0D4B1360591C116018700B4B1A68C3
:1026B0000B4B9A4205DD094B00221A60054B094A73
:1026C0001A607047034A1368591C11601870002281
:1026D0005A70EBE7F80B0020684C0020641D0020C6
:1026E000FE030000694C0020F0B5DE4657464E461A
:1026F0004546E0B5A5B0040000231593382200211B
:1027000016A837F0A7FEDF4F7B681A0AD2B254230F
:102710005A40D1B27B68DBB25940230030335BB200
:102720004B40DBB2013CE0B2D74A11784B40D74A6C
:10273000127853405940D64E33785940D54D2B78B6
:102740004B4058220C904243D3498A181469200AFE
:10275000C0B24340E1B2594053691B0ADBB2594051
:102760005369DBB24B409469210AC9B24B40E1B2D4
:102770005940D3691B0ADBB25940D369DBB24B40E5
:10278000146A210AC9B24B40E1B25940536A1B0A8C
:10279000DBB25940536ADBB24B40946A210ACCB297
:1027A000A3466340946AE4B2A4466340D46A210A13
:1027B000CCB20D946340D16AC9B20E914B40106BFC
:1027C000010AC8B20F904340116BC9B210914B403F
:1027D000506B010AC8B211904340516BC9B21291BB
:1027E0004B40906B010AC8B282464340916BCCB219
:1027F00013946340D06B010AC8B281464340D16B49
:10280000C8B24340116C090AC9B288464B40116CEA
:10281000C9B24B405C466340644663400D9C6340D4
:102820000E9C63400F9C6340109C6340119C63406E
:10283000129C634054466340139C5C404B465C4092
:102840006040434658404140536C180AC0B248406B
:10285000D9B24140906C030E4B40010CC9B25940B3
:10286000040AE4B26140C3B24B40D46C200AC0B247
:102870004340E1B24B4043405940136D1B0ADBB269
:102880004B40146DE1B25940526D130ADBB259400E
:10289000D2B24A400F9201215420FFF7FFFE0121DE
:1028A0002B20FFF7FBFE01215720FFF7F7FE012148
:1028B0005320FFF7F3FE01214F20FFF7EFFE012128
:1028C0005720FFF7EBFE01215220FFF7E7FE012121
:1028D0003D20FFF7E3FE01213020FFF7DFFE01215D
:1028E0002C20FFF7DBFE01213120FFF7D7FE01216D
:1028F0003320FFF7D3FE01213620FFF7CFFE012161
:102900002C20FFF7CBFE01214620FFF7C7FE012157
:102910004620FFF7C3FE01214620FFF7BFFE01213D
:102920004620FFF7BBFE7A68140A574B1F783168C0
:102930002868FF2318400790194006910597534DCA
:102940002978049103970C99313102911A40019230
:102950002340009354235522504915A836F0C2FC59
:10296000002406E015AB185D0121FFF797FE013446
:10297000E4B2132CF6D958230C9A53434649C9188C
:102980000B691A0A4869040AA3468C69250AAC46F1
:10299000CD692E0AB0460E6A370AB9464F6A390A1F
:1029A0008A46FF210B400A400F40099757460F40C7
:1029B00008970E4007964E460E4006960D40059528
:1029C00045460D4004950C40039464460C40029427
:1029D00008400190584601400091314915A836F051
:1029E00081FC002406E015AB185D0121FFF756FEBF
:1029F0000134E4B2172CF6D958220C9B5A43264BCB
:102A00009A18936A190A8C46D06A010A0D91146BC0
:102A1000210A0E91556B2E0AB046966B370AB946BD
:102A2000D76B390A8A46126C110A8B46FF210B407C
:102A3000109363460B409C460A400B925B460B404A
:102A40000A930F40099753460B4008930E40079690
:102A50004B460B4006930D40059543460B400493AF
:102A60000C4003940E9A0A400292084001900D9B7C
:102A700019400091109B62460A4915A836F032FCB5
:102A8000002418E0881E0020F50B00209C64002024
:102A900088330020880C00207C2300203CE20310B7
:102AA00034E203102CE2031015AB185D0121FFF78F
:102AB000F5FD0134E4B21B2CF6D958220C9B5A4385
:102AC000594B9A18936A190A8C46D06A010A0D91DB
:102AD000146B210A0E91556B2E0AB046966B370A7D
:102AE000B946D76B390A8A46126C110A8B46FF2108
:102AF0000B40109363460B409C460A400B925B468A
:102B00000B400A930F40099753460B4008930E4021
:102B100007964B460B4006930D40059543460B40E8
:102B200004930C4003940E9A0A40029208400190CC
:102B30000D9B19400091109B62463C4915A836F048
:102B4000D1FB002406E015AB185D0121FFF7A6FDBF
:102B50000134E4B21B2CF6D958270C9B5F43324B4F
:102B6000DF197B6C1A0A0C92B86C010E8B46010CB3
:102B70008A46010A8C46FC6C250AFF210D400C4058
:102B80003E6D320A90467F6D3A0A91460B400C9A90
:102B90000A400F400B974F460F400A970E40099688
:102BA00046460E40089607940695059404950840FD
:102BB00003906046084002905046014001915946FA
:102BC00000911A4915A836F08DFB002406E015ABDC
:102BD000185D0121FFF762FD0134E4B21B2CF6D928
:102BE000AA230F9A124915A836F07CFB002406E0B0
:102BF00015AB185D0121FFF751FD0134E4B2032C40
:102C0000F6D901210D20FFF749FD01210A20FFF728
:102C100045FD084B41221A7025B0F0BCBB46B246B8
:102C2000A946A046F0BDC0467C2300202CE203103C
:102C30005CE20310684C002010B5694B1B78DA0782
:102C400007D49A0714D4DA0622D49B0600D598E05C
:102C500010BD09226349644837F002FC0020FDF7EB
:102C60006DFF5F4A137801218B4313700020EFE75B
:102C70005E4B1A685E495C4836F034FB0020FDF775
:102C80005DFF574A137802218B4313700020DFE762
:102C9000584A117816296ED88A0057498A5897469B
:102CA0000124564B1C60564B1A6856494E4836F064
:102CB00019FB0020FDF742FF4E4B1C705EE04D4BB0
:102CC00002221A705AE0504B1B78002B11D01122AF
:102CD0004E49454837F0C4FB4B4B00221A704C4B11
:102CE00001321A70434B14321A700020FDF726FF90
:102CF00044E0484B1A6848493B4836F0F3FA3D4BEC
:102D000014221A70F1E73B4B03221A700120FFF7DF
:102D100025FB0020FDF712FF30E00120FFF7E4FC67
:102D20000020FDF70BFF334B03221A7026E00F2221
:102D30003A492D4837F094FB0020FDF7FFFE384B51
:102D400000221A702B4B04321A70364B1B78142B4E
:102D500014D9344B033A1A7010E010229343204ADE
:102D60001370264B00221A602E4B1B78142B02D9AD
:102D70002C4B01321A701F4B00221A701F4B18681F
:102D800066E71C4B1B78002B09D0012B15D00023C4
:102D9000184A1370194A1360184B186858E715221F
:102DA0002149114837F05CFB0020FDF7C7FE0123E5
:102DB000104A1370114A1360EEE714221B490A48A7
:102DC00037F04EFB0020FDF7B9FE0023094A1370CF
:102DD0000A4A1360024A137820218B431370D6E706
:102DE000BF6400203CE30310684C0020042B00204B
:102DF00048E30310E0640020E0E303108C6400204B
:102E0000800C002058E30310946400207CE303103E
:102E10009F6400208C0C002090E30310A4E30310B7
:102E2000AE640020850C0020B4E30310CCE3031053
:102E300010B5744B1A68744B1B68D31AFA218900B9
:102E40008B4239DB704B1A60704B1B68002B02D031
:102E5000013B6E4A13606E4B1B78012B0CD06B4B01
:102E60001B68002B28D16B4B1A78092A00D9C5E0C2
:102E70009300694AD3589F460023654A1370634AFA
:102E80001360ECE701210320FEF7D4FDD0231B06DD
:102E900008225A61614A137840218B431370604BBA
:102EA0003C221A603B3A594B1A6000235D490B6083
:102EB00058490A705C4A137010BDD0231B060822C3
:102EC0009A61524B073A1A60544B1B785B0603D544
:102ED000504B01321A70EFE7524A13680133136006
:102EE000142BE9DD4B4B00221A70E5E707224F490E
:102EF0004F4837F0B5FA0020FDF720FE0323434A80
:102F00001360444A1370D7E70A224A49484837F009
:102F1000A7FA0020FDF712FE40490B7804229343E4
:102F20000B703A4B032119603A4B1A70C4E70B221D
:102F300041493F4837F094FA0020FDF7FFFD374A3A
:102F4000137808218B431370304B03221A60314BE6
:102F500002321A70B0E71C223849354837F080FA3F
:102F60000020FDF7EBFD294B03221A60294B0332A9
:102F70001A70A1E7142232492D4837F071FA002067
:102F8000FDF7DCFD214B03221A60224B04321A703C
:102F900092E70C222B49264837F062FA0020FDF711
:102FA000CDFD1A4B03221A601A4B05321A7083E7C3
:102FB000164B0A221A60244B1B78002B05D0224B9B
:102FC00000221A70114B01321A60FFF735FE0028FB
:102FD00000D071E71D4B1B68042B02D81B4B052248
:102FE0001A600C4B09221A7066E7194B1B78002BEC
:102FF00000D161E7074B08221A705DE7054B0022FC
:103000001A7059E7F00B0020701E0020781E002077
:103010009F640020DF64002098E40310C064002057
:10302000101F0020301D0020AE6400203CE403107F
:10303000684C002044E4031050E403105CE40310E7
:1030400078E403108CE40310AF640020D01E00204D
:10305000BF64002010B56D4B1B78DA0713D49A07B4
:1030600020D4DA0648D49B0629D5694B1B78002B5F
:1030700000D1A7E0012B00D1B4E0654B00221A700B
:10308000644B18681BE009226349644837F0E8F98B
:103090000020FDF753FD5D4A137801218B43137027
:1030A00000200CE05A4B1B78002B09D0012B15D0C7
:1030B0000023584A1360564A1370564B186810BDC7
:1030C0000F225749554837F0CBF90020FDF736FD60
:1030D00001234F4A13704F4A1360EEE71022514903
:1030E0004E4837F0BDF90020FDF728FD474A137818
:1030F00002218B431370DBE7454B1A78162A5DD803
:103100009300494AD3589F46484B1A684849434858
:1031100036F0E8F801243E4B1C700020FDF70EFD50
:103120003C4B1C603B4B1868C9E70D2241493B48AA
:1031300037F096F9404B1B78002B06D0344B152204
:103140001A700020FDF7FAFCECE7314B16221A70DA
:10315000F7E72F4B03221A70E4E7374B00221A706F
:103160002B4B03321A700120FEF7D2FE0020FDF730
:10317000E5FCD7E70120FFF7B7FA0020FDF7DEFCFA
:10318000234B03221A70CDE70D222C49234837F038
:1031900067F90020FDF7D2FC1C4A137810218B43FD
:1031A000137000231B4A1360194A1370244B1B78B9
:1031B000142BB7D9224B01221A70B3E7144B00220B
:1031C0001A70AFE715221F49144837F049F900205B
:1031D000FDF7B4FC0E4A1378013313700D4B012236
:1031E0001A604DE7142218490C4837F039F90020CD
:1031F000FDF7A4FC064B64221A70044A13782021C0
:103200008B431370034B00221A6036E7BF64002023
:10321000E5640020886400203CE30310684C002033
:10322000C0E40310D0E4031020E50310800C00205C
:10323000E0E4031000E503109464002010E503109F
:10324000840C0020B4E30310CCE3031010B501009C
:10325000034836F047F80220FDF770FC10BDC04669
:103260006850002010B56B4B1A686B4B1B68D31A63
:10327000FA2189008B423CDB674B1A60674B1B6865
:10328000002B02D0013B654A1360654B1B78012B74
:103290000CD0624B1B68002B2BD1624B1A78072A8B
:1032A00000D9B2E09300604AD3589F4600235C4A9D
:1032B00013705A4A1360ECE701210320FEF7BAFBB2
:1032C00001210320FEF7A8FB584A137840218B43C5
:1032D0001370574B3C221A603B3A504B1A60002344
:1032E00054490B604F490A70534A88211160534A70
:1032F000137010BD00210320FEF78EFB474B012207
:103300001A604A4B1B785B0603D5464B01321A7094
:10331000EFE7484A136801331360142BE9DD414B92
:1033200000221A704648FFF791FFE2E7072245495D
:10333000454837F095F80020FDF700FC0323374A95
:103340001360384A1370D4E7092240493E4837F0E9
:1033500087F80020FDF7F2FB34490B7804229343F1
:103360000B702E4B032119602E4B1A70C1E70C22F3
:103370003749354837F074F80020FDF7DFFB2B4A5A
:10338000137802218B431370244B03221A60254BC0
:1033900002321A70ADE70B222E492B4837F060F845
:1033A000224A137808218B4313700020FDF7C6FBD7
:1033B0001A4B03221A601B4B03321A7099E7174B02
:1033C0000A221A60244B1B78002B05D0224B0022C6
:1033D0001A70124B01321A60FFF73CFE002800D031
:1033E00087E71E4B1B68042B02D81C4B05221A6072
:1033F0000C4B07221A707CE7194B1B78002B00D16D
:1034000077E7084B06221A7073E7064B00221A7002
:103410006FE7C046F00B00206C1E0020741E0020D9
:103420009F640020DE640020A4E50310C064002037
:103430000C1F00202C1D00208C0C0020AE640020EE
:103440007CE503103CE40310684C00208CE503107D
:1034500098E5031050E40310AF640020D01E002054
:10346000BF640020F0B5DE4657464E464546E0B5FF
:103470008BB01548047D457D867DC77D037E9C46C7
:10348000437E9846837E9946C37E9A46C3689B4690
:1034900082684168534608934B4607934346069318
:1034A000634605930497039602950194036900937C
:1034B0005B46064837F03AF90BB0F0BCBB46B24663
:1034C000A946A046F0BDC046881E002024E6031091
:1034D00030B583B0534B1A68534B1B68D31A092B72
:1034E00013DD514B1A60514B1A68172A00D994E02A
:1034F00093004F49CB589F464E4B00221A604E4BCB
:1035000004321A60494B033A1A6003B030BD474B8E
:1035100005221A60F9E7474A1368591C1160464AA8
:103520001268934203D2414B01221A60EDE73F4BF0
:103530000C221A60414B00221A70E6E73B4B032233
:103540001A60E2E700F07CF901003D4B18600200D0
:103550003C4837F0EBF8394B00221A70334B0C32F1
:103560001A60D2E7314B17221A60CEE7314D2B6833
:103570009800354C001900F00FF90200304B18602C
:1035800029688B001B590093304837F0CFF8274B40
:1035900016221A60B9E7274A1368591C1160264A97
:1035A0001268934203D2214B15221A60ADE71F4BDC
:1035B00003221A60264B00221A70A6E700F0F4F8E6
:1035C00001001F4B18600200224837F0AFF8174B7C
:1035D00003221A601E4B00221A7096E7FFF742FF83
:1035E000124A1368013313608FE701320F4B1A60E0
:1035F000104B00221A6088E7154B1B78012B08D06E
:103600000E4B1B78012B00D07FE7084B0D221A6070
:103610007BE7064B02221A60F2E7044B00221A6095
:1036200073E7C046F00B0020081E00209C1D002000
:10363000B8E60310102B0020FC2A0020B5640020FF
:10364000BC1E002088E603106854002098E6031092
:10365000B6640020ACE6031010B52A4B1A682A4B5A
:103660001B68D31A632B13DD274B1A60274B1B688B
:10367000022B23D00DDC002B17D0012B30D10133CE
:10368000224A1360224B00221A60224B03321A6036
:1036900010BD042B24D11E4A1368591E1160002B43
:1036A000F6DC1A4B00221A60F2E7D02212065268AA
:1036B0005202EDD40133154A1360E9E7154B1B683C
:1036C000002BE5D1144B00221A60104B04321A6013
:1036D0001248FFF7BBFD0E4BFA2252001A60D7E7E3
:1036E000162032F0E5FCD0231B068022D2039A621A
:1036F00001220021162032F0F3FB064B00221A6053
:10370000C6E7C046F00B00200C1E0020FC0B00207A
:10371000941D0020141F0020981D002018E703109E
:1037200010B50B490B4839F099FC0321082032F001
:10373000BFFB0321092032F0BBFB0022012108203E
:1037400032F0CEFB00220121092032F0C9FB10BD6E
:10375000A0860100900D002010B584B002AA0023BD
:1037600002931371040A14705070080A9070D1709B
:103770000449097800930433034839F09BFC04B0F2
:1037800010BDC046900C0020900D0020014BC01AC7
:10379000801070476854002010B50400FFF7F6FF52
:1037A0002168FFF7D9FF10BD80B51D4FBD44002330
:1037B00002931C4A002103A836F04CFE1A4A1B4B08
:1037C00051685960D168D960117D596191689960DB
:1037D00011691961517D9961917DD961D17D19621C
:1037E000117E5962517E9962917ED962D27E1A63AE
:1037F0000F4AD2699A6300239A1C0C49C85C02A93B
:1038000088540133142BF7DD0A4B197800230093F9
:10381000403302AA084839F04DFC084B9D4480BD56
:10382000F8F7FFFFFC070000881E00206854002006
:10383000381E0020900C0020900D00200808000089
:1038400070B5224CA54400250295214A002103A809
:1038500036F000FE1F4E31781F4C012300930133D8
:1038600002AA200039F026FC317800953E230A2276
:103870006A44200039F02AFC00239A1C02A9895CC2
:10388000164AD1540133142BF7DD1300144A59683A
:103890005160D968D160197D117599689160196975
:1038A0001161197E5175197F9175196AD175596A1F
:1038B0001176996A5176D96A9176196BD1769A6B9D
:1038C000084BDA61084B9D4470BDC046F8F7FFFF16
:1038D000FC070000900C0020900D00206854002090
:1038E000881E0020381E00200808000001280AD089
:1038F00002280ED0002800D07047D0231B0680225B
:1039000012025A61F8E7D0231B06802212029A6144
:10391000F2E7D0231B06802212025A61ECE710B5B1
:103920000F2032F0C5FBD024240680231B026362E3
:103930000E2032F0BDFB8023DB01636210BD00006E
:1039400030B583B001A90870C046C046C046D02437
:1039500024068025AD01A561C046C046C0460122AF
:1039600005483AF0DDFAC046C046C0466561C0462B
:10397000C046C04603B030BD0000044010B5D0239F
:103980001B068022D2019A61FFF7DAFF10BDF8B55D
:1039900004000F0015001E00802805D8802903D8D8
:1039A000802A01D8802B00D9F8BD1520FFF7E6FF4B
:1039B0006008FFF7E3FF68080138C0B2FFF7DEFFD9
:1039C0007520FFF7DBFF3800FFF7D8FF013EF0B2AC
:1039D000FFF7D4FFE8E710B5D0231B068022D20101
:1039E0005A61FFF7ADFF10BD30B58BB001A90F488C
:1039F0000B00020031CA31C331CA31C311CA11C32D
:103A000012881A800A4C2378C85CFFF7B7FF237826
:103A1000202B05D80133064A137000200BB030BDAF
:103A2000034B00221A700120F8E7C04600E903109A
:103A3000C764002070B5060080238022002100208A
:103A4000FFF7A5FF00250AE0AB01E318F05CFFF7E4
:103A5000C2FF0134A4B23F2CF6D90135ADB27F2D9F
:103A600001D80024F7E770BD70B584B00026029637
:103A7000012501954C4C00940423082204210520C3
:103A800031F08AFE02960195009405230A22052151
:103A9000052031F081FE02960195009406230C2248
:103AA0000621032031F078FE029601950094072349
:103AB0000C220721032031F06FFE0296019500943D
:103AC00008230D220821032031F066FE029601959D
:103AD000009409230D220921032031F05DFE029696
:103AE000019500940A230E220A21052031F054FE8C
:103AF0000296019500940B230F220B21052031F033
:103B00004BFE0296019500940C230F220C210520F8
:103B100031F042FE0296019500940D230F220D21F3
:103B2000052031F039FE0296019500940E230E22F5
:103B30000E21052031F030FE0296019500940F23EE
:103B40000D220F21032031F027FE029601950094EB
:103B500010230D221021032031F01EFE0296019544
:103B6000009411230C221121032031F015FE02963E
:103B70000195009412230C221221032031F00CFE37
:103B800002960195009413230A221321052031F097
:103B900003FE0296019500941423082214210520A7
:103BA00031F0FAFD04B070BDFFFF000070B584B0C5
:103BB0000026029601240194254D00950D235A22DA
:103BC0000C21502031F07EFE0296019400950D23C9
:103BD00046220C213C2031F075FE029401940095A0
:103BE0000A23782205216E2031F06CFE02960194A2
:103BF00000950D2378220C216E2031F063FE029493
:103C000001940095142378220F216E2031F05AFE82
:103C1000029601940095802380220121012031F039
:103C200051FEFFF721FF0B2301930094094B0A4A31
:103C300050210A2032F05CF80C2301930A3B0093D8
:103C4000064B074A5C210A2032F052F804B070BDDE
:103C5000FFFF0000B40C002044E80310AC0C00206F
:103C600050E80310F0B5C64600B584B0DF4B1A68C3
:103C70000D2A00D901E29300DD4AD3589F46DD4B5F
:103C80001A68DD4B1B68D31A9621C9008B4200DAF3
:103C9000FDE0D94B1A60FFF742FE0120FFF726FE38
:103CA000D24A136801331360F1E0D24B1A68D24B49
:103CB0001B68D31AC72B00DCE9E0CF4B1A60CF4852
:103CC00036F004FD0020FFF711FEC84A13680133E7
:103CD0001360DCE0C74B1A68C74B1B68D31A012B73
:103CE00000DCD4E0C44B1A60FFF77EFE012800D050
:103CF000CDE0BE4A136801331360C8E0BD4B1A68BB
:103D0000BD4B1B68D31AC72B00DCC0E0BA4B1A604E
:103D1000AF20FFF733FEBA4836F008FDB34A136808
:103D200001331360B3E0B34B1A68B34B1B68D31A6B
:103D3000C72B00DCABE0B04B1A608020800136F06E
:103D40006FFBB04B1860B04836F0C0FCA74A136850
:103D5000013313609BE0A74B1B68A74A12689B1AAC
:103D6000632B00DC93E0A74C2068002300938022A3
:103D7000802131F027FB102031F050FB206831F01A
:103D800047FB9C4B1A689C4B1A60984A1368013396
:103D900013607CE0974B1B68974A12689B1AFA22C3
:103DA0005200934273DB002031F02AFC8F4A1368E3
:103DB000013313606BE0954836F088FC944D012484
:103DC000009401232A000A21142031F075FC00948C
:103DD00002232A000A211E2031F06EFC00940323E6
:103DE0002A000A21282031F067FC0026029601945F
:103DF000009514230A220A210A2031F0CDFC0296F4
:103E0000019400951E2314221421142031F0C4FCC7
:103E100002940194009528231E221E211E2031F0B9
:103E2000BBFC0294019400953223282228212820EB
:103E300031F0B2FC019600942B000F221E213C2091
:103E400031F0A8FD019400942B0014222821642055
:103E500031F0A0FD02960194009528233C221E21FA
:103E6000322031F02FFD02940194009632236E220D
:103E70001E215A2031F026FD664836F027FC5D4BA6
:103E80001A685D4B1A60594A13680133136004B015
:103E900080BCB846F0BD574B1B68574A12689B1A46
:103EA000FA22D2009342F2DB00211AE08DB24B1CC1
:103EB0001C00DB009BB2C900002702970126019677
:103EC000534A00927F22002031F0FCFCA3009BB2F9
:103ED000A9000296019600977F22002031F0F2FCA3
:103EE000E1B20F29E2D9434B1A68434B1A603F4AAB
:103EF000136801331360CAE73E4B1B683E4A1268E1
:103F00009B1AFA22D2009342C1DB002031F078FBE9
:103F1000414C0B2301930A3B009323003F4A50215D
:103F20000A2031F0E5FE0C2301930A3B00933C4B41
:103F30003C4A5C210A2031F0DBFE0D2303930A3B4F
:103F4000029304250195384B0093384A384B64217D
:103F50000A2031F011FF0E2303930295093B0193D0
:103F600000940022334B74210A2031F005FF254BC9
:103F70001868FFF75FFD1F4B1A681F4B1A601B4A3A
:103F800013680133136082E71A4B1A681A4B1B68D7
:103F9000D31AFA21C9008B4200DA78E7164B1A606F
:103FA000254B1B78012B0CD0244B1B68002B0CD00D
:103FB000234B1B681B0700D469E70C4B0E221A60C9
:103FC00065E70A4B0B221A60EEE7084B0C221A60D9
:103FD000AE20FFF7D3FCEBE7174B00221A70FFF778
:103FE000E5FD024B0A221A6051E7C046C840002096
:103FF000C8E80310F00B0020601D00205CE80310EF
:1040000078E803102417002080E80310A8E80310C4
:10401000FFFF0000B8E80310B40C002044E80310D0
:10402000AC0C002050E80310A40C00200B0BEE0792
:104030003CDD5E400C242E41B7640020081F0020A8
:10404000E01E0020194B1B68194A12689B1AFA22BD
:104050005200934200DA1AE7164BE83AFF3A1A6028
:1040600015E7154B1B68002B00D110E7AF20FFF7B9
:1040700085FC104B0A221A6009E70C4B1A680C4B9E
:104080001B68D31AFA21C9008B4200DAFFE6084BFD
:104090001A600A4B1B681A0700D4F8E6054A00218B
:1040A000116008229343054A1360F0E6F00B0020EC
:1040B000601D0020C8400020081F0020E01E0020D6
:1040C000014B18787047C046B0640020054A136859
:1040D000591C1160044AD054044B1A78504018708F
:1040E0007047C04658480020C8430020A264002002
:1040F000054A1368591C1160044AD054044B1A78BD
:10410000504018707047C04664480020C8460020E0
:10411000A3640020000208187047000010B5034C8B
:10412000207061706260237210BDC046CC400020D8
:1041300070B50600084800220AE0040AFF231C406C
:10414000B55C684003409B00044D58596040013203
:104150008A42F2D370BDC046FFFF0000143F041036
:1041600010B50A00022827D012D8002815D001283F
:1041700021D1134B1970134C1349200035F0B2F8BC
:104180001249200039F068FB0020FCF7D7FC12E050
:10419000032810D10E4B19700DE00E4B19700E4C08
:1041A0000949200035F09EF80C49200039F054FBF5
:1041B0000B4B01221A7010BD0A4B1970FBE7C04669
:1041C00097640020684C002024E903104845002033
:1041D000996400209664002068480020C8430020AD
:1041E000E16400209864002010B501000020FFF772
:1041F000B7FF10BD10B5E54B1A68A02A01D902F02F
:1042000075FA9300E249CB589F460132DF4B1A60A2
:10421000E04B1B78632B37D80133DE4A1370DE4C3A
:104220000122DE49200035F05DF801232200102133
:104230000420FFF773FFDA4BDA4A1A6024E0002407
:10424000D94B1C705020FFF741FF3020FFF73EFF95
:104250003020FFF73BFF3020FFF738FF4D20FFF7FE
:1042600035FF4F20FFF732FF4420FFF72FFFCF4BE2
:1042700001221A70CE4B1C705E210020FFF770FFE8
:10428000C24A13680133136010BD0024C64B1C7072
:104290005020FFF71BFF3020FFF718FF3020FFF7FB
:1042A00015FF3020FFF712FF5320FFF70FFF5420B8
:1042B000FFF70CFF3120FFF709FFBC4B01221A70FA
:1042C000BB4B1C705E210020FFF74AFFAF4A13680A
:1042D00001331360D8E70024B34B1C705020FFF764
:1042E000F5FE3020FFF7F2FE3020FFF7EFFE302022
:1042F000FFF7ECFE5320FFF7E9FE5420FFF7E6FE40
:104300003220FFF7E3FEA94B01221A70A84B1C7064
:104310005E210020FFF724FF9C4A136801331360DD
:10432000B2E70024A04B1C705020FFF7CFFE3020D6
:10433000FFF7CCFE3020FFF7C9FE3020FFF7C6FEA6
:104340005320FFF7C3FE5420FFF7C0FE3320FFF7D2
:10435000BDFE964B01221A70954B1C705E21002009
:10436000FFF7FEFE894A1368013313608CE70024CF
:104370008D4B1C705020FFF7A9FE3020FFF7A6FEE2
:104380003020FFF7A3FE3020FFF7A0FE5320FFF7F9
:104390009DFE5420FFF79AFE3420FFF797FE834BD3
:1043A00001221A70824B1C705E210020FFF7D8FE9C
:1043B000764A13680133136066E700247A4B1C7059
:1043C0005020FFF783FE3020FFF780FE3020FFF7FC
:1043D0007DFE3020FFF77AFE5320FFF777FE542052
:1043E000FFF774FE3620FFF771FE704B01221A7042
:1043F0006F4B1C705E210020FFF7B2FE634A13680A
:104400000133136040E70132604B1A603CE7694BAF
:104410001B78012B1ED95F4B5B78632B07D9664B4A
:10442000FA221A60594A1368013313602CE70133EA
:10443000584A5370584C02225849200034F052FF19
:104440000123220010210420FFF768FE544B554A37
:104450001A60E4E74D4B00221A6015E70124524B25
:104460001C705020FFF732FE3020FFF72FFE302067
:10447000FFF72CFE3120FFF729FE4D20FFF726FE27
:104480004F20FFF723FE4420FFF720FE474B1C7010
:10449000474B00221A705E210020FFF761FE3B4A65
:1044A000136801331360EFE601243F4B1C7050206A
:1044B000FFF70CFE3020FFF709FE3020FFF706FE65
:1044C0003120FFF703FE5320FFF700FE5420FFF7D3
:1044D000FDFD3120FFF7FAFD344B1C70344B0022F8
:1044E0001A705E210020FFF73BFE284A1368013353
:1044F0001360C9E601242C4B1C705020FFF7E6FD29
:104500003020FFF7E3FD3020FFF7E0FD3120FFF71B
:10451000DDFD5320FFF7DAFD5420FFF7D7FD3220F1
:10452000FFF7D4FD214B1C70214B00221A705E2135
:104530000020FFF715FE154A136801331360A3E648
:104540000124194B1C705020FFF7C0FD3020FFF7ED
:10455000BDFD3020FFF7BAFD3120FFF7B7FD532036
:10456000FFF7B4FD5420FFF7B1FD3320FFF7AEFD98
:104570000E4B1C700E4B00221A705E210020FFF7BC
:10458000EFFD024A1368013313607DE6B82A00206C
:1045900060E90310DC4100203043002028E90310CB
:1045A000983F0020C4090000B964002095640020F1
:1045B000DB640020980C0020944300200124EC4B85
:1045C0001C705020FFF782FD3020FFF77FFD302068
:1045D000FFF77CFD3120FFF779FD5320FFF776FDD3
:1045E0005420FFF773FD3420FFF770FDE14B1C7082
:1045F000E14B00221A705E210020FFF7B1FDDF4A77
:104600001368013313603FE60124D94B1C7050201E
:10461000FFF75CFD3020FFF759FD3020FFF756FD16
:104620003120FFF753FD5320FFF750FD5420FFF7D3
:104630004DFD3620FFF74AFDCE4B1C70CE4B0022BD
:104640001A705E210020FFF78BFDCC4A13680133FE
:10465000136019E60132C94B1A6015E6C84B1B7886
:10466000022B1ED9C74B9B78632B07D9C64BFA2266
:104670001A60C24A13680133136005E60133C14A68
:104680009370C24C0322C249200034F02BFE012358
:10469000220010210420FFF741FDBE4BBE4A1A60E4
:1046A000E4E7B64B00221A60EEE5B14B02221A7025
:1046B0005020FFF70BFD3020FFF708FD3020FFF7FB
:1046C00005FD3220FFF702FD4D20FFF7FFFC4F20D4
:1046D000FFF7FCFC4420FFF7F9FCA64B01221A70FF
:1046E000A54B00221A705E210020FFF739FDA34A76
:1046F000136801331360C7E59D4B02221A705020E6
:10470000FFF7E4FC3020FFF7E1FC3020FFF7DEFC90
:104710003220FFF7DBFC5320FFF7D8FC5420FFF7D3
:10472000D5FC3120FFF7D2FC924B01221A70924B3C
:1047300000221A705E210020FFF712FD8F4A1368D5
:1047400001331360A0E58A4B02221A705020FFF754
:10475000BDFC3020FFF7BAFC3020FFF7B7FC322059
:10476000FFF7B4FC5320FFF7B1FC5420FFF7AEFC79
:104770003220FFF7ABFC7F4B01221A707E4B0022E8
:104780001A705E210020FFF7EBFC7C4A13680133AE
:10479000136079E5764B02221A705020FFF796FCE1
:1047A0003020FFF793FC3020FFF790FC3220FFF71A
:1047B0008DFC5320FFF78AFC5420FFF787FC332041
:1047C000FFF784FC6B4B01221A706B4B00221A70AE
:1047D0005E210020FFF7C4FC684A136801331360B0
:1047E00052E5634B02221A705020FFF76FFC302015
:1047F000FFF76CFC3020FFF769FC3220FFF766FC06
:104800005320FFF763FC5420FFF760FC3420FFF7D0
:104810005DFC584B01221A70574B00221A705E2122
:104820000020FFF79DFC554A1368013313602BE508
:104830004F4B02221A705020FFF748FC3020FFF740
:1048400045FC3020FFF742FC3220FFF73FFC5320AD
:10485000FFF73CFC5420FFF739FC3620FFF736FC0D
:10486000444B01221A70444B00221A705E21002032
:10487000FFF776FC414A13680133136004E5013207
:104880003E4B1A6000E53E4B1B78032B1ED93D4B77
:10489000DB78632B07D93C4BFA221A60374A13683E
:1048A00001331360F0E40133364AD370374C0422ED
:1048B0003749200034F016FD012322001021042086
:1048C000FFF72CFC334B344A1A60E4E72B4B0022F1
:1048D0001A60D9E4264B03221A705020FFF7F6FB2A
:1048E0003020FFF7F3FB3020FFF7F0FB3320FFF71A
:1048F000EDFB4D20FFF7EAFB4F20FFF7E7FB4420DD
:10490000FFF7E4FB1B4B01221A701B4B00221A70AD
:104910005E210020FFF724FC184A1368013313605E
:10492000B2E4134B03221A705020FFF7CFFB302064
:10493000FFF7CCFB3020FFF7C9FB3320FFF7C6FBA6
:104940005320FFF7C3FB5420FFF7C0FB3120FFF7D4
:10495000BDFB084B01221A70074B00221A705E2122
:104960000020FFF7FDFB054A1368013313608BE459
:10497000B964002095640020DB640020B82A002080
:10498000980C0020DC41002094430020304300209C
:1049900028E90310983F0020C4090000F44B0322CB
:1049A0001A705020FFF792FB3020FFF78FFB30206A
:1049B000FFF78CFB3320FFF789FB5320FFF786FBC3
:1049C0005420FFF783FB3220FFF780FBE94B0122E5
:1049D0001A70E94B00221A705E210020FFF7C0FB1D
:1049E000E64A1368013313604EE4E14B03221A7068
:1049F0005020FFF76BFB3020FFF768FB3020FFF7FC
:104A000065FB3320FFF762FB5320FFF75FFB542069
:104A1000FFF75CFB3320FFF759FBD64B01221A70DE
:104A2000D54B00221A705E210020FFF799FBD34A74
:104A300013680133136027E4CD4B03221A70502012
:104A4000FFF744FB3020FFF741FB3020FFF73EFB30
:104A50003320FFF73BFB5320FFF738FB5420FFF7D1
:104A600035FB3420FFF732FBC24B01221A70C24BD8
:104A700000221A705E210020FFF772FBBF4A136804
:104A800001331360FFF700FCB94B03221A7050206A
:104A9000FFF71CFB3020FFF719FB3020FFF716FB58
:104AA0003320FFF713FB5320FFF710FB5420FFF7D1
:104AB0000DFB3620FFF70AFBAE4B01221A70AE4BFE
:104AC00000221A705E210020FFF74AFBAB4A1368F0
:104AD00001331360FFF7D8FB0132A84B1A60FFF7D0
:104AE000D3FBA74B1B78042B1FD9A64B1B79632B39
:104AF00008D9A54BFA221A60A04A13680133136043
:104B0000FFF7C2FB01339F4A1371A04C0522A04955
:104B1000200034F0E7FB0123220010210420FFF7DE
:104B2000FDFA9C4B9C4A1A60E3E7944B00221A6002
:104B3000FFF7AAFB8E4B04221A705020FFF7C6FA2B
:104B40003020FFF7C3FA3020FFF7C0FA3420FFF718
:104B5000BDFA4D20FFF7BAFA4F20FFF7B7FA44200D
:104B6000FFF7B4FA834B01221A70834B00221A70AC
:104B70005E210020FFF7F4FA804A136801331360C6
:104B8000FFF782FB7A4B04221A705020FFF79EFA3F
:104B90003020FFF79BFA3020FFF798FA3420FFF718
:104BA00095FA5320FFF792FA5420FFF78FFA31203D
:104BB000FFF78CFA6F4B01221A706F4B00221A70AC
:104BC0005E210020FFF7CCFA6C4A136801331360B2
:104BD000FFF75AFB664B04221A705020FFF776FA53
:104BE0003020FFF773FA3020FFF770FA3420FFF718
:104BF0006DFA5320FFF76AFA5420FFF767FA322064
:104C0000FFF764FA5B4B01221A705B4B00221A70AB
:104C10005E210020FFF7A4FA584A1368013313609D
:104C2000FFF732FB524B04221A705020FFF74EFA66
:104C30003020FFF74BFA3020FFF748FA3420FFF717
:104C400045FA5320FFF742FA5420FFF73FFA33208A
:104C5000FFF73CFA474B01221A70474B00221A70AB
:104C60005E210020FFF77CFA444A13680133136089
:104C7000FFF70AFB3E4B04221A705020FFF726FA7A
:104C80003020FFF723FA3020FFF720FA3420FFF717
:104C90001DFA5320FFF71AFA5420FFF717FA3420B1
:104CA000FFF714FA334B01221A70334B00221A70AB
:104CB0005E210020FFF754FA304A13680133136075
:104CC000FFF7E2FA2A4B04221A705020FFF7FEF990
:104CD0003020FFF7FBF93020FFF7F8F93420FFF719
:104CE000F5F95320FFF7F2F95420FFF7EFF93620DA
:104CF000FFF7ECF91F4B01221A701F4B00221A70AC
:104D00005E210020FFF72CFA1C4A13680133136060
:104D1000FFF7BAFA0132194B1A60FFF7B5FA184BD0
:104D20001B78052B1FD9174B5B79632B08D9164BC2
:104D3000FA221A60114A136801331360FFF7A4FACC
:104D40000133104A5371114C06221149200034F0EE
:104D5000C9FA0123220010210420FFF7DFF90D4BCF
:104D60000D4A1A60E3E7054B00221A60FFF78CFA40
:104D7000B964002095640020DB640020B82A00207C
:104D8000980C0020DC410020944300203043002098
:104D900028E90310983F0020C4090000F24B0522C7
:104DA0001A705020FFF792F93020FFF78FF930206A
:104DB000FFF78CF93520FFF789F94D20FFF786F9C9
:104DC0004F20FFF783F94420FFF780F9E74B0122DA
:104DD0001A70E74B00221A705E210020FFF7C0F91D
:104DE000E44A136801331360FFF74EFADE4B0522E5
:104DF0001A705020FFF76AF93020FFF767F930206A
:104E0000FFF764F93520FFF761F95320FFF75EF9EA
:104E10005420FFF75BF93120FFF758F9D34B0122FB
:104E20001A70D34B00221A705E210020FFF798F908
:104E3000D04A136801331360FFF726FACA4B0522E4
:104E40001A705020FFF742F93020FFF73FF9302069
:104E5000FFF73CF93520FFF739F95320FFF736F912
:104E60005420FFF733F93220FFF730F9BF4B01220E
:104E70001A70BF4B00221A705E210020FFF770F9F4
:104E8000BC4A136801331360FFF7FEF9B64B0522E5
:104E90001A705020FFF71AF93020FFF717F9302069
:104EA000FFF714F93520FFF711F95320FFF70EF93A
:104EB0005420FFF70BF93320FFF708F9AB4B012221
:104EC0001A70AB4B00221A705E210020FFF748F9E0
:104ED000A84A136801331360FFF7D6F9A24B0522E5
:104EE0001A705020FFF7F2F83020FFF7EFF830206B
:104EF000FFF7ECF83520FFF7E9F85320FFF7E6F865
:104F00005420FFF7E3F83420FFF7E0F8974B012235
:104F10001A70974B00221A705E210020FFF720F9CB
:104F2000944A136801331360FFF7AEF98E4B0522E4
:104F30001A705020FFF7CAF83020FFF7C7F830206A
:104F4000FFF7C4F83520FFF7C1F85320FFF7BEF88C
:104F50005420FFF7BBF83620FFF7B8F8834B012247
:104F60001A70834B00221A705E210020FFF7F8F8B8
:104F7000804A136801331360FFF786F901327D4BD5
:104F80001A60FFF781F97C4B1B78062B1FD97B4BEE
:104F90009B79632B08D97A4BFA221A60754A1368F9
:104FA00001331360FFF770F90133744A9371754C44
:104FB00007227549200034F095F9012322001021C1
:104FC0000420FFF7ABF8714B714A1A60E3E7694BB5
:104FD00000221A60FFF758F9634B06221A7050201E
:104FE000FFF774F83020FFF771F83020FFF76EF804
:104FF0003620FFF76BF84D20FFF768F84F20FFF7DA
:1050000065F84420FFF762F8584B01221A70584B9C
:1050100000221A705E210020FFF7A2F8554A13689B
:1050200001331360FFF730F94F4B06221A705020FE
:10503000FFF74CF83020FFF749F83020FFF746F82B
:105040003620FFF743F85320FFF740F85420FFF7CE
:105050003DF83120FFF73AF8444B01221A70444BD7
:1050600000221A705E210020FFF77AF8414A136887
:1050700001331360FFF708F93B4B06221A705020EA
:10508000FFF724F83020FFF721F83020FFF71EF853
:105090003620FFF71BF85320FFF718F85420FFF7CE
:1050A00015F83220FFF712F8304B01221A70304BFE
:1050B00000221A705E210020FFF752F82D4A136873
:1050C00001331360FFF7E0F8274B06221A705020D7
:1050D000FEF7FCFF3020FEF7F9FF3020FEF7F6FF69
:1050E0003620FEF7F3FF5320FEF7F0FF5420FEF7C3
:1050F000EDFF3320FEF7EAFF1C4B01221A701C4B18
:1051000000221A705E210020FFF72AF8194A13685E
:1051100001331360FFF7B8F8134B06221A705020C2
:10512000FEF7D4FF3020FEF7D1FF3020FEF7CEFF90
:105130003620FEF7CBFF5320FEF7C8FF5420FEF7C2
:10514000C5FF3420FEF7C2FF084B01221A70084B3E
:1051500000221A705E210020FFF702F8054A13684A
:1051600001331360FFF790F8B964002095640020C4
:10517000DB640020B82A0020980C0020DC410020CD
:10518000944300203043002028E90310983F00207A
:10519000C4090000F54B06221A705020FEF796FF56
:1051A0003020FEF793FF3020FEF790FF3620FEF709
:1051B0008DFF5320FEF78AFF5420FEF787FF36202D
:1051C000FEF784FFEA4B01221A70EA4B00221A70A4
:1051D0005E210020FEF7C4FFE74A13680133136025
:1051E000FFF752F80132E44B1A60FFF74DF8E34B3A
:1051F0001B78072B1FD9E24BDB79632B08D9E14BD6
:10520000FA221A60DC4A136801331360FFF73CF896
:105210000133DB4AD371DC4C0822DC49200034F036
:1052200061F80123220010210420FEF777FFD84BFC
:10523000D84A1A60E3E7D04B00221A60FFF724F83F
:10524000CA4B07221A705020FEF740FF3020FEF7AD
:105250003DFF3020FEF73AFF3720FEF737FF4D20A5
:10526000FEF734FF4F20FEF731FF4420FEF72EFFFC
:10527000BF4B01221A70BF4B00221A705E21002022
:10528000FEF76EFFBC4A136801331360FEF7FCFFA4
:10529000B64B07221A705020FEF718FF3020FEF799
:1052A00015FF3020FEF712FF3720FEF70FFF5320C7
:1052B000FEF70CFF5420FEF709FF3120FEF706FF32
:1052C000AB4B01221A70AB4B00221A705E210020FA
:1052D000FEF746FFA84A136801331360FEF7D4FFB8
:1052E000A24B07221A705020FEF7F0FE3020FEF786
:1052F000EDFE3020FEF7EAFE3720FEF7E7FE5320F2
:10530000FEF7E4FE5420FEF7E1FE3220FEF7DEFE5B
:10531000974B01221A70974B00221A705E210020D1
:10532000FEF71EFF944A136801331360FEF7ACFFCB
:105330008E4B07221A705020FEF7C8FE3020FEF771
:10534000C5FE3020FEF7C2FE3720FEF7BFFE532019
:10535000FEF7BCFE5420FEF7B9FE3320FEF7B6FE82
:10536000834B01221A70834B00221A705E210020A9
:10537000FEF7F6FE804A136801331360FEF784FFE0
:105380007A4B07221A705020FEF7A0FE3020FEF75D
:105390009DFE3020FEF79AFE3720FEF797FE532041
:1053A000FEF794FE5420FEF791FE3420FEF78EFEA9
:1053B0006F4B01221A706F4B00221A705E21002081
:1053C000FEF7CEFE6C4A136801331360FEF75CFFF4
:1053D000664B07221A705020FEF778FE3020FEF749
:1053E00075FE3020FEF772FE3720FEF76FFE532069
:1053F000FEF76CFE5420FEF769FE3620FEF766FECF
:105400005B4B01221A705B4B00221A705E21002058
:10541000FEF7A6FE584A136801331360FEF734FF07
:105420000132554B1A60FEF72FFF544B1B78082BA7
:105430001FD9534B1B7A632B08D9524BFA221A609F
:105440004D4A136801331360FEF71EFF01334C4AC7
:1054500013724D4C09224D49200033F043FF0123C4
:10546000220010210420FEF759FE494B494A1A60D8
:10547000E3E7414B00221A60FEF706FF3B4B082290
:105480001A705020FEF722FE3020FEF71FFE30205B
:10549000FEF71CFE3820FEF719FE4D20FEF716FE23
:1054A0004F20FEF713FE4420FEF710FE304B012282
:1054B0001A70304B00221A705E210020FEF750FE59
:1054C0002D4A136801331360FEF7DEFE274B0822D6
:1054D0001A705020FEF7FAFD3020FEF7F7FD30205D
:1054E000FEF7F4FD3820FEF7F1FD5320FEF7EEFD48
:1054F0005420FEF7EBFD3120FEF7E8FD1C4B0122A6
:105500001A701C4B00221A705E210020FEF728FE44
:10551000194A136801331360FEF7B6FE134B0822D5
:105520001A705020FEF7D2FD3020FEF7CFFD30205C
:10553000FEF7CCFD3820FEF7C9FD5320FEF7C6FD6F
:105540005420FEF7C3FD3220FEF7C0FD084B0122B8
:105550001A70084B00221A705E210020FEF700FE30
:10556000054A136801331360FEF78EFEB96400200C
:1055700095640020DB640020B82A0020980C0020ED
:10558000DC410020944300203043002028E9031030
:10559000983F0020C4090000F44B08221A705020E4
:1055A000FEF794FD3020FEF791FD3020FEF78EFDD2
:1055B0003820FEF78BFD5320FEF788FD5420FEF7C0
:1055C00085FD3320FEF782FDE94B01221A70E94B7D
:1055D00000221A705E210020FEF7C2FDE64A136821
:1055E00001331360FEF750FEE04B08221A70502082
:1055F000FEF76CFD3020FEF769FD3020FEF766FDFA
:105600003820FEF763FD5320FEF760FD5420FEF7BF
:105610005DFD3420FEF75AFDD54B01221A70D54BA3
:1056200000221A705E210020FEF79AFDD24A13680C
:1056300001331360FEF728FECC4B08221A7050206D
:10564000FEF744FD3020FEF741FD3020FEF73EFD21
:105650003820FEF73BFD5320FEF738FD5420FEF7BF
:1056600035FD3620FEF732FDC14B01221A70C14BC9
:1056700000221A705E210020FEF772FDBE4A1368F8
:1056800001331360FEF700FE0132BB4B1A60FEF7D8
:10569000FBFDBA4B1B78092B1ED9B94B5B7A632BE8
:1056A00008D9B84BFA221A60B34A13680133136061
:1056B000FEF7EAFD0133B24A5372B34AB34B19689D
:1056C00011601B791371012310210420FEF726FDC0
:1056D000AF4BB04A1A60E4E7A74B00221A60FEF70E
:1056E000D3FDA24B09221A705020FEF7EFFC3020A8
:1056F000FEF7ECFC3020FEF7E9FC3920FEF7E6FC73
:105700004D20FEF7E3FC4F20FEF7E0FC4420FEF7BF
:10571000DDFC974B01221A70964B00221A705E2115
:105720000020FEF71DFD944A136801331360FEF755
:10573000ABFD8E4B09221A705020FEF7C7FC3020BB
:10574000FEF7C4FC3020FEF7C1FC3920FEF7BEFC9A
:105750005320FEF7BBFC5420FEF7B8FC3120FEF7C7
:10576000B5FC834B01221A70824B00221A705E2115
:105770000020FEF7F5FC804A136801331360FEF742
:1057800083FD7A4B09221A705020FEF79FFC3020CF
:10579000FEF79CFC3020FEF799FC3920FEF796FCC2
:1057A0005320FEF793FC5420FEF790FC3220FEF7C6
:1057B0008DFC6F4B01221A706E4B00221A705E2115
:1057C0000020FEF7CDFC6C4A136801331360FEF72E
:1057D0005BFD664B09221A705020FEF777FC3020E3
:1057E000FEF774FC3020FEF771FC3920FEF76EFCEA
:1057F0005320FEF76BFC5420FEF768FC3320FEF7C5
:1058000065FC5B4B01221A705A4B00221A705E2114
:105810000020FEF7A5FC584A136801331360FEF719
:1058200033FD524B09221A705020FEF74FFC3020F6
:10583000FEF74CFC3020FEF749FC3920FEF746FC11
:105840005320FEF743FC5420FEF740FC3420FEF7C3
:105850003DFC474B01221A70464B00221A705E2114
:105860000020FEF77DFC444A136801331360FEF705
:105870000BFD3E4B09221A705020FEF727FC30200A
:10588000FEF724FC3020FEF721FC3920FEF71EFC39
:105890005320FEF71BFC5420FEF718FC3620FEF7C1
:1058A00015FC334B01221A70324B00221A705E2114
:1058B0000020FEF755FC304A136801331360FEF7F1
:1058C000E3FC01322C4B1A60FEF7DEFC2B4B1B78FD
:1058D0000A2B1ED92A4B9B7A632B08D9294BFA2213
:1058E0001A60254A136801331360FEF7CDFC0133BB
:1058F000234A9372244A284B196811601B7913714B
:10590000012310210420FEF709FC214B214A1A60D3
:10591000E4E7194B00221A60FEF7B6FC134B0A228B
:105920001A705020FEF7D2FB3020FEF7CFFB31205B
:10593000FEF7CCFB3020FEF7C9FB4D20FEF7C6FB7F
:105940004F20FEF7C3FB4420FEF7C0FB084B0122AB
:105950001A70084B00221A705E210020FEF700FC2E
:10596000054A136801331360FEF78EFCB96400200A
:1059700095640020DB640020B82A0020980C0020E9
:10598000DC410020944300203043002030E9031024
:10599000983F0020C409000038E90310F34B0A22A5
:1059A0001A705020FEF792FB3020FEF78FFB31205B
:1059B000FEF78CFB3020FEF789FB5320FEF786FBB9
:1059C0005420FEF783FB3120FEF780FBE84B0122D9
:1059D0001A70E84B00221A705E210020FEF7C0FB0F
:1059E000E54A136801331360FEF74EFCDF4B0A22D1
:1059F0001A705020FEF76AFB3020FEF767FB31205B
:105A0000FEF764FB3020FEF761FB5320FEF75EFBE0
:105A10005420FEF75BFB3220FEF758FBD44B0122EB
:105A20001A70D44B00221A705E210020FEF798FBFA
:105A3000D14A136801331360FEF726FCCB4B0A22D0
:105A40001A705020FEF742FB3020FEF73FFB31205A
:105A5000FEF73CFB3020FEF739FB5320FEF736FB08
:105A60005420FEF733FB3320FEF730FBC04B0122FE
:105A70001A70C04B00221A705E210020FEF770FBE6
:105A8000BD4A136801331360FEF7FEFBB74B0A22D1
:105A90001A705020FEF71AFB3020FEF717FB31205A
:105AA000FEF714FB3020FEF711FB5320FEF70EFB30
:105AB0005420FEF70BFB3420FEF708FBAC4B012211
:105AC0001A70AC4B00221A705E210020FEF748FBD2
:105AD000A94A136801331360FEF7D6FBA34B0A22D1
