:020000041000EA
:1000000000B5324B212058609868022188439860DF
:10001000D860186158612E4B002199600221596106
:100020000121F02299502B49196001219960352056
:1000300000F044F80222904214D00621196600F024
:1000400034F8196E01211966002018661A6600F04E
:100050002CF8196E196E196E052000F02FF8012189
:100060000842F9D1002199601B49196000215960AB
:100070001A491B48016001219960EB211966A021F2
:10008000196600F012F800219960164914480160C1
:100090000121996001BC002800D000471248134993
:1000A000086003C880F30888084703B5996A0420EC
:1000B0000142FBD001200142F8D103BD02B5186610
:1000C0001866FFF7F2FF186E186E02BD00000240BE
:1000D000000000180000070000035F00212200005C
:1000E000F4000018222000A00001001008ED00E03C
:1000F00000000000000000000000000074B24E7A12
:1001000000200420F7010010C3010010C5010010F9
:10011000C1010010C1010010C1010010C101001097
:10012000C1010010C1010010C1010010C701001081
:10013000C1010010C1010010C9010010CB01001065
:10014000CD010010CD010010CD010010CD01001037
:10015000CD010010CD010010CD010010CD01001027
:10016000CD010010CD010010CD010010CD01001017
:10017000CD010010CD010010CD010010CD01001007
:10018000CD010010CD010010CD010010CD010010F7
:10019000CD010010CD010010CD010010CD010010E7
:1001A000CD010010CD010010CD010010CD010010D7
:1001B000CD010010CD010010CD010010CD010010C7
:1001C00000BE00BE00BE00BE00BE00BEEFF3058054
:1001D000103800BEF2EB8871105004103C5004102F
:1001E0003402001090A31AE700201F49086006C8D7
:1001F00081F3088810471D48006800282FD10DA4FE
:100200000ECC002902D000F012F8F9E71849194A7B
:10021000002000E001C19142FCD1174988471749ED
:1002200088471749884700BEFDE701C901C29A42C5
:10023000FBD370473C500410C00000201818002069
:100240009467041000000420000004209467041048
:10025000001004200010042000000000704709482E
:1002600038F062FD0047000008ED00E0000000D01B
:100270001818002054650020B97503104D130010A4
:10028000E17603105756000006005250ABB360539E
:10029000D04C041006005250861C0302E04C04109F
:1002A000060052505422A29DE84C04100500525002
:1002B000DE65F46894670410F8B5C04610B5064CC6
:1002C0002378002B07D1054B002B02D0044800E017
:1002D00000BF0123237010BD281B00200000000078
:1002E00098D50310044B10B5002B03D003490448E4
:1002F00000E000BF10BDC046000000002C1B002025
:1003000098D50310024A1368013313607047C04642
:10031000D82E00200123024A1360024A137070474E
:10032000347005400F6500201B4B10B51B4C1A683C
:100330006168A368D31A8B420EDB2368A260042B8A
:1003400008D8174A9B00D3589F460823154A1168BE
:100350000B4313600023236010BD134B134918682F
:1003600039F008FC0028F7D004232360F4E70122C9
:100370000F4B0CC4F0E7FA239B0063600223236059
:10038000EAE7094B0949186839F0E6FB0028E3D091
:1003900003232360E0E7C046600E002014450020E0
:1003A00098D50310E0220020DC2200200000F0C1DC
:1003B00088130000FA20154B154A1968136880004D
:1003C000CB1A834208DB1160124A1368012B15D047
:1003D000022B08D0002B00D070470F4B1B68012B5D
:1003E000FAD11360F8E70C4B1B68002B00D11360A7
:1003F00008230A4A11680B431360EDE7064B1B689C
:10040000002BE9D102331360E6E7C046600E0020FE
:100410008C2100201045002004230020E022002031
:1004200010B50D490D483CF07DF901210C2035F047
:1004300017FB01210A2035F013FB01210B2035F0B9
:100440000FFB0D2035F0A8FBD02380221B06920164
:100450005A625A6110BDC046400D030000000440BE
:10046000F0B5CE46474680B5AE4BAF4A1968136823
:100470008FB0CB1A632B6FDDAC4D11602B68052B51
:1004800000D9DEE1AA4A9B00D3589F46A94F38689D
:1004900039F075FBA84939F030FBFF218905041CB0
:1004A00039F05AFB002800D0F3E1A449201C39F0B0
:1004B00059FB002800D0F8E1A14BA0499846A14E75
:1004C000201C39F000FB414639F003FB311C39F0A8
:1004D000FDFA9D4B80461860786839F050FB9649CC
:1004E00039F00BFB994939F0F4FA994B061C186066
:1004F000B86839F044FB904939F0FFFA954B041C79
:100500001860301C994639F099FB060040460F00F0
:1005100039F094FB02900391201C39F08FFB3200DC
:10052000009001913B008C4839F024FE4B46FE219F
:100530001868890539F01EFB884A1368002800D125
:10054000ADE1013313600122052B00DC0022844B56
:100550001A602B6801332B600FB0C0BCB946B0469F
:10056000F0BD804A1368591E1160002BF4D12B6036
:10057000F2E7E0227C4BD2011B6813407B4A1360F8
:1005800001232B60E8E704228021794B49001A609F
:10059000754A13680B42FCD0724953680A68754E5D
:1005A0001B04501C1B0C9200086093510728D3D9E0
:1005B000002308220B6004AC00210CA839F0CEFB0C
:1005C00022000BCE0BC20BCE0BC20ACE0AC2049B7A
:1005D00062689A4201D2049263606368A26893429F
:1005E00001D96260A360A368E268934201D9A26066
:1005F000E360E36822699A4201D2E26023612369E1
:1006000062699A4201D2226163616369A2699A4276
:1006100001D26261A361A369E2699A4201D2A26137
:10062000E361E268A3689446226963449446626980
:1006300063449B183F4A9B0813604B4B1A68802306
:100640005B015340E022D2011340484A1360022369
:100650002B6081E704228021454B49001A60424A01
:1006600013680B42FCD03F4953680A68414E1B0493
:10067000501C1B0C920008609351072800D86BE7B0
:10068000002308220B6004AC00210CA839F066FBA3
:1006900022000BCE0BC20BCE0BC20ACE0AC2049BA9
:1006A00062689A4201D2049263606368A2689A42C7
:1006B00001D26260A360A368E2689A4201D2A2609C
:1006C000E360E36822699A4201D2E2602361236910
:1006D0006269934201D9226163616369A2699342AD
:1006E00001D96261A361A369E269934201D9A26160
:1006F000E361E268A36894462269634494466269B0
:1007000063449B180B4A9B085360174B1A6880235D
:100710009B015340E022D2011340144A136003238B
:100720002B6019E7600E00208C4500200C4500204E
:10073000E0D50310402000203333533AEC51E03F22
:100740009FAB2D3C0000FA42DC220020EE7CFF3EF5
:10075000D8220020D4220020B8D503104C2000203D
:10076000042300201827002000C0044000D00440CB
:1007700000E0044090450020042280214E4B4900B7
:100780001A604E4A13680B42FCD04D4953680A6800
:100790004C4E1B04501C1B0C920008609351072800
:1007A00000D8D9E6002308220B6004AC00210CA875
:1007B00039F0D4FA22000BCE0BC20BCE0BC20ACEFC
:1007C0000AC2049B6268934201D904926360636821
:1007D000A268934201D96260A360A368E268934271
:1007E00001D9A260E360E3682269934201D9E26023
:1007F000236123696269934201D92261636163695C
:10080000A269934201D96261A361A369E26993423B
:1008100001D9A261E361E268A36894462269634456
:100820009446626963449B18274A9B089360E022C0
:10083000224BD2011B681340244A136004232B600F
:100840008AE61F211A2035F00BF9002200211A2018
:1008500035F01EF900211A2035F08AF91F211B20DE
:1008600035F0FEF8002200211B2035F011F900219F
:100870001B2035F07DF91F211C2035F0F1F80022F6
:1008800000211C2035F004F900211C2035F070F9FE
:1008900062E6FC210E4B00269846890510E6002BE7
:1008A00000DC50E6013B13604DE6FF21094B0A4E88
:1008B0009846890504E6C04600E0044000C00440B4
:1008C00018270020904500204020002000D0044040
:1008D0000AD7233C787A253C0000C84270B5194CF1
:1008E000194E1A4D82B004E02B60194A1368013387
:1008F000136000203BF01AF800281FD06B4601223D
:100900000020D91D3BF01EF8002819D06B46D9797C
:100910002268531CB15480222360D200934201D13B
:100920000023236080222B68D20001339342DBD165
:10093000002301222B60074B1A70D6E702B070BD6E
:10094000FF21E5E7B8430020843F00208C430020CE
:100950007421002045650020F8B5012810D0022838
:1009600054D0002830D080220021D2003E4839F0F7
:10097000F5F9802200213D48D20039F0EFF9F8BDA9
:100980003B4B1B78012B4DD83A498B699B06F6D41B
:1009900020220D27384B344C02269E5F2578002DEF
:1009A000EDD0AE420BD010008B6918401A42FAD13C
:1009B0000D6020708B6901341A42EFD0DFE78B693C
:1009C0001A42FCD10F60EEE7294B284C1B78032B11
:1009D00039D82578002DD2D0274B202100269E5FC4
:1009E0000D272648AE420CD00A0083691A401942EE
:1009F000FAD10560227065780134002DBFD0AE4277
:100A0000F2D183691942FCD10760EDE71C4C1D4807
:100A1000210039F0AFFB802200212000D20039F004
:100A20009DF9ACE7164C104A2000174938F038F908
:100A30002100144839F09EFB802200212000D200C2
:100A400039F08CF9A0E70E4D220028000F4938F04C
:100A500027F929000B4839F08DFB8022002128005E
:100A6000D20039F07BF9B4E7DC480020DC4C0020F0
:100A70001C65002000800340E46400200040034027
:100A8000DC500020D8D60310F8D5031000D6031090
:100A900070B52A4C2378052B4BD8294A9B00D35894
:100AA0009F4603232370274E274D33682A689B1ADD
:100AB000632B35DC70BD234B1A68234B1A6005236A
:100AC0002370F7E71F4B204A19681368CB1A312BA4
:100AD000F0DDD02340201B069861002311601B4AE3
:100AE00023701370E6E7194B1B78012BE2D1184AEB
:100AF0001278002ADED12370124B1A68124B1A604A
:100B0000D8E7104B104A19681368CB1A132BD1DDA4
:100B1000D02340201B065861022311602370C9E7CF
:100B20000120FFF719FF33682B602378013323700E
:100B3000C0E70023054A23701370BBE74D65002012
:100B400010D60310600E0020F04400204C650020F9
:100B5000376500203B4B70B51A683B4B19688A42D9
:100B600046D01A60394A1368082B42DD0021116013
:100B7000374A1368082B3CDD364B11601A68002A8F
:100B80003AD1D022802112068904916101221A6093
:100B9000314B1A68082A3ADD00221A60012200232C
:100BA0002E492F480C684D68A4185D410C604D60BB
:100BB0000168002901D0013901602A480168002933
:100BC00001D0013901600123234223D0D0238022A8
:100BD0001B065A61244C2368002B23D1234A116839
:100BE0003A291CDD1360224A11683A2917DD136087
:100BF00070BD01331360FBE7D02280211206890407
:100C0000516100221A60144B1A68082AC4DC0132B0
:100C10001A60EDE7D02380221B069A61DAE70131E2
:100C20001160E5E7134839F0A5FA01232268002096
:100C30009A4322603AF05EFF0121642036F01AFCEC
:100C4000FEE7C046600E00207C450020784500206D
:100C5000482F0020F84400204C2F002018190020B5
:100C6000D02200200C230020E02200208445002018
:100C70008045002028D6031010B5E124640221002D
:100C80000B4836F06DF921000A4836F069F9022167
:100C9000042034F0E5FE0221052034F0E1FE0221BB
:100CA000002034F0DDFE0221012034F0D9FE10BD19
:100CB0000080034000400340F0B500259F4C002118
:100CC000A5449F4A01A8009539F048F89D4C237827
:100CD000042B00D9B9E09C4A9B00D3589F469B4AFD
:100CE0009B4D10689B4B9C491B68286012795918D2
:100CF0002A719A4A1268D21A5A2A00D8BDE05A229A
:100D000028003CF007F9237801332370944A954B6F
:100D1000116828000B4013603CF0CEF80222924983
:100D2000281839F021F80020FFF716FE8F4B1A68BB
:100D30008F4B1A608F4B9D44F0BD8C4B8C4A1B68C7
:100D400012689B1AC82292009342F3DB814A13680F
:100D50005A33136003232370ECE7874A87491368EB
:100D60000968994279D005208549864E0860316826
:100D7000002933D1FEE70023784A1360824A1360CA
:100D800001222270794A1168794A11607F4A1370F2
:100D9000704A1360CEE77E4B1B78002BDAD17B4A7A
:100DA000117801297ED07B4F7B4D6B4E7B49320001
:100DB000280037F075FF80220021D200300038F083
:100DC000CDFF2900380039F0D5F980220021280014
:100DD000D20038F0C3FF00232370ABE77048591CE2
:100DE000C55C704B11601D708023DB00994201D1FE
:100DF0000023136000216C4834F08EFF336801211A
:100E0000013B6948336034F087FF684B1B78002B47
:100E100039D1524A5D491368002B61D1242D00D18C
:100E200080E0097848424141614801704F490868B3
:100E30004F4908600A2D6DD001215E481160464A75
:100E40000570D5540023535474E780220021424892
:100E5000D20038F083FF25706CE7444B444A1B688E
:100E600012689B1AFA2B00DC64E73C4B1B68002BD2
:100E700000D170E7022323705CE728003CF04AF8B9
:100E80000523237042E74C4B00229B5EAB4239D0D6
:100E900020214A4A93691942FCD12800156039F093
:100EA0007BF847E7464D137028003BF0D7FC454BD5
:100EB000DB69834200D076E7284BE91C1A68684654
:100EC000063A3CF093F8334F6946380039F052F94E
:100ED00069461F483BF0E8FF0020FFF73DFD63E750
:100EE0000978484241413248017020490868204948
:100EF00008600A2D0ED02F48334CA3421BD9230083
:100F000032499BE720212D4A93691942FCD10D23D8
:100F10001360BDE7274801780D29EDD12178013113
:100F20002170E9E70120087021490B700F4908681A
:100F30000F4908601F48591C80E7C046F4FBFFFFBB
:100F400001040000416500208CD6031080D60310F8
:100F5000DC4C002068220020703300207C37002009
:100F6000082F0020FFEFFFFF88D60310600E00203F
:100F7000642F00200C04000098430020AC430020A4
:100F8000D0220020884300207037002051650020C7
:100F900022650020D8D60310DC50002078D603103C
:100FA000843B002021650020008003403C65002038
:100FB000246500203D650020E464002000400340DB
:100FC000713300203C220020FE030000FF030000DC
:100FD000F0B5DE46454657464E46E0B50025574C2F
:100FE0000021A544564A01A8009538F0B7FE554C9B
:100FF0002378012B0DD0022B34D0002B27D00023D7
:101000002370514B9D44F0BCBB46B246A946A04656
:10101000F0BD4E4A4E4913680968994230D14D4E91
:101020004D4B32684D4F92461B683D689A4504D03F
:101030003360002D03D0013D3D60002DE1D1484BD0
:101040001B68002BDDD0237801332370D9E7444A95
:10105000136001222270404A11683E4A11603F4AE3
:101060001360CEE73E4B68461D683E492A0038F0C3
:101070007BFE002DC3DD69463B4839F07BF8BEE7B7
:1010800005203A493A4E08603168002900D1FEE750
:101090003848591CC35C116098468023DB00994294
:1010A00000D115600021344834F036FE3368012148
:1010B000013B3148336034F02FFE274B274F9946D0
:1010C000244E1B683D689A463360002D26D0414669
:1010D0002A4A91460A2916D0202914D020492848A6
:1010E0008C460968814215D84A1C93466246584688
:1010F000106040461B4A50540021584611544A463D
:101100004146117092E711780D29E7D1217801311C
:101110002170E3E71B4A1C499346E7E7C8233B607D
:101120001A4B69461048009339F024F84B46326850
:10113000009592461B683D68C9E7C046F4FBFFFF77
:10114000010400003F6500200C04000094430020CF
:10115000A84300205C2F0020600E0020C044002027
:1011600074370020702F002008D60310D0220020F2
:101170008443002084370020004003403A6500206B
:10118000FD030000FF030000FE0300003C313A00B5
:10119000F0B5DE46454657464E46E0B50025564C6E
:1011A0000021A544554A01A8009538F0D7FD544CBC
:1011B0002378012B0CD0022B23D0002B16D02570C6
:1011C000504B9D44F0BCBB46B246A946A046F0BD7C
:1011D0004D494E4A0B6812689A4227D003204C4A68
:1011E00010604C480268002A3AD1FEE74A4A136070
:1011F00001222270494A1168494A1160494A136024
:10120000DEE7454B484E1F6831003A00684638F02B
:10121000ABFD002F04DD6946444838F0ABFF009574
:10122000300000F02DFB00232370C9E73B4B3C4D01
:101230001A682B689B463B4B9A461B685A4505D05B
:101240002A60002B04D05246013B1360002BB7D11B
:10125000314B1B68002BB3D0237801332370AFE7E9
:10126000334E5F1CF65C80230F60DB009F4200D191
:101270000D602A4B013A984602601A68294B284DA6
:101280009A461B6893462A60002B25D02949894637
:101290000A2E16D0202E14D01F4927480F688846E2
:1012A000874215D8791C8C464046614601601E492C
:1012B0008846CE55404600216746C15549460E70C6
:1012C000BCE709780D29E7D1217801312170E3E7E6
:1012D0001A491B4F8C46E7E75246C8331360194B37
:1012E00069461948009338F045FF43461A682B6851
:1012F0009B4653461B68C9E7F4FBFFFF010400004F
:10130000406500200C040000A4430020B8430020E6
:10131000D02200208C43002078370020600E00206F
:10132000602F0020BC440020702F002008D603103E
:10133000843F002039650020FD030000FF0300000A
:10134000FE0300003C553A00D8D60310F0B5DE4647
:10135000574645464E460223E0B5D94D00272A6838
:1013600089B0134301222B60D64B00201F70D64B4F
:10137000D6491F60D64BD0241A6034F005FD0020FA
:10138000012134F0C9FCD349D34A8C46936A240620
:1013900063441361FA23D14A9B001360FFF76CFC8E
:1013A00038F0F4FE192034F0F7FB80239B0406206C
:1013B000636234F0F1FB40232A686362A3611C3B43
:1013C00013432B60FFF72CF801F084FD3BF08EF9FE
:1013D00001F002FE3AF050FBC14B0122042116201D
:1013E0001F60C04B34F06CFB072034F0D5FB80232A
:1013F0006362BD4B9B46B34B1B78002B00D0FCE0D7
:10140000FFF7A8FBB94A9369DB0632D4B84B102129
:101410001C68B84B1868B84B1B789846B74B1B68CC
:1014200005935E1C002399468023DB009A4693694E
:101430001942FCD113685D469C466746631C2F55D4
:10144000534500D100E11C0001303300504500D16C
:10145000EFE0956901362942E9D0A54A1460A54A12
:1014600010604A46002A02D04146A34A1170A34A9E
:101470001360A34A9369DB0632D4A24B10211C6887
:10148000A14B1868A14B1B789846A14B1B6805938C
:101490005E1C002399468023DB009A46936919421B
:1014A000FCD113689B4D9C466746631C2F555345E2
:1014B00000D1D6E01C0001303300504500D1C5E01A
:1014C000956901362942E9D08E4A14608E4A10602F
:1014D0004A46002A02D041468C4A11708C4A136059
:1014E000FFF7FCF98C4B1B680593002B46D1FA21C2
:1014F000754B89001A68894B1B680593D31A8B4278
:101500003CDB864B1A60864B5C681E68002C00D062
:1015100022E1844B9E4200D91EE1834B9E4200D9BA
:1015200022E1E1231B019E420CD300233000210065
:101530007E4A37F091FCE1211000090137F026FCCA
:101540007B4B1860E122300021000023120137F0AC
:1015500083FC14003C21200037F018FC754B06007A
:1015600018603C21200037F011FC734B1960734B5D
:101570001B78032B77D8002B00D019E1704B1B7818
:10158000002B0FD16F4B1B78012B00D1F9E001F03C
:1015900095FA6D4B1B78002B00D0F9E0FFF718FD92
:1015A00032F036FAFFF7F4FDFFF786FBFEF7BCFEDC
:1015B000FA21454B89001A68644B1B680593D31ABE
:1015C0008B4209DB614B1A60454B1B68052B00DD24
:1015D000E4E00023424A1360FEF7ECFE01F01AFC3F
:1015E000FEF73EFF01F058FB01F054FFFFF750FA01
:1015F000344B1B78002B00D102E70023314A002036
:1016000013700122324B31491A6034F0BDFB0121C5
:10161000002034F081FBFA2189008C462E4A936A1F
:1016200063441361284B284A1B68059301331360F8
:10163000E6E69069013684466546084029422FD186
:10164000012398469946F2E60024FDE690690136AA
:1016500084466546084029422AD101239946984686
:101660001CE7002427E7042B88D0052B00D0DAE004
:1016700020211E4A93691942FCD130231360344B58
:1016800002229B5E312B00D1D1E020211C4A9369BC
:101690001942FCD131232F48136038F0C9FC6DE7A3
:1016A000134A1449146000220A6001329046DBE6B6
:1016B000144A1549146000220A60013290460AE774
:1016C000082300200F650020600E00201503001085
:1016D0003860054080841E00004005400C23002037
:1016E000D82E00200503001084370020004003405E
:1016F000A84300208443002043650020702100207F
:1017000000800340AC430020884300204465002053
:101710006C210020843B0020D02200207445002052
:10172000181900207F33E1017F5101008051010031
:10173000601B0020FC2E0020D44400201C650020EB
:10174000296500202365002024650020DC2E002070
:10175000E46400203CD60310002330002100384A06
:1017600037F07AFB374B1860002330002100344AF1
:1017700037F072FB3449100037F008FB334B186028
:10178000D3E600F0B3FF324B1B78002B00D105E706
:1017900000232F4A137032F0F7F9FFE62D4B2E4845
:1017A000196838F0E7FC96232C4A9B00136010E779
:1017B000264B2B481B680593224B1B680693274B2F
:1017C000069A1B6802910393264B01961B682649D3
:1017D00007930093059B37F063FA244B1B6805932E
:1017E000002B0AD11E49224838F0C4FC8022002177
:1017F000D2001B4838F0B2FAC0E619491C4838F04C
:10180000B9FC80220021D200154838F0A7FA174B06
:1018100018491B6812481A00059337F041FA002353
:10182000124A1360DEE7144A013B1370A6E620213A
:10183000124A93691942FCD10D23136025E7C04673
:101840008033E1010465002080510100C82100209F
:1018500024650020D82E0020ACD503100C230020D6
:10186000DC500020601B00204CD603101023002009
:10187000D8D603106CD603101C65002000800340EE
:10188000F0B5DE4645464E4657460023E0B5834652
:1018900091B02E22002104A8039338F05FFA2C2285
:1018A0005B4694461B780B2599469C4B63449846AF
:1018B000EBB29A4643461F68019538003BF0FCFAAC
:1018C0004B460600002B57D05C463A7803E063781D
:1018D0000134002B01D09A42F9D1320039002000A6
:1018E0003BF04AFB002809D004235B429C46013DA3
:1018F000E044002DDCD100239A460193A519A45D94
:10190000002C04D10DE06C780135002C09D0202C7E
:10191000F9D053460B2B00D999E0814A9B00D3584C
:101920009F4653460B2B00D991E07E4A9B00D3582B
:101930009F460322290003A8303C3BF057FB082CAC
:1019400000D9A5E028003AF089FFC3B2092B00D9DD
:10195000CBE0754A1370FF2202407449744837F097
:101960009FF90220FEF7F8FF002011B0F0BCBB4643
:10197000B246A946A046F0BD5C46AEE7674B6C4E4A
:101980001F006C4D1C1D2C3704CC2900300037F093
:1019900087F90220FEF7E0FFA742F5D1664838F04C
:1019A00047FBE1E70122654B1A70DDE70122644B3A
:1019B0001A70D9E703AC1E22290020003BF016FB69
:1019C0002378312B6CD022005E49594837F068F9F2
:1019D0000220FEF7C1FFC7E72C786C2C46D16B784C
:1019E000632B43D1AB78642B40D1574A5C3B1168E1
:1019F0000B431360B8E72900032203A83BF0F6FA73
:101A000003A83AF02BFF01006328ADD84F4B082202
:101A1000186801293FD090430200186000293CD18A
:101A20004B4BD9694B4838F0A5FB9DE74A4B1A78D8
:101A3000002A15D0002249481A7038F09BFB93E722
:101A40000022474B47481A6038F094FB8CE7019A14
:101A50004549374837F024F90220FEF77DFF83E738
:101A6000012242481A7038F085FB7DE704222800E5
:101A70003F493BF081FA002829D10223324A1168FC
:101A80000B43136070E70322290003A83BF0AEFA72
:101A9000254B1A7861E702431A602D4BD961C1E7E3
:101AA0000221344A344C137820000B4304A91370EC
:101AB0003BF0FAF9200031493BF0CEFA22003049E0
:101AC0001B4837F0EDF80220FEF746FF4CE7692C83
:101AD0000FD16B786F2B0CD1AB78742B09D11A4ACC
:101AE000703B11680B4313603EE709220E4B1A70DE
:101AF00033E7732C0ED16B78792B0BD1AB78732B2A
:101B000008D1114A723B11681E480B43136038F02C
:101B10008FFA29E71C4838F08BFA25E7700E002071
:101B200064D7031094D703101C650020C8D6031097
:101B3000DC5000205CD7031088D6031027650020F6
:101B400026650020DCD60310E0220020082F0020AC
:101B50003C22002020D703103C65002030D7031022
:101B60000C23002050D70310BCD6031040D703101D
:101B7000E4D6031031650020B82E002084DD031068
:101B8000D4D60310ECD6031000D70310324A03005A
:101B90005268F0B5100A5040542250401A003032BA
:101BA000504042B2582057464E464546DE46013B1D
:101BB000DBB243432948E0B5C0180369816C9946FC
:101BC0004369C76998468369066A9C46456A446CBE
:101BD000436D9246026D224883B0006801938346AC
:101BE0005B462048006858401F4B1B7858404B46C6
:101BF00058404346584063465840784070406840DB
:101C00006040019B484050405840534658404B4626
:101C10001B0A584043461B0A584063461B0A58405B
:101C20003F0A7840360A70402D0A6840240A604016
:101C30000C0E60400C0C019B6040090A4840120ADF
:101C400050401B0A5840C0B203B0F0BCBB46B2467D
:101C5000A946A046F0BDC0468C220020782700206F
:101C600080370020A80E00200E650020F0B5DE466B
:101C700057464E4645460023E0B50500A9B0602210
:101C8000002110A80F9338F069F8A049A04B0978FB
:101C9000A04A5B68127807919F49FF240978059252
:101CA00006919E490FA8097803922A0030320292C9
:101CB00022001A401B041B0E04910192009355222E
:101CC0005423974936F0ECFF0FAA9649964836F010
:101CD000E7FF642200210FA838F040F82800FFF742
:101CE00055FF0D905820013DEDB245438F484519F1
:101CF0002B6A2A699C466B6A696998464646264063
:101D0000A869EF69099646463604360E0896664677
:101D10002640079666463604360E069626003E4056
:101D20003F043F0E0497270007400004000E029076
:101D300020002300084009041340090E1204120E6B
:101D400005960397019000910FA8794936F0A8FFF6
:101D50000FA975483BF082F80FAB642200211800F0
:101D600037F0FCFFAE6BAA6AB446EE6BE96AB04688
:101D70002E6C286BB14626001640B2464E462640D1
:101D80006B6B0B964E463604360E0A964646264038
:101D9000099646463604360E08966646264007964D
:101DA00066463604360E069626001E401B041B0EA1
:101DB000049323000340039323005E4F0B40000471
:101DC0000904000E090E1204120E059602900193EA
:101DD0000091534639000FA836F062FF0FA9524810
:101DE0003BF03CF80FAB64220021180037F0B6FF3F
:101DF000AE6BAA6AB446EE6BE96AB0462E6C286BED
:101E0000B14626001640B2464E4626406B6B0B96F6
:101E10004E463604360E0A964646264009964646F3
:101E20003604360E08966646264007966646360401
:101E3000360E069626001E401B041B0E049323003C
:101E400003400393230000040B400904000E090E15
:101E50001204120E05960290019300915346390028
:101E60000FA836F01DFF0FA92F483AF0F7FF0FAB70
:101E700064220021180037F071FFEB6CA96C180484
:101E80006A6C060E286D6D6DB446A846464626401F
:101E90000B9646463604360E0A9626002500064066
:101EA000099666462340079305930B041B0E029385
:101EB00000040B0215400C40000E1B0E090E12040C
:101EC000120E0890019300912B003900069604969B
:101ED00003940FA836F0E4FE0FA913483AF0BEFFB2
:101EE0000FAB18006422002137F038FF0D9A124919
:101EF0000FA836F0D5FE0FA90B483AF0AFFF29B076
:101F0000F0BCBB46B246A946A046F0BDA80E0020D4
:101F10008C220020640E0020803700200E650020F7
:101F2000ECD70310C4D70310DC4C00207827002026
:101F3000E4D70310DCD7031018D80310F0B5DE4641
:101F400057464E464546E0B50027A3B00400382268
:101F5000002114A8139737F001FFEF4B5A689A46F7
:101F6000130A5340542253402200303253405BB294
:101F700011935823013CE1B24B438B46E7498C4611
:101F800063441A6A596A0C925A6C1E695D699C69AD
:101F9000D8690D910E92996C1A6D5B6D0F9210932A
:101FA000DF4B9846DF4B994643464A461B6812680A
:101FB0005340DD4A94461278534073406B400C9A6C
:101FC0006340434053400D9A360A53400E9A2D0AFF
:101FD00053400F9A4B405340109A240A5340119A91
:101FE000000A53405E406E400C9B66401A0A464011
:101FF00056400D9ACD4D130A0E9A7340120A534063
:102000000A0E53400A0C53400F9A090A5940130A0A
:10201000109A5940130A5940CBB20E9354232A68A0
:10202000C34E13703168C34B5770994200DC33E2E2
:102030002B23C14A37600F9253702C339370D770A3
:10204000D31C1A000F322A6053221A70043A5A70B5
:1020500008329A70053ADA70153A1A710D3A5A71C7
:102060003121043A9A719A721A32DA721A735A73D7
:102070009A730022D9710231197203315972DA73DD
:1020800053465A68AD4B404619784B461B7813AC03
:1020900007930078059106906046007803915946B1
:1020A000FF233131029119001140120A13400490AC
:1020B000552201910093A249542313A836F0F0FD54
:1020C00018AB0021984623008C460C0099462A68DC
:1020D0003068984F19781170614601321170B8421A
:1020E00002DD01240020974A01334345F2D14B46DB
:1020F0002A600C93002C00D030605B465821594375
:10210000864B9C4661444B690A698869CF69984649
:102110000B6A496A8C46FF210C001440A1466446B4
:102120000C4009946446240A0C4008940C001C409E
:102130001B0A0B4006930B003B4005930B0003402A
:10214000039343460B4001934346120A1B0A3F0A7E
:10215000000A0A400F400840194007944B46049774
:102160000290009113A8784936F09AFD18218C4608
:1021700013AB00216344984689468C460C9944462B
:1021800088462A6830686B4F13AB19781170614626
:1021900001321170B84203DD012200209146694AE4
:1021A0000133A342F1D143460C934B462A60002BE6
:1021B00000D030605B4658215943584B9C466144DF
:1021C000CB6A8A6A086B4F6BCC6B99468B6B096C38
:1021D000A4468846FF210C001440A24644460C4009
:1021E0000B944446240A0C400A9464460C4009941B
:1021F0006446240A0C4008940C001C401B0A0B4047
:1022000006930B003B4005930B00034003934B46A2
:102210000B4001934B46120A1B0A3F0A000A0A4070
:102220000F400840194007945346049702900091CC
:1022300013A8464936F034FD0021894688463D49B9
:102240004C468C460C992A68894630681AAF13AB05
:1022500019781170414601321170604502DD012488
:102260000020384A0133BB42F2D14B462A600C931E
:10227000002C00D030605B4658215943274B9C46C8
:102280006144C86A8C6B8A6A4B6BA4460D90CC6B18
:10229000086B096CA0468946FF210C001440A24639
:1022A0004C460C400B944C46240A0C400A9444467D
:1022B0000C4009944446240A0C40089464460C409F
:1022C00007946446240A0C4006940C001C401B0A28
:1022D0000B4004930B000340000A084002900D9845
:1022E000039303000B400193120A030A0A401940AA
:1022F00005945346009113A8144936F0D1FC0021EF
:10230000894688460B494C468C460C992A68894672
:10231000306813AB1CE0C0468C22002078270020D8
:1023200080370020A80E00200E650020680E0020D7
:1023300088210020FE030000DC4C0020640E0020F9
:10234000ECD70310DD4C0020E4D70310DCD70310DA
:1023500019781170414601321170604502DD012487
:1023600000205D4A0133BB42F2D14B462A600C93F8
:10237000002C00D030605A4658235343574A9446A5
:102380006344D96C986C090A8846FF2144460C4086
:10239000A046DC6C5A6C0C40A1461C6D5B6D9C46E3
:1023A0000B0013409A4663460B400B9363461B0A8F
:1023B0000B400A9323001B0A0B4008934B460793DC
:1023C000434606934B460593434604930B00034054
:1023D0000393030A0B400293120A030C0A400C40B9
:1023E000000E194009945346019100903C4913A8EE
:1023F00036F056FC0022904694462B6831683948E6
:102400000C9C22781A70624601331A70814203DDF7
:10241000012300219846304B0134BC42F1D12B609E
:102420004346002B00D03160AA230E9A2E4913A8F0
:1024300036F036FC342106AA521812782B68294946
:102440001A70002230685A7088422EDD35213620FD
:1024500006AB5B181B780F994B7006AB1B181B78EB
:1024600001308B7006ABCA701B181B78CB700D2324
:1024700032600B714A7105314B1C2B600A230B70C3
:1024800000230F9A4B704133137023B0F0BCBB464E
:10249000B246A946A046F0BD2B2151702C31D31C69
:1024A0009170D770114A0F92CBE5352006A9091813
:1024B00009780130597006A99A7009180978013015
:1024C000997006A9DA70091809782A38D970187134
:1024D000591D5A71D0E7C046DD4C002078270020F6
:1024E000DCD70310FE0300000CD80310DC4C0020E6
:1024F000F8B50125684C23781D4210D102261E42F2
:102500001AD1DA0603D420271F4223D1F8BD634E27
:102510003278162A36D8624992008A58974609229C
:102520006049614837F020FC0020FEF715FA237857
:102530000020AB432370E9E75C4B5D491A685A48B9
:1025400036F0AEFB0020FEF707FA23780020B343F5
:102550002370DBE7514E3378002B00D186E0012B4E
:102560000AD114225349504837F0FEFB0020FEF7F1
:10257000F3F92378BB43237000234F4A00203370C4
:102580001360C3E74C4B186800233370BEE7032386
:1025900001203370FFF76AFB434C002223004748B9
:1025A00005E0D97B013219700133824202D0597C97
:1025B0000029F6D10023A3540020FEF7CDF93E4BAD
:1025C0001868A3E70120FFF7B9FC0020FEF7C4F963
:1025D00003233370384B186898E710229343002286
:1025E0002370354B00201A60354B1A78142ACBD94A
:1025F00001221A70C8E70F2232492B4837F0B4FB8A
:102600000020FEF7A9F900222F4B1A700423337023
:102610002B4B1A78142AD2D901221A70264B18682B
:1026200074E72A4C2378002B2DD0112228491E480C
:1026300037F09AFB002301222370264B1A701523D2
:102640003370B9E7022333701B4B18685EE701252E
:10265000214B194C1A6821491348256036F020FB9C
:102660000020FEF779F9206835704FE715221C49E4
:102670000D4837F079FB0020FEF76EF90E4B012074
:1026800035701D6042E7174B17491A68064836F047
:1026900007FB142333708FE7306500204B65002063
:1026A000C8D9031024D90310DC4C0020002F0020CF
:1026B00030D90310B4D9031000650020FE030000D8
:1026C000A50E00208CD903101F650020086500208E
:1026D00064D9031011650020A00E002040D903101A
:1026E0009CD90310AC0E002078D90310FA20674B58
:1026F000674A1968136870B5CB1A8000834219DBEA
:10270000644C11602368002B0CD1634A1378012BB1
:1027100011D0624D2B78092B00D9AAE0604A9B00AA
:10272000D3589F465C4A013B11782360012902D0AF
:10273000002BEED070BD002313702360E9E70A235D
:102740002360584B1A78002A03D000221A70012304
:102750002360FFF7CDFE0028ECD1534B1A68042A02
:1027600001D805221A6009232B70E3E74F4B1B7831
:10277000002BDFD008232B70DCE7032033F00CFAAA
:10278000D023082240211B065A625A61484A137816
:102790008B43137001220023464922602A70464A67
:1027A0000B601370C6E7D02308221B069A61012331
:1027B0003832110023603E4B1B7819401A425BD01F
:1027C00002232B70B6E707223C493D4837F0CCFA8C
:1027D0000020FEF7C1F8032323602B70AAE70A222A
:1027E0003849374837F0C0FA0020FEF7B5F8042220
:1027F0002F492A700B7893430B700323236099E7CA
:102800000B2231492E4837F0AFFA0020FEF7A4F82A
:102810000821274A13788B43137003232360023364
:102820002B7087E71C222949254837F09DFA0020A4
:10283000FEF792F80323236003332B707AE7142208
:1028400023491F4837F090FA0020FEF785F803234C
:10285000236004332B706DE70C221E49184837F0B3
:1028600083FA0020FEF778F80323236005332B70EA
:1028700060E700232B705DE70E4A13680133136095
:10288000142B00DC56E7297054E7C046600E002088
:10289000742200207C220020116500204A6500205F
:1028A00080DA031020650020D0220020306500204F
:1028B00031650020542100201F65002024DA031018
:1028C000DC4C00202CDA031038DA031044DA031051
:1028D00060DA031074DA0310F0B5C646012500B5BE
:1028E000664C23781D421AD102271F420BD11022B9
:1028F0001100194088461A421ED120271F4247D195
:1029000080BCB846F0BD5E4E3378002B28D0012B3A
:102910001AD000235B4A002013603370F0E70922CD
:1029200059495A4837F020FA0020FEF715F8237865
:102930000020AB432370E3E7514E3378162B32D897
:10294000534A9B00D3589F46102252494F4837F0B4
:102950000BFA0020FEF700F82378BB432370D8E77A
:102960000F224D49494837F0FFF90020FDF7F4FFE9
:10297000444B012035701D60C2E70120FFF7DEFAED
:102980000020FDF7E9FF032333703E4B1868B7E7DB
:102990003B4E3378002B62D0012B50D0394B186856
:1029A00000233370ACE700233370364B1868A7E779
:1029B00000223A4B01201A7003233370FFF756F9B7
:1029C0000020FDF7C9FF2F4B186899E70D22344905
:1029D0002E4837F0C9F90020FDF7BEFF10222378FA
:1029E0000020934323700023264A337013602D4B3D
:1029F0001A78142A00D883E701221A7080E70D2282
:102A00002949224837F0B0F9244B00201B785A425C
:102A1000534115333370FDF79FFF1A4B18686FE76A
:102A20000124224B22491A68184836F039F900204F
:102A30003470FDF791FF134B01201C6060E71422F6
:102A40001C49124837F090F90020FDF785FF4246F7
:102A500023780020BB4323700A4B1A60A0E715229D
:102A600015490A4837F080F90020FDF775FF3378E3
:102A7000012001333370034B1D6041E730650020B6
:102A80004F650020FC64002024D90310DC4C00209A
:102A900008DB0310B8DA0310A8DA03100865002079
:102AA000F8DA0310A40E0020E8DA0310A00E0020CC
:102AB000C8DA0310B4D903109CD90310FA20624B72
:102AC000624A1968136870B5CB1A8000834219DB1B
:102AD0005F4C11602368002B0CD15E4A1378012BE8
:102AE00011D05D4D2B78072B00D998E05B4A9B00F5
:102AF000D3589F46574A013B11782360012902D0E1
:102B0000002BEED070BD002313702360E9E70A2389
:102B10002360534B1A78002A03D000221A70012335
:102B20002360FFF7D9FE0028ECD14E4B1A68042A27
:102B300001D805221A6007232B70E3E74A4B1B7864
:102B4000002BDFD006232B70DCE7032033F024F8C2
:102B5000D023082240211B065A625A61434A137847
:102B60008B43137000230122414922600B608821AE
:102B70002A70404A1160404A1370C3E7D0230822EC
:102B80001B069A610123383211002360374B1B78F2
:102B900019401A4246D002232B70B3E70722374967
:102BA000374837F0E1F80020FDF7D6FE0323236015
:102BB0002B70A7E70C223349314837F0D5F80020B5
:102BC000FDF7CAFE0221294A13788B4313700323B1
:102BD000236002332B7095E70B222B49284837F0EE
:102BE000C3F80821214A002013788B431370FDF7A6
:102BF000B3FE0323236003332B7083E709222349A9
:102C00001F4837F0B1F80020FDF7A6FE042217494F
:102C10002A700B7893430B700323236072E7002321
:102C20002B706FE7124A136801331360142B00DC1A
:102C300068E729700D221649164837F095F80220EA
:102C4000FDF78AFE5EE7C046600E0020702200207D
:102C50007822002011650020496500208CDB0310DC
:102C600020650020D0220020306500203165002042
:102C700050210020AC0E00201F65002024DA031034
:102C8000DC4C002080DB031038DA031074DB031007
:102C900064DB0310DC50002070B5504B504A1968BB
:102CA00013688AB0CB1A092B14DD4E4C11602368CF
:102CB000172B11D84C4A9B00D3589F4600F044F97B
:102CC00001000200494837F055FA0323002223602F
:102CD000474B1A700AB070BD00232360FAE7454ADB
:102CE0001368591C1160444A12689342EDD21523AF
:102CF0002360EFE73F4E414D33689800401900F0E4
:102D000005F9316802008B005B593D48009337F0AC
:102D100031FA16232360DDE700F05EF902000100BE
:102D2000384837F027FA0022374B1A700C232360FB
:102D3000D0E703232360CDE72E4A1368591C1160A6
:102D40002D4A126893423FD201232360C2E7284BE9
:102D50001B78012B3ED02C4B1B78012BBAD10C33A6
:102D60002360B7E7052300222360224B1A60B1E7F6
:102D70002648C57EC368826841680895857E0795A8
:102D8000457E0695057E0595C57D0495857D039553
:102D9000457D0295057D0195006900901C4837F03E
:102DA000E9F923680133236094E71723236091E74F
:102DB000052323608EE700220E4B1A600E4B04326F
:102DC0001A600123236085E70C23002223600E4B49
:102DD0001A707FE701332360BDE7C046600E002014
:102DE0000C220020C0210020DCDB0310D0DB03100C
:102DF000276500200C2F0020F82E0020DC54002036
:102E0000BCDB0310ACDB0310266500208C22002005
:102E1000A4D80310284B294A1968136810B5CB1A97
:102E2000632B11DD1160264A1368022B31D00CDCB4
:102E3000002B15D0012B1BD1022313600022214B44
:102E40001A60214B03321A6010BD042B10D11D49AA
:102E50000B68581E0860002BF6DC00231360F3E7B4
:102E6000D0231B065B685B02EED401231360EBE703
:102E7000162032F091FED02380221B06D2039A62E4
:102E800000210122162032F003FE00220E4B1A60B0
:102E9000DAE70D4B1B68002BD6D1043313600B49C6
:102EA00002220B4836F060FF0220FDF755FDFA22A2
:102EB000044B52001A60C7E7600E00201022002069
:102EC0006C0E0020BC210020102300203CDC0310ED
:102ED000DC50002010B50B490B4839F01FFB0321D3
:102EE000082032F0BDFD0321092032F0B9FD002297
:102EF0000121082032F0CCFD00220121092032F00E
:102F0000C7FD10BDA0860100B00F00200B4B01686B
:102F1000C31A002010B584B002AA9B1053701C0A7B
:102F20000B0A9370064B1071D170147019780090D1
:102F30000423044839F01CFB04B010BDDC5400200D
:102F4000B00E0020B00F002010B51B4C0021A5448E
:102F500000241A4A03A8029436F000FF184B1949BE
:102F60005A680A204A60DA686844CA601A7D4A6171
:102F70009A688A601A690A615A7D8A619A7DCA6173
:102F8000DA7D0A621A7E4A625A7E8A629A7ECA6232
:102F9000DB7E15220B630C4BDB698B6336F0E4FEA2
:102FA0000A4B02AA19780A484023009439F0E0FA43
:102FB000084B9D4410BDC046F8F7FFFFFC0700001A
:102FC0008C220020DC5400203C220020B00E002087
:102FD000B00F00200808000070B50025214C00212A
:102FE000A544214A03A8029536F0B8FE01231F4EDE
:102FF0001F4C317802AA00932000013339F0B8FA4F
:103000000A2231786A4400953E23200039F018FBEB
:103010000A230500174C6B4419001522200036F0D6
:10302000A3FE2800144B62685A60E268DA606269A5
:103030001A75A2689A6022691A61A2695A75E269D2
:103040009A75226ADA75626A1A76A26A5A76E26A12
:103050009A76226BDA76A26B084BDA61084B9D44B4
:1030600070BDC046F8F7FFFFFC070000B00E00205F
:10307000B00F0020DC5400208C2200203C220020D5
:103080000808000070B58AB001A90A00194B31CBBD
:1030900031C231CB31C211CB11C21B88D025138074
:1030A0008022154C2D062378D201CB5CAA616A469A
:1030B0001370C046C046C0468026B601AE61C04609
:1030C000C046C046012269460C483AF02DFAC04677
:1030D000C046C0466E61C046C046C0462378202B1D
:1030E00005D800200133DBB223700AB070BD002385
:1030F0000120F9E74CDE0310386500200000044091
:10310000F0B58023D0254F46D6464646DB012D0636
:10311000C0B59946AB61152382B001AF04003B7086
:10312000C046C046C0468026B601AE61C046C04615
:10313000C0460122390057483AF0F6F9C046C04669
:10314000C0466E61C046C046C0464B46AB610023D8
:1031500098463B70C046C046C046AE61C046C046B9
:10316000C046012239004B483AF0DEF9C046C0465D
:10317000C0466E61C046C046C0464B46AB613F2369
:103180003B70C046C046C046AE61C046C046C04661
:10319000012239003F483AF0C7F9C046C046C04650
:1031A0006E61C046C046C0464B46AB6175233B705E
:1031B000C046C046C046AE61C046C046C0460122B9
:1031C000390034483AF0B0F9C046C046C0466E6196
:1031D000C046C046C0464B46AB6143463B70C04606
:1031E000C046C046AE61C046C046C0460122390056
:1031F00028483AF099F9C046C046C0466E61C046BC
:10320000C046C0464B46AB617F233B70C046C046BC
:10321000C046AE61C046C046C046012239001D48C6
:103220003AF082F9C046C046C0466E61C046C0460C
:10323000C0464023984681239B019A46A044A2445D
:103240004446403C4A4623786A613B70C046C046CB
:10325000C0468026B601AE61C046C046C0460122C7
:1032600039000C483AF060F9C046C046C0466E616D
:10327000C046C046C04601344445E3D14023984689
:10328000A044D045DCD102B0E0BCBA46B146A84665
:10329000F0BDC0460000044070B5002601254E4C2C
:1032A00084B004230822042105200296019500948D
:1032B00031F0D2FC05230A22052105200296019552
:1032C000009431F0C9FC06230C220621032002964B
:1032D0000195009431F0C0FC07230C220721032044
:1032E00002960195009431F0B7FC08230D220821C5
:1032F000032002960195009431F0AEFC09230D22C3
:103300000921032002960195009431F0A5FC0A23BF
:103310000E220A21052002960195009431F09CFCB2
:103320000B230F220B21052002960195009431F00A
:1033300093FC0C230F220C2105200296019500948A
:1033400031F08AFC0D230F220D21052002960195F4
:10335000009431F081FC0E230E220E2105200296EE
:103360000195009431F078FC0F230D220F210320EA
:1033700002960195009431F06FFC10230D2210216C
:10338000032002960195009431F066FC11230C2273
:103390001121032002960195009431F05DFC122367
:1033A0000C221221032002960195009431F054FC66
:1033B00013230A221321052002960195009431F06F
:1033C0004BFC142308221421052002960195009439
:1033D00031F042FC04B070BDFFFF000070B5012465
:1033E0000026274D84B00D235A220C21502002962E
:1033F0000194009531F06EFE0D2346220C213C20F5
:1034000002960194009531F065FE0A237822052189
:103410006E2002940194009531F05CFE0D23782219
:103420000C216E2002960194009531F053FE142376
:1034300078220F216E2002940194009531F04AFE0B
:10344000802380220121012002960194009531F011
:1034500041FEFFF721FF0B23502101930A20094B66
:10346000094A009432F0A2F80C2301930A3B00931E
:103470005C210A20054B064A32F098F804B070BD72
:10348000FFFF0000D40E002090DD0310CC0E0020C2
:103490009CDD0310F0B54E46DE4657464546E0B586
:1034A000C74E87B033680D2B00D90CE2C54A9B008C
:1034B000D3589F46C44BC54A1B6812689B1AFA2210
:1034C0005200934200DA3DE10D2333603AE1C04BF4
:1034D0001B68002B00D135E1D02480232406DB01BA
:1034E000A361AF2305A90B70C046C046C046802526
:1034F000AD01A561C046C046C0460122B5483AF0BC
:1035000013F8C046C046C0466561C046C046C046C6
:103510000A23336016E1AC4DAC4C2B6822689B1A31
:10352000AD4A934200DC0DE1AC4836F081FD0F203E
:1035300032F032FBD02780233F061B027B620E2035
:10354000984632F029FB8023DB017B624346BB6156
:1035500077E09D4B9D4A19681368CB1AC72B00DC96
:10356000F0E01160D02380221B0612025A61022370
:103570003360E7E0944B954A19681368CB1A012B26
:1035800000DCDFE01160FFF77DFD012800D0D9E00D
:10359000336801333360D5E08B4B8C4A196813686C
:1035A000CB1AC72B00DCCDE0D02480232406DB011E
:1035B0001160A361AF2305A90B70C046C046C04689
:1035C0008025AD01A561C046C046C04601228148A4
:1035D00039F0AAFFC046C046C0466561C046C04635
:1035E000C0467F4836F0C6FDD2E7774B774A196868
:1035F0001368CB1AC72B00DCA4E080208001116087
:1036000036F092FB774B1860774836F011FD33683F
:103610000133336096E06C4D6C4C2B6822689B1A2A
:10362000632B00DC8EE000236E4F0093802280210C
:10363000386831F0D5F8102031F0FAF8386831F0F8
:10364000F1F82B6823603368013333607AE05E4B16
:103650005E4A1B6812689B1AFA225200934271DB81
:10366000002031F01BF93368013333606AE0012434
:1036700000275E4D5E4836F0DBFC01232A000A215C
:103680001420009431F06EF902232A000A211E2032
:10369000009431F067F903232A000A2128200094BE
:1036A00031F060F914230A220A210A2002970194BA
:1036B000009531F0D1FA1E23142214211420029710
:1036C0000194009531F0C8FA28231E221E211E20E5
:1036D00002940194009531F0BFFA32232822282168
:1036E000282002940194009531F0B6FA2B000F22A5
:1036F0001E213C200197009431F080FD2B00142204
:10370000282164200194009431F078FD28233C2284
:103710001E21322002970194009531F0DBFC322308
:103720006E221E215A2002940194009731F0D2FC9F
:10373000304836F07DFC244B1A68244B1A603368FD
:103740000133336007B0F0BCBB46B246A946A04681
:10375000F0BD1D4B9B461D4B9A465B4652461B686F
:1037600012689B1AFA22D2009342EBDB00239846A0
:103770001E4B0024002501279946434602934B46E1
:1037800029000835ADB27F220020009301972B005D
:1037900031F0A0FC434621000434A4B200937F2200
:1037A000230000200297019731F094FC402CE4D1D3
:1037B0005A46534612681A60336801333360C1E7D2
:1037C000C444002014DE0310600E00208421002079
:1037D0000C23002000000440DB050000A8DD0310DE
:1037E000C4DD0310441B0020CCDD0310FFFF0000EC
:1037F000F4DD031004DE03104D4D4E4C2B6822689F
:103800009B1AFA22D20093429CDB002031F046F84A
:103810000B23494F01930A3B009350213B000A20A0
:10382000464A31F0C3FE0C2301930A3B00935C210E
:103830000A20434B434A31F0B9FE0D2303930A3B60
:1038400002930133984601933F4B642100930A2071
:103850003E4A3F4B31F0FCFE0E2303934346029356
:1038600001330193002274210A203A4B009731F072
:10387000EFFE394B1868FFF743FCE2E6FA202C4BC9
:103880002C4A19681368C000CB1A834200DA59E742
:10389000324B11601B78012B01D10A333360304B5E
:1038A0001B68002B25D02F4B1B68002B00D149E74C
:1038B0000E23336046E70022284B1A70FFF78EFD77
:1038C0000A2333603EE7FA20194B1A4A1968136835
:1038D000C000CB1A834200DA34E71160214A136832
:1038E000002B00D12EE70021316008318B4313609B
:1038F00028E70C333360D02480232406DB01A36146
:10390000AE2305A90B70C046C046C0468025AD0158
:10391000A561C046C046C0460122134839F004FEE6
:10392000C046C046C0466561C046C046C046BAE70C
:10393000600E002084210020D40E002090DD0310B2
:10394000CC0E00209CDD0310C40E00200B0BEE07F4
:103950003CDD5E400C242E41441B002028650020E5
:103960000C230020E022002000000440F8B5CE46E1
:103970004746EA4C80B522689F2A01D902F0FEFD35
:10398000E7499300CB589F4601322260C0BCB9463C
:10399000B046F8BDE34B1B78012B01D802F0EAFDDD
:1039A000E1494B78632B01D802F0ECFDFA21DF4BA3
:1039B000013219602260E9E70027DD4B30201F70DB
:1039C000DC4BDD4D1A689C465023AB54AB18587045
:1039D0009870D870233018710130587160460732E2
:1039E000026036229A715123D44E283231784B40EE
:1039F00033700126D24BD3491E70D34B1F70D34F67
:103A0000D34B38001A7035F04BF92900380039F0E3
:103A100025FAD04B1E70236801332360B6E70F22CE
:103A2000C34BC44E1A70502330273268C24DC3486E
:103A3000AB54AB180732326036225F7001379F708B
:103A40000437DF701E371F7101375F719A7155237C
:103A5000012600220178BD4F4B400370B84BB94995
:103A60001E70B94B38001A70B94B5E321A7035F0BF
:103A700017F92900380039F0F1F9B64B1E702368A8
:103A80000133236082E70F22A94BAA4E1A705023FC
:103A900030273268A84DA948AB54AB1807323260C2
:103AA00034225F7001379F700437DF701E371F713B
:103AB00001375F719A715723012600220178A34FC5
:103AC0004B4003709E4B9F491E709F4B38001A70ED
:103AD0009F4B5E321A7035F0E3F82900380039F058
:103AE000BDF99C4B1E702368013323604EE70F2203
:103AF0008F4B904E1A705023904832688E4D01784B
:103B0000AB545940AB1807323260332230270126BC
:103B10009A7100225F7001379F700437DF701E3783
:103B20001F7101375F71864B884F1E70864B017085
:103B30001A70874B5E32834938001A7035F0B0F83E
:103B40002900380039F08AF9824B1E70236801334E
:103B500023601BE70F22764B764E1A7050233027D6
:103B60003268754D7548AB54AB180732326032225B
:103B70005F7001379F700437DF701E371F71013788
:103B80005F719A7151230126002201786F4F4B40DB
:103B900003706B4B6B491E706B4B38001A706C4B8B
:103BA0005E321A7035F07CF82900380039F056F989
:103BB000684B1E70236801332360E7E60F225C4BDD
:103BC0005C4F1A7050233A685B4D5C48AB5435210A
:103BD000037830269846AB18D9701E315E70197183
:103BE0000136013107329E7059713A609E7142462A
:103BF0005223534000220370514B303E1E70524BF3
:103C0000524F1A70524B5E324E4938001A7035F0DE
:103C100047F82900380039F021F94E4B1E7023680F
:103C200001332360B2E60F22414B424E1A705023FB
:103C300030273268404D4148AB54AB1807323260F0
:103C400044225F7001379F700437DF7018371F718F
:103C500002375F719A7122230126002201783B4FBF
:103C60004B400370364B37491E70374B38001A7083
:103C7000374B5E321A7035F013F82900380039F0EE
:103C8000EDF8344B1E702368013323607EE6254B2C
:103C90001B780F2B01D802F06DFC2349CB7B632BE3
:103CA00001D802F083FCFA21204B01321960226016
:103CB0006CE60E221E4B1F4E1A70502330273268BE
:103CC0001D4D1E48AB54AB180732326036225F7070
:103CD00001379F700337DF701F371F7101375F7126
:103CE0009A715423012600220178184F4B4003702B
:103CF000134B14491E70144B38001A70144B5E326B
:103D00001A7034F0CDFF2900380039F0A7F8114BB4
:103D10001E7023680133236038E6C046B42E0020AD
:103D2000B8DE0310B80E0020D844002088450020DB
:103D30002A650020CC480020BC45002014650020E6
:103D40000965002070DE031046650020DC48002075
:103D50000A6500204C6500200027F34B30201F70BF
:103D6000F24BF34D1A689C465023AB54AB18587075
:103D70009870D8702330187101305871604607323E
:103D8000026032229A715523EA4E2C3231784B4030
:103D900033700126E84BE9491E70E94B1F70E94F6B
:103DA000E94B38001A7034F07BFF2900380039F0F5
:103DB00055F8E64B1E70236801332360E6E50027C3
:103DC000D94B30201F70D94BD94D1A689C465023CF
:103DD000AB54AB1858709870D870233018710130FC
:103DE000587160460732026031229A715623D14ED3
:103DF0002D3231784B4033700126CF4BCF491E70A6
:103E0000CF4B1F70CF4FD04B38001A7034F048FFA3
:103E10002900380039F022F8CC4B1E70236801339A
:103E20002360B3E50027C04B30201F70BF4BC04D4F
:103E30001A689C465023AB54AB1858709870D870D1
:103E40001D301871023058716046073202604422FA
:103E50009A712623B74E1A3231784B4033700126BF
:103E6000B54BB6491E70B64B1F70B64FB64B3800F7
:103E70001A7034F015FF2900380038F0EFFFB34B0B
:103E80001E7023680133236080E50125B04A256058
:103E90001378632B00D979E5AE4C01331370200001
:103EA0000122AD4934F0FCFEAC4BAD4A5C601A8097
:103EB0001D72AC4AAC4B1A6068E500279A4B302063
:103EC0001F709A4B9A4D1A689C465023AB54AB18FE
:103ED00058709870D870233018710130587160464E
:103EE0000732026034229A715323924E2A3231787B
:103EF0004B4033700126904B90491E70904B1F70C1
:103F0000904F914B38001A7034F0CAFE29003800E7
:103F100038F0A4FF8D4B1E7023680133236035E514
:103F20000027814B30201F70804B814D1A689C46C2
:103F30005023AB54AB1858709870D8702330187158
:103F40000130587160460732026033229A7154235F
:103F5000784E2B3231784B4033700126764B7749BF
:103F60001E70774B1F70774F774B38001A7034F004
:103F700097FE2900380038F071FF744B1E702368DB
:103F80000133236002E50E22674B684F1A705023FD
:103F90003A68674D6748AB543026037853219846FA
:103FA000AB185E7001369E7019710336013107320D
:103FB000DE7059713A609E7142465623534000228A
:103FC00003705D4B333E1E705D4B5E4F1A705E4B4F
:103FD0005E325A4938001A7034F062FE2900380007
:103FE00038F03CFF594B1E70236801332360CDE449
:103FF0000E224D4B4D4E1A705023302732684C4DD7
:104000004C48AB54AB180732326033225F70013733
:104010009F700337DF701F371F7101375F719A710F
:104020005123012600220178464F4B400370424B3A
:1040300042491E70424B38001A70434B5E321A7070
:1040400034F02EFE2900380038F008FF3F4B1E7078
:1040500023680133236099E40E22334B334E1A70E8
:10406000502334483268324D0178AB545940AB1874
:10407000073232603222302701269A7100225F70A7
:1040800001379F700337DF701F371F7101375F7172
:10409000294B2C4F1E702A4B01701A702A4B5E322E
:1040A000264938001A7034F0FBFD2900380038F03A
:1040B000D5FE264B1E7023680133236066E40E2272
:1040C000194B1A4F1A7050233A68194D1948AB54BE
:1040D0003421037830269846AB18D9701F315E70B2
:1040E00019710136013107329E7059713A609E7123
:1040F000424653235340002203700F4B303E1E7044
:104100000F4B104F1A70104B5E320C4938001A706A
:1041100034F0C6FD2900380038F0A0FE0B4B1E70AD
:1041200023680133236031E42A650020CC48002055
:10413000BC450020146500200965002070DE0310D6
:1041400046650020DC4800200A6500204C65002000
:10415000D84400203045002080DE0310C8440020F1
:1041600004100000C4090000904300200E22E74B19
:10417000E74E1A70502330273268E64DE648AB54BC
:10418000AB180732326044225F7001379F700337EB
:10419000DF7019371F7102375F719A71232301266F
:1041A00000220178DD4F4B400370DD4BDD491E706E
:1041B000DD4B38001A70DD4B5E321A7034F070FD42
:1041C0002900380038F04AFED94B1E7023680133AD
:1041D0002360FFF7DBFBD74B1B780E2B01D802F0D7
:1041E000C9F9D5498B7B632B01D802F02BFAFA2150
:1041F000D24B013219602260FFF7C8FB0D22C34B7E
:10420000C34E1A70502330273268C24DC248AB5497
:10421000AB180732326036225F7001379F70023769
:10422000DF7020371F7101375F719A7153230126A8
:1042300000220178B94F4B400370B94BB9491E7049
:10424000B94B38001A70B94B5E321A7034F028FD41
:104250002900380038F002FEB54B1E702368013388
:104260002360FFF793FB0D22A84BA94E1A70502331
:1042700030273268A74DA848AB54AB1807323260DC
:1042800034225F7001379F700237DF7020371F7153
:1042900001375F719A7151230126002201789F4FE7
:1042A0004B4003709E4B9F491E709F4B38001A7005
:1042B0009E4B5E321A7034F0F3FC2900380038F05F
:1042C000CDFD9B4B1E70236801332360FFF75EFB1F
:1042D0000D228E4B8E4F1A7050233A688D4D8E48AA
:1042E000AB543026037853219846AB185E700136E4
:1042F0009E701971023601310732DE7059713A60D1
:104300009E7142465623534000220370844B323E36
:104310001E70854B814F1A70844B5E328149380084
:104320001A7034F0BDFC2900380038F097FD804B3E
:104330001E70236801332360FFF728FB0D22734BA7
:10434000734E1A70502330273268724D7248AB5446
:10435000AB180732326032225F7001379F7002372C
:10436000DF7020371F7101375F719A715723012663
:1043700000220178694F4B400370694B69491E70F8
:10438000694B38001A70694B5E321A7034F088FC41
:104390002900380038F062FD654B1E702368013338
:1043A0002360FFF7F3FA0D22584B594F1A70502330
:1043B0003A68584D5848AB54332103783026984614
:1043C000AB18D97020315E70197101360131073296
:1043D0009E7059713A609E714246542353400022A8
:1043E00003704F4B303E1E704F4B4C4F1A704F4B6B
:1043F0005E324C4938001A7034F052FC2900380003
:1044000038F02CFD4A4B1E70236801332360FFF700
:10441000BDFA0D223D4B3E4E1A70502330273268B4
:104420003C4D3D48AB54AB180732326044225F70BC
:1044300001379F700237DF701A371F7102375F71C3
:104440009A712423012600220178344F4B400370D7
:10445000334B34491E70344B38001A70334B5E3284
:104460001A7034F01DFC2900380038F0F7FC304B8E
:104470001E70236801332360FFF788FA2D4B1B78E9
:104480000D2B01D802F076F82B494B7B632B01D81A
:1044900002F0ECF8FA21294B013219602260FFF793
:1044A00075FA0C22194B1A4E1A70502330273268B5
:1044B000184D1948AB54AB180732326036225F7082
:1044C00001379F700137DF7021371F7101375F712E
:1044D0009A715223012600220178104F4B4003703D
:1044E0000F4B10491E70104B38001A700F4B5E3284
:1044F0001A7034F0D5FB2900380038F0AFFC0C4BB3
:104500001E70236801332360FFF740FA2A650020FC
:10451000CC480020BC45002014650020DC48002069
:104520000965002070DE0310466500200A65002042
:104530004C650020B80E0020D8440020884500209B
:104540000C22E64BE64E1A705023E6483268E64DE0
:104550000178AB545940AB1807323260342230270F
:1045600001269A7100225F7001379F700137DF705A
:1045700021371F7101375F71DC4BDD4F1E70DD4B42
:1045800001701A70DC4B5E32DC4938001A7034F06E
:1045900087FB2900380038F061FCD94B1E70236876
:1045A00001332360FFF7F2F90C22CC4BCC4E1A708A
:1045B000502330273268CC4DCA48AB54AB18073271
:1045C000326033225F7001379F700137DF7021370F
:1045D0001F7101375F719A715723012600220178FC
:1045E000C34F4B400370C14BC4491E70C14B3800D0
:1045F0001A70C14B5E321A7034F052FB2900380039
:1046000038F02CFCBE4B1E70236801332360FFF78B
:10461000BDF90C22B14BB24F1A7050233A68B24D1B
:10462000B048AB543026037853219846AB185E70DF
:1046300001369E701971013601310732DE705971F1
:104640003A609E7142465623534000220370A74BA6
:10465000313E1E70A74BA64F1A70A74B5E32A7497A
:1046600038001A7034F01CFB2900380038F0F6FBD3
:10467000A34B1E70236801332360FFF787F90C22D8
:10468000964B974F1A7050233A68974D9548AB5404
:104690003221037830269846AB18D97021315E70EC
:1046A00019710136013107329E7059713A609E715D
:1046B000424655235340002203708C4B303E1E70FF
:1046C0008C4B8B4F1A708C4B5E328C4938001A70B1
:1046D00034F0E6FA2900380038F0C0FB884B1E7031
:1046E000236801332360FFF751F90C227B4B7C4E8A
:1046F0001A705023302732687B4D7A48AB54AB1880
:104700000732326044225F7001379F700137DF70DB
:104710001B371F7102375F719A7125230126002212
:104720000178734F4B400370704B74491E70714B8E
:1047300038001A70704B5E321A7034F0B1FA2900EA
:10474000380038F08BFB6E4B1E70236801332360FA
:10475000FFF71CF96B4B1B780C2B01D801F00AFFFB
:1047600069490B7B632B01D801F058FFFA21674B95
:10477000013219602260FFF709F90B22574B584E9E
:104780001A7050233268584D3027AB54AB1807329B
:10479000326036225F7001379F70DF7022371F71E1
:1047A00001375F719A715123012600224D48504F05
:1047B00001784B4003704D4B50491E704D4B3800F3
:1047C0001A704D4B5E321A7034F06AFA29003800C4
:1047D00038F044FB4A4B1E70236801332360FFF717
:1047E000D5F80B223D4B3E4F1A7050233A683E4D90
:1047F0003C4EAB543378302053219846AB18587058
:1048000019710130013107329870D87059713A60CE
:104810009871424656235340337001260022334B91
:10482000334F1E70334B35491A70334B5E323800AC
:104830001A7034F035FA2900380038F00FFB304B8D
:104840001E70236801332360FFF7A0F80B22234B6F
:10485000234E1A7050233268234D3027AB54AB18C7
:104860000732326044225F7001379F70DF701C375F
:104870001F7102375F719A712623012600221948A1
:104880001B4F01784B400370184B1C491E70194B8D
:1048900038001A70184B5E321A7034F001FA290091
:1048A000380038F0DBFA164B1E70236801332360A2
:1048B000FFF76CF8134B1B780B2B01D801F05AFE55
:1048C0001149CB7A632B01D801F097FEFA210F4BE7
:1048D000013219602260FFF759F8C0462A650020AE
:1048E000CC48002014650020BC450020096500204C
:1048F000DC480020466500200A65002070DE0310B9
:104900004C650020B80E0020D844002088450020C7
:104910000A22F74BF74E1A705023F7483268F74DCA
:1049200001783027AB545940AB18073232608846C3
:10493000362231215F70DF7023371F710137997084
:104940005F719A714346012600220370EC4BED4FD4
:104950001E70ED4BED491A70ED4B5E3238001A7047
:1049600034F09EF92900380038F078FAE94B1E70CF
:10497000236801332360FFF709F80A22DC4BDD4E80
:104980001A7050233268DD4DDB48AB540378302772
:104990009846AB1807323260312134225F70DF70E5
:1049A00023371F71013799705F719A714246522304
:1049B0000126534000220370D14BD24F1E70D24BC0
:1049C000D2491A70D24B5E3238001A7034F068F94E
:1049D0002900380038F042FACE4B1E7023680133AC
:1049E0002360FEF7D3FF0A22C14BC24E1A70502338
:1049F0003268C24DC048AB54037830279846AB1894
:104A000007323260312133225F70DF7023371F712C
:104A1000013799705F719A714246552301265340C0
:104A200000220370B64BB74F1E70B74BB7491A70D0
:104A3000B74B5E3238001A7034F032F92900380072
:104A400038F00CFAB34B1E70236801332360FEF775
:104A50009DFF0A22A64BA74E1A7050233268A74D1D
:104A6000A548AB54037830279846AB18073232601C
:104A7000312132225F70DF7023371F710137997047
:104A80005F719A71424654230126534000220370FD
:104A90009B4B9C4F1E709C4B9C491A709C4B5E32EA
:104AA00038001A7034F0FCF82900380038F0D6F9D4
:104AB000984B1E70236801332360FEF767FF0A22BC
:104AC0008B4B8C4F1A7050233A688C4D3126AB5467
:104AD000AB1830225A70DA7023321A7101329E708C
:104AE0005A719E7157233A68834807323A60002210
:104AF0000178303E4B400370814B824F1E70824BD9
:104B000082491A70824B5E3238001A7034F0C8F84D
:104B10002900380038F0A2F97E4B1E70236801335B
:104B20002360FEF733FF0B22714B724E1A70502335
:104B30003268724D3027AB54AB18073232603322E3
:104B40005F7001379F70DF7022371F7101375F710F
:104B50009A7154230126002267486A4F01784B401E
:104B60000370674B69491E70674B38001A70684BB9
:104B70005E321A7034F094F82900380038F06EF97B
:104B8000644B1E70236801332360FEF7FFFE0B2287
:104B9000574B584E1A7050233268584D3027AB543B
:104BA000AB180732326032225F7001379F70DF70BE
:104BB00022371F7101375F719A7155230126002238
:104BC0004D48504F01784B4003704D4B4F491E707C
:104BD0004D4B38001A704E4B5E321A7034F060F84C
:104BE0002900380038F03AF94A4B1E702368013327
:104BF0002360FEF7CBFE0B223D4B3E4E1A70502336
:104C000032683E4D3027AB54AB1807323260342245
:104C10005F7001379F70DF7022371F7101375F713E
:104C20009A715323012600223348364F01784B40B6
:104C30000370334B35491E70334B38001A70344BB8
:104C40005E321A7034F02CF82900380038F006F97A
:104C5000304B1E70236801332360FEF797FE0A2253
:104C6000234B244E1A7050233268244D2248AB54F3
:104C7000037830279846AB1807323260312144223E
:104C80005F70DF701D371F71023799705F719A7105
:104C9000424627230126534000220370184B194F28
:104CA0001E70194B19491A70194B5E3238001A7070
:104CB00033F0F6FF2900380038F0D0F8154B1E709D
:104CC000236801332360FEF761FE134B1B780A2B28
:104CD00001D801F04FFC11498B7A632B01D801F008
:104CE000FFFCFA210E4B013219602260FEF74EFEE6
:104CF0002A650020CC48002014650020BC45002017
:104D000009650020DC4800204665002070DE0310A5
:104D10000A6500204C650020B80E0020D844002011
:104D2000884500200922F24BF24E1A705023326857
:104D3000F14D3027AB54AB180732326036225F702A
:104D40009F700937DF701A371F7101375F719A71D1
:104D5000582301260022E948E94F01784B400370AF
:104D6000E84BE9491E70E94B38001A70E84B5E3297
:104D70001A7033F095FF2900380038F06FF8E54BD2
:104D80001E70236801332360FEF700FE0922D84B12
:104D9000D84E1A7050233268D74D3027AB54AB1819
:104DA0000732326034225F709F700937DF701A3724
:104DB0001F7101375F719A715A2301260022CF4873
:104DC000CF4F01784B400370CE4BCF491E70CF4B75
:104DD00038001A70CE4B5E321A7033F061FF290032
:104DE000380038F03BF8CB4B1E702368013323604A
:104DF000FEF7CCFD0922BE4BBE4E1A70502332681E
:104E0000BD4D3027AB54AB180732326033225F7090
:104E10009F700937DF701A371F7101375F719A7100
:104E20005D2301260022B548B54F01784B40037041
:104E3000B44BB5491E70B54B38001A70B44B5E3296
:104E40001A7033F02DFF2900380038F007F8B14B05
:104E50001E70236801332360FEF798FD0922A44BDE
:104E6000A44E1A7050233268A34D3027AB54AB18B0
:104E70000732326032225F709F700937DF701A3755
:104E80001F7101375F719A715C23012600229B48D4
:104E90009B4F01784B4003709A4B9B491E709B4B74
:104EA00038001A709A4B5E321A7033F0F9FE2900FE
:104EB000380037F0D3FF974B1E702368013323600F
:104EC000FEF764FD09228A4B8A4E1A70502332681D
:104ED000894D3027AB54AB180732326031225F70F6
:104EE0009F700937DF701A371F7101375F719A7130
:104EF0005F23012600228148814F01784B400370D7
:104F0000804B81491E70814B38001A70804B5E3295
:104F10001A7033F0C5FE2900380037F09FFF7D4B33
:104F20001E70236801332360FEF730FD0922704BA9
:104F3000704E1A70502332686F4D3027AB54AB1847
:104F40000732326044225F709F700937DF70143778
:104F50001F7102375F719A712F2301260022674863
:104F6000674F01784B400370664B67491E70674B73
:104F700038001A70664B5E321A7033F091FE2900C9
:104F8000380037F06BFF634B1E70236801332360DA
:104F9000FEF7FCFC604B1B78092B01D801F0EAFA04
:104FA0005E494B7A632B01D801F0AEFBFA215C4BD2
:104FB000013219602260FEF7E9FC08224C4B4D4E8D
:104FC0001A70502332684C4D3027AB54AB1807325F
:104FD000326036225F709F700837DF701B371F7199
:104FE00001375F719A715923012600224348444FCB
:104FF00001784B400370434B43491E70434B3800CC
:105000001A70434B5E321A7033F04AFE29003800A2
:1050100037F024FF3F4B1E70236801332360FEF7F7
:10502000B5FC0522324B334E1A7050233268324D94
:105030003027AB54AB180732326033225F709F7059
:105040000537DF701E371F7101375F719A71512369
:105050000126002229482A4F01784B400370294B32
:1050600029491E70294B38001A70294B5E321A707C
:1050700033F016FE2900380037F0F0FE254B1E7085
:10508000236801332360FEF781FC0522184B194E7B
:105090001A70502319483268174D0178AB545940A3
:1050A000AB18073232603222302701269A71002273
:1050B0005F709F700537DF701E371F7101375F719A
:1050C000104B0F4F1E70114B01701A70104B5E3257
:1050D0000D4938001A7033F0E3FD2900380037F02D
:1050E000BDFE0C4B1E70236801332360FEF74EFC9F
:1050F0002A650020CC480020BC4500201465002013
:10510000DC4800200965002070DE031046650020A1
:105110000A6500204C650020B80E0020D84400200D
:10512000884500200522FC4BFC4E1A705023326843
:10513000FB4D3027AB54AB180732326031225F7021
:105140009F700537DF701E371F7101375F719A71CD
:10515000532301260022F348F34F01784B4003709C
:10516000F24BF3491E70F34B38001A70F24B5E326B
:105170001A7033F095FD2900380037F06FFEEF4BC1
:105180001E70236801332360FEF700FC0522E24B0A
:10519000E24E1A7050233268E14D3027AB54AB1801
:1051A0000732326044225F709F700537DF70183716
:1051B0001F7102375F719A71232301260022D9489B
:1051C000D94F01784B400370D84BD9491E70D94B49
:1051D00038001A70D84B5E321A7033F061FD290026
:1051E000380037F03BFED54B1E7023680133236037
:1051F000FEF7CCFBD24B1B78052B01D801F0BAF996
:10520000D0494B79632B01D801F0BAFAFA21CE4B81
:10521000013219602260FEF7B9FB0422BE4BBF4E7B
:105220001A7050233268BE4D3027AB54AB1807328A
:10523000326036225F709F700437DF701F371F7136
:1052400001375F719A71552301260022B548B64F88
:1052500001784B400370B54BB5491E70B54B380013
:105260001A70B54B5E321A7033F01AFD29003800FF
:1052700037F0F4FDB14B1E70236801332360FEF755
:1052800085FB0422A44BA54F1A7050233A68A44D05
:10529000A448AB540378302653219846AB185E706F
:1052A0009E701971043601310732DE7059713A600F
:1052B0009E71424657235340002203709B4B333E5E
:1052C0001E709C4B984F1A709B4B5E329849380069
:1052D0001A7033F0E5FC2900380037F0BFFD974B1A
:1052E0001E70236801332360FEF750FB04228A4BB3
:1052F0008A4E1A7050238B483268894D0178AB541E
:105300005940AB18073232603322302701269A7198
:1053100000225F709F700437DF701F371F710137E5
:105320005F71824B804F1E70824B01701A70824BEE
:105330005E327F4938001A7033F0B2FC2900380021
:1053400037F08CFD7D4B1E70236801332360FEF720
:105350001DFB0422704B714E1A7050233268704D41
:105360003027AB54AB180732326032225F709F7027
:105370000437DF701F371F7101375F719A71512336
:10538000012600226748684F01784B400370674B45
:1053900067491E70674B38001A70674B5E321A708F
:1053A00033F07EFC2900380037F058FD634B1E7047
:1053B000236801332360FEF7E9FA0422564B574E67
:1053C0001A7050233268564D3027AB54AB18073251
:1053D000326031225F709F700437DF701F371F719A
:1053E00001375F719A715223012600224D484E4FBA
:1053F00001784B4003704D4B4D491E704D4B3800AA
:105400001A704D4B5E321A7033F04AFC2900380096
:1054100037F024FD494B1E70236801332360FEF7EB
:10542000B5FA04223C4B3D4E1A70502332683C4D75
:105430003027AB54AB180732326044225F709F7044
:105440000437DF7019371F7102375F719A71222399
:10545000012600223348344F01784B400370334B10
:1054600033491E70334B38001A70334B5E321A705A
:1054700033F016FC2900380037F0F0FC2F4B1E707B
:10548000236801332360FEF781FA2D4B1B78042B30
:1054900001D801F06FF82B490B79632B01D801F08B
:1054A00083F9FA21284B013219602260FEF76EFA67
:1054B0000322194B194E1A7050233268184D3027A9
:1054C000AB54AB180732326036225F709F700337DF
:1054D000DF7020371F7101375F719A7152230126E7
:1054E00000221048104F01784B4003700F4B1049B9
:1054F0001E70104B38001A700F4B5E321A7033F06A
:10550000CFFB2900380037F0A9FC0C4B1E70236834
:1055100001332360FEF73AFA2A650020CC480020C8
:10552000BC45002014650020DC48002009650020EF
:1055300070DE0310466500200A6500204C650020DF
:10554000B80E0020D8440020884500200322F34BE9
:10555000F34F1A7050233A68F24DF348AB54037876
:10556000302653219846AB185E709E701971033631
:1055700001310732DE7059713A609E7142465723FD
:10558000534000220370E94B323E1E70E84BE94F56
:105590001A70E94B5E32E94938001A7033F080FB2B
:1055A0002900380037F05AFCE54B1E7023680133A0
:1055B0002360FEF7EBF90322D84BD94E1A70502323
:1055C0003268D84D3027AB54AB18073232603222E4
:1055D0005F709F700337DF7020371F7101375F7175
:1055E0009A71562301260022CF48D24F01784B40B2
:1055F0000370CE4BD1491E70CD4B38001A70CE4B84
:105600005E321A7033F04CFB2900380037F026FC6C
:10561000CB4B1E70236801332360FEF7B7F90322DA
:10562000BE4BBF4E1A705023BF483268BD4D017843
:10563000AB545940AB180732326034223027012670
:105640009A7100225F709F700337DF7020371F71DF
:1056500001375F71B54BB74F1E70B54B01701A70B3
:10566000B54B5E32B54938001A7033F019FB29008A
:10567000380037F0F3FBB24B1E7023680133236010
:10568000FEF784F90322A54BA54E1A705023326809
:10569000A44D3027AB54AB180732326031225F7013
:1056A0009F700337DF7020371F7101375F719A7168
:1056B0005523012600229C489E4F01784B400370E1
:1056C0009A4B9E491E709A4B38001A709A4B5E3264
:1056D0001A7033F0E5FA2900380037F0BFFB984B19
:1056E0001E70236801332360FEF750F903228B4BB1
:1056F0008B4E1A70502332688A4D3027AB54AB184A
:105700000732326044225F709F700337DF701A37B0
:105710001F7102375F719A7125230126002282488A
:10572000844F01784B400370804B84491E70804B3E
:1057300038001A70804B5E321A7033F0B1FA2900CB
:10574000380037F08BFB7E4B1E70236801332360DB
:10575000FEF71CF97B4B1B78032B01D800F00AFFE6
:105760007949CB78632B01D800F0E2FFFA21774B1F
:10577000013219602260FEF709F90222674B684E78
:105780001A7050233268674D3027AB54AB1807327C
:10579000326036225F709F700237DF7021371F71D1
:1057A00001375F719A715323012600225E48614FD1
:1057B00001784B4003705D4B60491E705C4B3800B4
:1057C0001A705D4B5E321A7033F06AFA29003800A5
:1057D00037F044FB5A4B1E70236801332360FEF7F9
:1057E000D5F802224D4B4E4E1A70502332684D4D63
:1057F0003027AB54AB180732326034225F709F7091
:105800000237DF7021371F7101375F719A715123A1
:10581000012600224448474F01784B400370434B18
:1058200046491E70424B38001A70434B5E321A7064
:1058300033F036FA2900380037F010FB404B1E7069
:10584000236801332360FEF7A1F80222334B344E64
:105850001A7050233268334D3027AB54AB180732DF
:10586000326033225F709F700237DF7021371F7103
:1058700001375F719A715623012600222A482D4F65
:1058800001784B400370294B2C491E70284B38007F
:105890001A70294B5E321A7033F002FA2900380070
:1058A00037F0DCFA264B1E70236801332360FEF7C5
:1058B0006DF80222194B1A4F1A7050233A68194D8D
:1058C0001948AB540378302653219846AB185E70C4
:1058D0009E701971023601310732DE7059713A60DB
:1058E0009E71424657235340002203700F4B313EB6
:1058F0001E700F4B0F4F1A700F4B5E320F4938005E
:105900001A7033F0CDF92900380037F0A7FA0C4BA4
:105910001E70236801332360FEF738F82A650020E3
:10592000CC480020BC4500201465002009650020FB
:1059300046650020DC4800200A65002070DE031068
:105940004C650020B80E0020D84400208845002077
:105950000222F34BF34E1A7050233268F24D302777
:10596000AB54AB180732326031225F709F70023740
:10597000DF7021371F7101375F719A71542301263F
:105980000022EA48EA4F01784B400370E94BEA49AC
:105990001E70EA4B38001A70E94B5E321A7033F011
:1059A0007FF92900380037F059FAE64B1E7023685A
:1059B00001332360FDF7EAFF0222D94BD94E1A705A
:1059C00050233268D84D3027AB54AB1807323260C1
:1059D00044225F709F700237DF701B371F710237E0
:1059E0005F719A71242301260022D048D04F01789C
:1059F0004B400370CF4BD0491E70D04B38001A700B
:105A0000CF4B5E321A7033F04BF92900380037F073
:105A100025FACC4B1E70236801332360FDF7B6FFD7
:105A2000C94B1B78022B01D800F0A4FDC7498B7825
:105A3000632B01D800F090FEFA21C54B01321960AA
:105A40002260FDF7A3FF0125B54BB64F1D70502313
:105A5000B6483A68B44E0178B3545940B31830226E
:105A60005A709A700132DA7022321A7101325A7108
:105A70003A68017007323A6036229A710022AD4BC3
:105A8000AB4F1D70AD4BAC491A70AD4B5E32380058
:105A90001A7033F005F93100380037F0DFF9A94BFF
:105AA0001D70236801332360FDF770FF01259C4BB7
:105AB0009C4F1D7050233A689B4E9C48B354B318BA
:105AC00030225A709A700132DA7022321A71013221
:105AD0005A713A68017807323A6033229A71552335
